{
	"data": {
		"bytecode": {
			"linkReferences": {},
			"object": "60e0604052603f608081815290620052ee60a0396200001e8162000202565b50604080516080810182527370997970c51812dc3a010c7d01b50e0d17dc79c88152733c44cdddb6a900fa2b585dd299e03d12fa4293bc60208201527390f79bf6eb2c4f870365e785982e1f101e93b906918101919091527315d34aaf54267db7d7c367839aaf71a00a2c6a656060820152620000a090601990600462000567565b506001601d5560006003556040805180820190915267016345785d8a000081526702c68af0bb1400006020820152620000de906006906002620005c4565b506040805180820190915260018152600360208201526200010490600890600262000600565b50600f600b556000600c819055600d81905560118190556040805160608101825282815260208101839052908101919091526200014690601290600362000636565b5060408051606081018252600080825260208201819052918101919091526200017490600e90600362000636565b50600060168190556004805474f39fd6e51aad88f6f4ce6ab8827279cfffb9226600610100600160a81b031990911617908190557fac9ea287e28a6b9a01e90b4b5002798329590ddedf39dafb45e1bdd0526b10f3600555600b546040805160208101909152928352620001fc926101009092046001600160a01b0316916010919062000214565b620009df565b600262000210828262000723565b5050565b6001600160a01b0384166200027a5760405162461bcd60e51b815260206004820152602160248201527f455243313135353a206d696e7420746f20746865207a65726f206164647265736044820152607360f81b60648201526084015b60405180910390fd5b336000620002888562000336565b90506000620002978562000336565b90506000868152602081815260408083206001600160a01b038b16845290915281208054879290620002cb908490620007ef565b909155505060408051878152602081018790526001600160a01b03808a1692600092918716917fc3d58168c5ae7397731d063d5bbf3d657854427343f4c083240f7aacaa2d0f62910160405180910390a46200032d836000898989896200038c565b50505050505050565b6040805160018082528183019092526060916000919060208083019080368337019050509050828160008151811062000373576200037362000817565b602090810291909101015292915050565b505050505050565b620003ab846001600160a01b03166200055860201b6200262b1760201c565b15620003845760405163f23a6e6160e01b81526001600160a01b0385169063f23a6e6190620003e7908990899088908890889060040162000875565b6020604051808303816000875af192505050801562000425575060408051601f3d908101601f191682019092526200042291810190620008bc565b60015b620004e55762000434620008ef565b806308c379a0036200047457506200044b6200093b565b8062000458575062000476565b8060405162461bcd60e51b8152600401620002719190620009ca565b505b60405162461bcd60e51b815260206004820152603460248201527f455243313135353a207472616e7366657220746f206e6f6e2d4552433131353560448201527f526563656976657220696d706c656d656e746572000000000000000000000000606482015260840162000271565b6001600160e01b0319811663f23a6e6160e01b146200032d5760405162461bcd60e51b815260206004820152602860248201527f455243313135353a204552433131353552656365697665722072656a656374656044820152676420746f6b656e7360c01b606482015260840162000271565b6001600160a01b03163b151590565b8260048101928215620005b2579160200282015b82811115620005b257825182546001600160a01b0319166001600160a01b039091161782556020909201916001909101906200057b565b50620005c09291506200066b565b5090565b8260028101928215620005b2579160200282015b82811115620005b257825182906001600160401b0316905591602001919060010190620005d8565b8260028101928215620005b2579160200282015b82811115620005b2578251829060ff1690559160200191906001019062000614565b8260038101928215620005b25791602002820182811115620005b2578251829060ff1690559160200191906001019062000614565b5b80821115620005c057600081556001016200066c565b634e487b7160e01b600052604160045260246000fd5b600181811c90821680620006ad57607f821691505b602082108103620006ce57634e487b7160e01b600052602260045260246000fd5b50919050565b601f8211156200071e57600081815260208120601f850160051c81016020861015620006fd5750805b601f850160051c820191505b81811015620003845782815560010162000709565b505050565b81516001600160401b038111156200073f576200073f62000682565b620007578162000750845462000698565b84620006d4565b602080601f8311600181146200078f5760008415620007765750858301515b600019600386901b1c1916600185901b17855562000384565b600085815260208120601f198616915b82811015620007c0578886015182559484019460019091019084016200079f565b5085821015620007df5787850151600019600388901b60f8161c191681555b5050505050600190811b01905550565b808201808211156200081157634e487b7160e01b600052601160045260246000fd5b92915050565b634e487b7160e01b600052603260045260246000fd5b6000815180845260005b81811015620008555760208185018101518683018201520162000837565b506000602082860101526020601f19601f83011685010191505092915050565b6001600160a01b03868116825285166020820152604081018490526060810183905260a060808201819052600090620008b1908301846200082d565b979650505050505050565b600060208284031215620008cf57600080fd5b81516001600160e01b031981168114620008e857600080fd5b9392505050565b600060033d1115620009095760046000803e5060005160e01c5b90565b601f8201601f191681016001600160401b038111828210171562000934576200093462000682565b6040525050565b600060443d10156200094a5790565b6040516003193d81016004833e81513d6001600160401b0380831160248401831017156200097a57505050505090565b8285019150815181811115620009935750505050505090565b843d8701016020828501011115620009ae5750505050505090565b620009bf602082860101876200090c565b509095945050505050565b602081526000620008e860208301846200082d565b6148ff80620009ef6000396000f3fe6080604052600436106102ad5760003560e01c806373f4256111610175578063b0ea7dcf116100dc578063ed2239e911610095578063f301af421161006f578063f301af421461083f578063f5298aca1461085f578063f634f8dd1461087f578063ff897bdd1461089457600080fd5b8063ed2239e9146107d2578063f0293fd3146107f2578063f242432a1461081f57600080fd5b8063b0ea7dcf14610713578063c040e6b814610726578063c51964261461073c578063dc9a153514610752578063e985e9c514610773578063ebf0c717146107bc57600080fd5b806395f081821161012e57806395f081821461066357806398cd044714610693578063a22cb465146106b3578063a26759cb14610335578063a7521a89146106d3578063ad4834dc146106f357600080fd5b806373f425611461059857806381a02ae7146105ae57806384590b5c146105c357806385b87fc0146105f05780639335dcb714610610578063947a36fb1461064d57600080fd5b80633ccfd60b116102195780636187b33e116101d25780636187b33e146104df57806366666aa9146104ff5780636b20c454146105155780636bd08049146105355780636e04ff0d1461055557806371f719941461058357600080fd5b80633ccfd60b1461042d5780634585e33b146104425780634800cbc8146104625780634e1273f4146104825780634f02c420146104af57806354214f69146104c557600080fd5b806314c3eeee1161026b57806314c3eeee1461038f578063237b7733146103af5780632b71f5e0146103cf5780632db11544146103e45780632eb2c2d6146103f757806332fe5acf1461041757600080fd5b8062fdd58e146102b257806301ffc9a7146102e557806303ddcab814610315578063045b7dca146103375780630aa3c7541461034d5780630e89341c14610362575b600080fd5b3480156102be57600080fd5b506102d26102cd366004613a57565b6108b4565b6040519081526020015b60405180910390f35b3480156102f157600080fd5b50610305610300366004613a97565b61094d565b60405190151581526020016102dc565b34801561032157600080fd5b50610335610330366004613ab4565b61099d565b005b34801561034357600080fd5b506102d2600b5481565b34801561035957600080fd5b50610335610d15565b34801561036e57600080fd5b5061038261037d366004613ab4565b610e03565b6040516102dc9190613b1d565b34801561039b57600080fd5b506103356103aa366004613c06565b610e9e565b3480156103bb57600080fd5b506102d26103ca366004613ab4565b611102565b3480156103db57600080fd5b50610335611119565b6103356103f2366004613ab4565b611190565b34801561040357600080fd5b50610335610412366004613cbf565b611436565b34801561042357600080fd5b506102d260155481565b34801561043957600080fd5b50610335611482565b34801561044e57600080fd5b5061033561045d366004613d68565b6115ff565b34801561046e57600080fd5b5061033561047d366004613ab4565b6118b1565b34801561048e57600080fd5b506104a261049d366004613e46565b6118e2565b6040516102dc9190613eda565b3480156104bb57600080fd5b506102d2600c5481565b3480156104d157600080fd5b506004546103059060ff1681565b3480156104eb57600080fd5b506102d26104fa366004613ab4565b611a0b565b34801561050b57600080fd5b506102d260115481565b34801561052157600080fd5b50610335610530366004613eed565b611a1b565b34801561054157600080fd5b50610335610550366004613ab4565b611a5e565b34801561056157600080fd5b50610575610570366004613d68565b611af5565b6040516102dc929190613f60565b34801561058f57600080fd5b506102d2601081565b3480156105a457600080fd5b506102d260165481565b3480156105ba57600080fd5b50610335611ce6565b3480156105cf57600080fd5b506102d26105de366004613ab4565b601e6020526000908152604090205481565b3480156105fc57600080fd5b5061033561060b366004613f83565b611dbb565b34801561061c57600080fd5b506004546106359061010090046001600160a01b031681565b6040516001600160a01b0390911681526020016102dc565b34801561065957600080fd5b506102d2601d5481565b34801561066f57600080fd5b5061030561067e366004613ab4565b60176020526000908152604090205460ff1681565b34801561069f57600080fd5b506102d26106ae366004613ab4565b611e65565b3480156106bf57600080fd5b506103356106ce366004614002565b611e75565b3480156106df57600080fd5b506103826106ee366004613ab4565b611e80565b3480156106ff57600080fd5b5061063561070e366004613ab4565b611e95565b61033561072136600461403e565b611eb5565b34801561073257600080fd5b506102d260035481565b34801561074857600080fd5b506102d2600d5481565b34801561075e57600080fd5b5060045461030590600160a81b900460ff1681565b34801561077f57600080fd5b5061030561078e3660046140d9565b6001600160a01b03918216600090815260016020908152604080832093909416825291909152205460ff1690565b3480156107c857600080fd5b506102d260055481565b3480156107de57600080fd5b506103356107ed36600461410c565b6121ba565b3480156107fe57600080fd5b506102d261080d3660046141eb565b600a6020526000908152604090205481565b34801561082b57600080fd5b5061033561083a366004614206565b61241c565b34801561084b57600080fd5b506102d261085a366004613ab4565b612461565b34801561086b57600080fd5b5061033561087a36600461426a565b612471565b34801561088b57600080fd5b506103356124b4565b3480156108a057600080fd5b506103356108af366004613f83565b612586565b60006001600160a01b0383166109245760405162461bcd60e51b815260206004820152602a60248201527f455243313135353a2061646472657373207a65726f206973206e6f742061207660448201526930b634b21037bbb732b960b11b60648201526084015b60405180910390fd5b506000818152602081815260408083206001600160a01b03861684529091529020545b92915050565b60006001600160e01b03198216636cdb3d1360e11b148061097e57506001600160e01b031982166303a24d0760e21b145b8061094757506301ffc9a760e01b6001600160e01b0319831614610947565b6003546002146109bf5760405162461bcd60e51b815260040161091b9061429d565b6000600d54116109e15760405162461bcd60e51b815260040161091b906142d4565b600e6001600d546109f29190614321565b60038110610a0257610a02614334565b015415610a215760405162461bcd60e51b815260040161091b9061434a565b600c54811115610a695760405162461bcd60e51b8152602060048201526013602482015272151bdad95b88191bd95cdb89dd08195e1a5cdd606a1b604482015260640161091b565b6000610a7533836108b4565b11610ac25760405162461bcd60e51b815260206004820152601860248201527f596f7520646f6e2774206f776e207468697320746f6b656e0000000000000000604482015260640161091b565b60008181526017602052604090205460ff161515600114610b3c5760405162461bcd60e51b815260206004820152602e60248201527f54686973206c6f747465727920737461676520666f7220646966666572656e7460448201526d2072617269747920746f6b656e7360901b606482015260840161091b565b6018548103610c5d57610b513382600161263a565b60168054906000610b618361437a565b9190505550610ba6600460019054906101000a90046001600160a01b03163360106001604051806040016040528060048152602001630307830360e41b815250612743565b80600e6001600d54610bb89190614321565b60038110610bc857610bc8614334565b0155600d5433906108fc90601290610be290600190614321565b60038110610bf257610bf2614334565b01546040518115909202916000818181858888f19350505050158015610c1c573d6000803e3d6000fd5b50600d5460408051918252602082018390527fe63f62aa52d6270c5ac3086b02dd8ad47850f9fda51b8d82fb2985d71e038d1b91015b60405180910390a150565b610c693382600161263a565b60168054906000610c798361437a565b9190505550610cbe600460019054906101000a90046001600160a01b03163360106001604051806040016040528060048152602001630307830360e41b815250612743565b60155460126001600d54610cd29190614321565b60038110610ce257610ce2614334565b0154610cee9190614393565b60126001600d54610cff9190614321565b60038110610d0f57610d0f614334565b01555b50565b6003600c541015610d785760405162461bcd60e51b815260206004820152602760248201527f4e656564206174206c65617374203320746f6b656e7320666f72207261726974604482015266792072616e6b7360c81b606482015260840161091b565b60045460ff1615610dcb5760405162461bcd60e51b815260206004820152601760248201527f546f6b656e7320616c72656164792072657665616c6564000000000000000000604482015260640161091b565b6004805460ff191660011790556040516000805160206148aa83398151915290610df9906003815260200190565b60405180910390a1565b60045460609060ff1615610e4057610e1a8261286d565b604051602001610e2a91906143a6565b6040516020818303038152906040529050919050565b604051602001610e2a907f697066733a2f2f516d5571446e7a484c6971586250527a58454d414b46764a6381527f75505255323863445262716252674c4c5644504b532f302e6a736f6e000000006020820152603c0190565b919050565b600d548203610ee75760405162461bcd60e51b8152602060048201526015602482015274149bdd5b9908185b1c9958591e481cdd185c9d1959605a1b604482015260640161091b565b600e610ef4600184614321565b60038110610f0457610f04614334565b015415610f475760405162461bcd60e51b81526020600482015260116024820152702937bab7321030b63932b0b23c903bb7b760791b604482015260640161091b565b600354600214610f8e5760405162461bcd60e51b81526020600482015260126024820152714e6f206f6e676f696e67206c6f747465727960701b604482015260640161091b565b600d8290558051600090610fe860045460405161010090910460601b6bffffffffffffffffffffffff191660208201524260348201526000906054016040516020818303038152906040528051906020012060001c905090565b610ff2919061442f565b905081818151811061100657611006614334565b602090810291909101015160185560015b600c5481116110645760008181526017602052604090205460ff161515600103611052576000818152601760205260409020805460ff191690555b8061105c8161437a565b915050611017565b5060005b82518110156110c95760016017600085848151811061108957611089614334565b6020026020010151815260200190815260200160002060006101000a81548160ff02191690831515021790555080806110c19061437a565b915050611068565b506040518381527f4acc99f74a6541b02cf97191a57b833a1040567ea9774e1c106faa1466c500809060200160405180910390a1505050565b6008816002811061111257600080fd5b0154905081565b60016003541061116b5760405162461bcd60e51b815260206004820152601860248201527f574c206d696e7420616c7265616479206c61756e636865640000000000000000604482015260640161091b565b600160038190556040519081526000805160206148aa83398151915290602001610df9565b6000600354116111b25760405162461bcd60e51b815260040161091b90614443565b6002600354106111d45760405162461bcd60e51b815260040161091b90614473565b600454600160a81b900460ff1615156001146112325760405162461bcd60e51b815260206004820152601d60248201527f5075626c6963204d696e742069736e277420656e61626c656420796574000000604482015260640161091b565b600b5481600c546112439190614393565b11156112615760405162461bcd60e51b815260040161091b906144a3565b600954336000908152600a602052604090205461127f908390614393565b11156112cd5760405162461bcd60e51b815260206004820152601d60248201527f45786365656473206d617820746f6b656e73207065722077616c6c6574000000604482015260640161091b565b6007546112da90826144d1565b34146113165760405162461bcd60e51b815260206004820152600b60248201526a57726f6e6720707269636560a81b604482015260640161091b565b60005b818110156114325760075460118054600090611336908490614393565b9091555050336000908152600a602052604081208054916113568361437a565b9091555050600c805490600061136b8361437a565b91905055506000600c5490506113a033826001604051806040016040528060048152602001630307830360e41b8152506128ff565b6040518181527f176b02bb2d12439ff7a20b59f402cca16c76f50508b13ef3166a600eb719354a9060200160405180910390a1600954336000908152600a60205260409020540361141f576040513381527f2f790a6b5ef966385b6319409177a4905b3b4a53cfe5a807ef3b07a0a138bef89060200160405180910390a15b508061142a8161437a565b915050611319565b5050565b6001600160a01b0385163314806114525750611452853361078e565b61146e5760405162461bcd60e51b815260040161091b906144e8565b61147b8585858585612a0a565b5050505050565b600e546000036114e25760405162461bcd60e51b815260206004820152602560248201527f526f756e642031207265776172647320686176656e2774206265656e2073656e6044820152641d081e595d60da1b606482015260840161091b565b600f546000036115425760405162461bcd60e51b815260206004820152602560248201527f526f756e642032207265776172647320686176656e2774206265656e2073656e6044820152641d081e595d60da1b606482015260840161091b565b6010546000036115a25760405162461bcd60e51b815260206004820152602560248201527f526f756e642033207265776172647320686176656e2774206265656e2073656e6044820152641d081e595d60da1b606482015260840161091b565b60405133904780156108fc02916000818181858888f193505050501580156115ce573d6000803e3d6000fd5b506040514781527f4e70a604b23a8edee2b1d0a656e9b9c00b73ad8bb1afc2c59381ee9f69197de790602001610df9565b600061160d82840184613ab4565b905080600003611750576000600354116116395760405162461bcd60e51b815260040161091b90614443565b60045460ff161561165c5760405162461bcd60e51b815260040161091b90614473565b60026003541061167e5760405162461bcd60e51b815260040161091b90614473565b600b54600c54106116bc5760405162461bcd60e51b815260206004820152600860248201526714dbdb19081bdd5d60c21b604482015260640161091b565b600454600160a81b900460ff1615156001146117105760405162461bcd60e51b8152602060048201526013602482015272139bc8185d5d1bc81b5a5b9d1cc81bdb8815d3606a1b604482015260640161091b565b601d546000828152601e602052604090205461172c9042614321565b111561174b576000818152601e6020526040902042905561174b612ba6565b505050565b806001036118795760035460021461177a5760405162461bcd60e51b815260040161091b9061429d565b60105415806117895750600f54155b806117945750600e54155b6117dc5760405162461bcd60e51b8152602060048201526019602482015278131bdd1d195c9e481a185cc8185b1c9958591e48195b991959603a1b604482015260640161091b565b6000600d54116117fe5760405162461bcd60e51b815260040161091b906142d4565b600e6001600d5461180f9190614321565b6003811061181f5761181f614334565b01541561183e5760405162461bcd60e51b815260040161091b9061434a565b601d546000828152601e602052604090205461185a9042614321565b111561174b576000818152601e6020526040902042905561174b612e10565b60405162461bcd60e51b815260206004820152600d60248201526c3bb937b733903a3934b3b3b2b960991b604482015260640161091b565b60058190556040517fb45a2d75a069a081a15d17cf84e5f3d3f2ce4459d58662b63347594fbba5488490600090a150565b606081518351146119475760405162461bcd60e51b815260206004820152602960248201527f455243313135353a206163636f756e747320616e6420696473206c656e677468604482015268040dad2e6dac2e8c6d60bb1b606482015260840161091b565b600083516001600160401b0381111561196257611962613b30565b60405190808252806020026020018201604052801561198b578160200160208202803683370190505b50905060005b8451811015611a03576119d68582815181106119af576119af614334565b60200260200101518583815181106119c9576119c9614334565b60200260200101516108b4565b8282815181106119e8576119e8614334565b60209081029190910101526119fc8161437a565b9050611991565b509392505050565b6006816002811061111257600080fd5b6001600160a01b038316331480611a375750611a37833361078e565b611a535760405162461bcd60e51b815260040161091b906144e8565b61174b8383836131a8565b600f811115611ac05760405162461bcd60e51b815260206004820152602860248201527f457863656564732074686520616d6f756e74206f662067656e65726174656420604482015267706963747572657360c01b606482015260840161091b565b600b8190556040518181527fea4bfee7f9fb38136c61cc04b6e56efc93eaf1beef326dbc47495b358385914c90602001610c52565b6000606081611b0684860186613ab4565b905080600003611bf057600060035411611b325760405162461bcd60e51b815260040161091b90614443565b600260035410611b545760405162461bcd60e51b815260040161091b90614473565b600b54600c5410611b925760405162461bcd60e51b815260206004820152600860248201526714dbdb19081bdd5d60c21b604482015260640161091b565b601d546000828152601e6020526040902054611bae9042614321565b11925084848080601f016020809104026020016040519081016040528093929190818152602001838380828437600092019190915250929450611cde92505050565b8060010361187957600354600214611c1a5760405162461bcd60e51b815260040161091b9061429d565b6010541580611c295750600f54155b80611c345750600e54155b611c7c5760405162461bcd60e51b8152602060048201526019602482015278131bdd1d195c9e481a185cc8185b1c9958591e48195b991959603a1b604482015260640161091b565b6000600d5411611c9e5760405162461bcd60e51b815260040161091b906142d4565b600e6001600d54611caf9190614321565b60038110611cbf57611cbf614334565b015415611b925760405162461bcd60e51b815260040161091b9061434a565b509250929050565b60045460ff161515600114611d3d5760405162461bcd60e51b815260206004820181905260248201527f546f6b656e7320686176656e2774206265656e2072657665616c656420796574604482015260640161091b565b600260035410611d8f5760405162461bcd60e51b815260206004820152601860248201527f4c6f747465727920616c7265616479206c61756e636865640000000000000000604482015260640161091b565b611d97613333565b6002600355604051600481526000805160206148aa83398151915290602001610df9565b602081015181511115611e285760405162461bcd60e51b815260206004820152602f60248201527f574c20746f6b656e206c696d69742063616e277420626520686967686572207460448201526e1a185b881d1bdd185b081b1a5b5a5d608a1b606482015260840161091b565b611e35600882600261394f565b507f927023fd2c63ed386c84648d47b3a0c55ab81d380b25ba57912c54868f34a35781604051610c529190614536565b600e816003811061111257600080fd5b611432338383613496565b606081604051602001610e2a91815260200190565b60198160048110611ea557600080fd5b01546001600160a01b0316905081565b600060035411611ed75760405162461bcd60e51b815260040161091b90614443565b600260035410611ef95760405162461bcd60e51b815260040161091b90614473565b600454600160a81b900460ff1615611f535760405162461bcd60e51b815260206004820181905260248201527f57686974654c697374204d696e742068617320616c726561647920656e646564604482015260640161091b565b6040516bffffffffffffffffffffffff193360601b166020820152611f9290829060340160405160208183030381529060405280519060200120613576565b611fde5760405162461bcd60e51b815260206004820152601a60248201527f596f75277265206e6f7420616c6c6f77656420746f206d696e74000000000000604482015260640161091b565b600b54600c54611fef906001614393565b111561200d5760405162461bcd60e51b815260040161091b906144a3565b600854336000908152600a602052604090205461202b906001614393565b11156120795760405162461bcd60e51b815260206004820152601d60248201527f45786365656473206d617820746f6b656e73207065722077616c6c6574000000604482015260640161091b565b60065434146120b85760405162461bcd60e51b815260206004820152600b60248201526a57726f6e6720707269636560a81b604482015260640161091b565b600754601180546000906120cd908490614393565b9091555050336000908152600a602052604081208054916120ed8361437a565b9091555050600c80549060006121028361437a565b91905055506000600c54905061213733826001604051806040016040528060048152602001630307830360e41b8152506128ff565b6040518181527f176b02bb2d12439ff7a20b59f402cca16c76f50508b13ef3166a600eb719354a9060200160405180910390a1600854336000908152600a602052604090205403611432576040513381527f2f790a6b5ef966385b6319409177a4905b3b4a53cfe5a807ef3b07a0a138bef8906020015b60405180910390a15050565b60006003556004805460ff60ff60a81b01191690556040805180820190915267016345785d8a000081526702c68af0bb140000602082015261220090600690600261398d565b506040805180820190915260018152600360208201526122249060089060026139c6565b50600f600b556000600c819055600d81905560408051606081018252828152602081018390529081019190915261225f9060129060036139f9565b506000601581905560408051606081018252828152602081018390529081019190915261229090600e9060036139f9565b50600060168190555b82518110156122f9576000600a60008584815181106122ba576122ba614334565b60200260200101516001600160a01b03166001600160a01b031681526020019081526020016000208190555080806122f19061437a565b915050612299565b5060005b825181101561239557600082828151811061231a5761231a614334565b6020026020010151905060005b81518110156123805761236e85848151811061234557612345614334565b602002602001015183838151811061235f5761235f614334565b6020026020010151600161263a565b806123788161437a565b915050612327565b5050808061238d9061437a565b9150506122fd565b506004546123bc9061010090046001600160a01b031660106123b782826108b4565b61263a565b6123ef600460019054906101000a90046001600160a01b03166010600b54604051806020016040528060008152506128ff565b6040517f6423db340205c829eeb91151b1c5d1dc6d7a2b8708b1621494e89ba90c87081e90600090a15050565b6001600160a01b0385163314806124385750612438853361078e565b6124545760405162461bcd60e51b815260040161091b906144e8565b61147b8585858585612743565b6012816003811061111257600080fd5b6001600160a01b03831633148061248d575061248d833361078e565b6124a95760405162461bcd60e51b815260040161091b906144e8565b61174b83838361263a565b6003546001146124f85760405162461bcd60e51b815260206004820152600f60248201526e139bc81bdb99dbda5b99c81b5a5b9d608a1b604482015260640161091b565b600454600160a81b900460ff16156125525760405162461bcd60e51b815260206004820152601c60248201527f5075626c6963206d696e7420616c7265616479206c61756e6368656400000000604482015260640161091b565b6004805460ff60a81b1916600160a81b1790556040516000805160206148aa83398151915290610df9906002815260200190565b6020810151815111156125ee5760405162461bcd60e51b815260206004820152602a60248201527f574c2070726963652063616e277420626520686967686572207468616e207075604482015269626c696320707269636560b01b606482015260840161091b565b6125fb600682600261394f565b507f01e4d4ee348eef514e8a03bcc5c0a93771f1e76548c5fb363be0fcc1f5620dd281604051610c529190614536565b6001600160a01b03163b151590565b6001600160a01b0383166126605760405162461bcd60e51b815260040161091b90614567565b33600061266c8461358c565b905060006126798461358c565b60408051602080820183526000918290528882528181528282206001600160a01b038b16835290522054909150848110156126c65760405162461bcd60e51b815260040161091b906145aa565b6000868152602081815260408083206001600160a01b038b81168086529184528285208a8703905582518b81529384018a90529092908816917fc3d58168c5ae7397731d063d5bbf3d657854427343f4c083240f7aacaa2d0f62910160405180910390a46040805160208101909152600090525b50505050505050565b6001600160a01b0384166127695760405162461bcd60e51b815260040161091b906145ee565b3360006127758561358c565b905060006127828561358c565b90506000868152602081815260408083206001600160a01b038c168452909152902054858110156127c55760405162461bcd60e51b815260040161091b90614633565b6000878152602081815260408083206001600160a01b038d8116855292528083208985039055908a16825281208054889290612802908490614393565b909155505060408051888152602081018890526001600160a01b03808b16928c821692918816917fc3d58168c5ae7397731d063d5bbf3d657854427343f4c083240f7aacaa2d0f62910160405180910390a4612862848a8a8a8a8a6135d7565b505050505050505050565b6060600061287a83613732565b60010190506000816001600160401b0381111561289957612899613b30565b6040519080825280601f01601f1916602001820160405280156128c3576020820181803683370190505b5090508181016020015b600019016f181899199a1a9b1b9c1cb0b131b232b360811b600a86061a8153600a85049450846128cd57509392505050565b6001600160a01b03841661295f5760405162461bcd60e51b815260206004820152602160248201527f455243313135353a206d696e7420746f20746865207a65726f206164647265736044820152607360f81b606482015260840161091b565b33600061296b8561358c565b905060006129788561358c565b90506000868152602081815260408083206001600160a01b038b168452909152812080548792906129aa908490614393565b909155505060408051878152602081018790526001600160a01b03808a1692600092918716917fc3d58168c5ae7397731d063d5bbf3d657854427343f4c083240f7aacaa2d0f62910160405180910390a461273a836000898989896135d7565b8151835114612a2b5760405162461bcd60e51b815260040161091b9061467d565b6001600160a01b038416612a515760405162461bcd60e51b815260040161091b906145ee565b3360005b8451811015612b38576000858281518110612a7257612a72614334565b602002602001015190506000858381518110612a9057612a90614334565b602090810291909101810151600084815280835260408082206001600160a01b038e168352909352919091205490915081811015612ae05760405162461bcd60e51b815260040161091b90614633565b6000838152602081815260408083206001600160a01b038e8116855292528083208585039055908b16825281208054849290612b1d908490614393565b9250508190555050505080612b319061437a565b9050612a55565b50846001600160a01b0316866001600160a01b0316826001600160a01b03167f4a39dc06d4c0dbc64b70af90fd698a233a518aa5d07e595d983b8c0526c8f7fb8787604051612b889291906146c5565b60405180910390a4612b9e81878787878761380a565b505050505050565b600060035411612bc85760405162461bcd60e51b815260040161091b90614443565b600260035410612bea5760405162461bcd60e51b815260040161091b90614473565b600b54600c54612bfb906001614393565b1115612c195760405162461bcd60e51b815260040161091b906144a3565b6000805b6004811015612c985760198160048110612c3957612c39614334565b01546009546001600160a01b039091166000818152600a60205260409020549093501015612c865760198160048110612c7457612c74614334565b01546001600160a01b03169150612c98565b80612c908161437a565b915050612c1d565b506009546001600160a01b0382166000908152600a602052604090205410612cfb5760405162461bcd60e51b8152602060048201526016602482015275115e18d959591cc81b585e081c195c881dd85b1b195d60521b604482015260640161091b565b60075460118054600090612d10908490614393565b90915550506001600160a01b0381166000908152600a60205260408120805491612d398361437a565b9091555050600c8054906000612d4e8361437a565b91905055506000600c549050612d8382826001604051806040016040528060048152602001630307830360e41b8152506128ff565b6040518181527f176b02bb2d12439ff7a20b59f402cca16c76f50508b13ef3166a600eb719354a9060200160405180910390a16009546001600160a01b0383166000908152600a602052604090205403611432576040516001600160a01b03831681527f2f790a6b5ef966385b6319409177a4905b3b4a53cfe5a807ef3b07a0a138bef8906020016121ae565b600354600214612e325760405162461bcd60e51b815260040161091b9061429d565b6000600d5411612e545760405162461bcd60e51b815260040161091b906142d4565b600e6001600d54612e659190614321565b60038110612e7557612e75614334565b015415612e945760405162461bcd60e51b815260040161091b9061434a565b60008060005b6004811015612f635760198160048110612eb657612eb6614334565b01546001600160a01b031692506000915060015b600c54811015612f48576000612ee085836108b4565b9050600081118015612f05575060008281526017602052604090205460ff1615156001145b15612f355760198360048110612f1d57612f1d614334565b01546001600160a01b03169450909250829050612f48565b5080612f408161437a565b915050612eca565b5060008211612f635780612f5b8161437a565b915050612e9a565b50801580612f80575060008181526017602052604090205460ff16155b15612fcd5760405162461bcd60e51b815260206004820152601a60248201527f4e6f20656c696769626c6520746f6b656e7320746f20706c6179000000000000604482015260640161091b565b60185481036130f057612fe28282600161263a565b60168054906000612ff28361437a565b9190505550613037600460019054906101000a90046001600160a01b03168360106001604051806040016040528060048152602001630307830360e41b815250612743565b80600e6001600d546130499190614321565b6003811061305957613059614334565b0181905550816001600160a01b03166108fc60126001600d5461307c9190614321565b6003811061308c5761308c614334565b01546040518115909202916000818181858888f193505050501580156130b6573d6000803e3d6000fd5b50600d5460408051918252602082018390527fe63f62aa52d6270c5ac3086b02dd8ad47850f9fda51b8d82fb2985d71e038d1b91016121ae565b6130fc8282600161263a565b6016805490600061310c8361437a565b9190505550613151600460019054906101000a90046001600160a01b03168360106001604051806040016040528060048152602001630307830360e41b815250612743565b60155460126001600d546131659190614321565b6003811061317557613175614334565b01546131819190614393565b60126001600d546131929190614321565b600381106131a2576131a2614334565b01555050565b6001600160a01b0383166131ce5760405162461bcd60e51b815260040161091b90614567565b80518251146131ef5760405162461bcd60e51b815260040161091b9061467d565b604080516020810190915260009081905233905b83518110156132c557600084828151811061322057613220614334565b60200260200101519050600084838151811061323e5761323e614334565b602090810291909101810151600084815280835260408082206001600160a01b038c16835290935291909120549091508181101561328e5760405162461bcd60e51b815260040161091b906145aa565b6000928352602083815260408085206001600160a01b038b16865290915290922091039055806132bd8161437a565b915050613203565b5060006001600160a01b0316846001600160a01b0316826001600160a01b03167f4a39dc06d4c0dbc64b70af90fd698a233a518aa5d07e595d983b8c0526c8f7fb86866040516133169291906146c5565b60405180910390a460408051602081019091526000905250505050565b6001600d54106133a45760405162461bcd60e51b815260206004820152603660248201527f4c6f747465727920616c726561647920737461727465642c206e6f7420616c6c6044820152756f77656420746f206368616e6765207265776172647360501b606482015260840161091b565b6000600c54116134135760405162461bcd60e51b815260206004820152603460248201527f4e6f20696e636f6d652066726f6d206d696e742c20696d706f737369626c6520604482015273746f2063616c63756c617465207265776172647360601b606482015260840161091b565b606460115461342291906146f3565b61342d9060146144d1565b60125560115461343f906064906146f3565b61344a9060196144d1565b60135560115461345c906064906146f3565b61346790601e6144d1565b601455600c5460115461347c906064906146f3565b61348790600a6144d1565b61349191906146f3565b601555565b816001600160a01b0316836001600160a01b0316036135095760405162461bcd60e51b815260206004820152602960248201527f455243313135353a2073657474696e6720617070726f76616c20737461747573604482015268103337b91039b2b63360b91b606482015260840161091b565b6001600160a01b03838116600081815260016020908152604080832094871680845294825291829020805460ff191686151590811790915591519182527f17307eab39ab6107e8899845ad3d59bd9653f200f220920489ca2b5937696c31910160405180910390a3505050565b600061358583600554846138c5565b9392505050565b604080516001808252818301909252606091600091906020808301908036833701905050905082816000815181106135c6576135c6614334565b602090810291909101015292915050565b6001600160a01b0384163b15612b9e5760405163f23a6e6160e01b81526001600160a01b0385169063f23a6e619061361b9089908990889088908890600401614707565b6020604051808303816000875af1925050508015613656575060408051601f3d908101601f1916820190925261365391810190614741565b60015b6137025761366261475e565b806308c379a00361369b575061367661477a565b80613681575061369d565b8060405162461bcd60e51b815260040161091b9190613b1d565b505b60405162461bcd60e51b815260206004820152603460248201527f455243313135353a207472616e7366657220746f206e6f6e2d455243313135356044820152732932b1b2b4bb32b91034b6b83632b6b2b73a32b960611b606482015260840161091b565b6001600160e01b0319811663f23a6e6160e01b1461273a5760405162461bcd60e51b815260040161091b90614803565b60008072184f03e93ff9f4daa797ed6e38ed64bf6a1f0160401b83106137715772184f03e93ff9f4daa797ed6e38ed64bf6a1f0160401b830492506040015b6d04ee2d6d415b85acef8100000000831061379d576d04ee2d6d415b85acef8100000000830492506020015b662386f26fc1000083106137bb57662386f26fc10000830492506010015b6305f5e10083106137d3576305f5e100830492506008015b61271083106137e757612710830492506004015b606483106137f9576064830492506002015b600a83106109475760010192915050565b6001600160a01b0384163b15612b9e5760405163bc197c8160e01b81526001600160a01b0385169063bc197c819061384e908990899088908890889060040161484b565b6020604051808303816000875af1925050508015613889575060408051601f3d908101601f1916820190925261388691810190614741565b60015b6138955761366261475e565b6001600160e01b0319811663bc197c8160e01b1461273a5760405162461bcd60e51b815260040161091b90614803565b6000826138d285846138db565b14949350505050565b600081815b8451811015611a035761390c828683815181106138ff576138ff614334565b6020026020010151613920565b9150806139188161437a565b9150506138e0565b600081831061393c576000828152602084905260409020613585565b6000838152602083905260409020613585565b826002810192821561397d579160200282015b8281111561397d578251825591602001919060010190613962565b50613989929150613a2b565b5090565b826002810192821561397d579160200282015b8281111561397d57825182906001600160401b03169055916020019190600101906139a0565b826002810192821561397d579160200282015b8281111561397d578251829060ff169055916020019190600101906139d9565b826003810192821561397d579160200282018281111561397d578251829060ff169055916020019190600101906139d9565b5b808211156139895760008155600101613a2c565b80356001600160a01b0381168114610e9957600080fd5b60008060408385031215613a6a57600080fd5b613a7383613a40565b946020939093013593505050565b6001600160e01b031981168114610d1257600080fd5b600060208284031215613aa957600080fd5b813561358581613a81565b600060208284031215613ac657600080fd5b5035919050565b60005b83811015613ae8578181015183820152602001613ad0565b50506000910152565b60008151808452613b09816020860160208601613acd565b601f01601f19169290920160200192915050565b6020815260006135856020830184613af1565b634e487b7160e01b600052604160045260246000fd5b601f8201601f191681016001600160401b0381118282101715613b6b57613b6b613b30565b6040525050565b60006001600160401b03821115613b8b57613b8b613b30565b5060051b60200190565b600082601f830112613ba657600080fd5b81356020613bb382613b72565b604051613bc08282613b46565b83815260059390931b8501820192828101915086841115613be057600080fd5b8286015b84811015613bfb5780358352918301918301613be4565b509695505050505050565b60008060408385031215613c1957600080fd5b8235915060208301356001600160401b03811115613c3657600080fd5b613c4285828601613b95565b9150509250929050565b600082601f830112613c5d57600080fd5b81356001600160401b03811115613c7657613c76613b30565b604051613c8d601f8301601f191660200182613b46565b818152846020838601011115613ca257600080fd5b816020850160208301376000918101602001919091529392505050565b600080600080600060a08688031215613cd757600080fd5b613ce086613a40565b9450613cee60208701613a40565b935060408601356001600160401b0380821115613d0a57600080fd5b613d1689838a01613b95565b94506060880135915080821115613d2c57600080fd5b613d3889838a01613b95565b93506080880135915080821115613d4e57600080fd5b50613d5b88828901613c4c565b9150509295509295909350565b60008060208385031215613d7b57600080fd5b82356001600160401b0380821115613d9257600080fd5b818501915085601f830112613da657600080fd5b813581811115613db557600080fd5b866020828501011115613dc757600080fd5b60209290920196919550909350505050565b600082601f830112613dea57600080fd5b81356020613df782613b72565b604051613e048282613b46565b83815260059390931b8501820192828101915086841115613e2457600080fd5b8286015b84811015613bfb57613e3981613a40565b8352918301918301613e28565b60008060408385031215613e5957600080fd5b82356001600160401b0380821115613e7057600080fd5b613e7c86838701613dd9565b93506020850135915080821115613e9257600080fd5b50613c4285828601613b95565b600081518084526020808501945080840160005b83811015613ecf57815187529582019590820190600101613eb3565b509495945050505050565b6020815260006135856020830184613e9f565b600080600060608486031215613f0257600080fd5b613f0b84613a40565b925060208401356001600160401b0380821115613f2757600080fd5b613f3387838801613b95565b93506040860135915080821115613f4957600080fd5b50613f5686828701613b95565b9150509250925092565b8215158152604060208201526000613f7b6040830184613af1565b949350505050565b600060408284031215613f9557600080fd5b82601f830112613fa457600080fd5b604051604081018181106001600160401b0382111715613fc657613fc6613b30565b8060405250806040840185811115613fdd57600080fd5b845b81811015613ff7578035835260209283019201613fdf565b509195945050505050565b6000806040838503121561401557600080fd5b61401e83613a40565b91506020830135801515811461403357600080fd5b809150509250929050565b6000602080838503121561405157600080fd5b82356001600160401b0381111561406757600080fd5b8301601f8101851361407857600080fd5b803561408381613b72565b6040516140908282613b46565b82815260059290921b83018401918481019150878311156140b057600080fd5b928401925b828410156140ce578335825292840192908401906140b5565b979650505050505050565b600080604083850312156140ec57600080fd5b6140f583613a40565b915061410360208401613a40565b90509250929050565b6000806040838503121561411f57600080fd5b82356001600160401b038082111561413657600080fd5b61414286838701613dd9565b935060209150818501358181111561415957600080fd5b8501601f8101871361416a57600080fd5b803561417581613b72565b6040516141828282613b46565b82815260059290921b83018501918581019150898311156141a257600080fd5b8584015b838110156141da578035868111156141be5760008081fd5b6141cc8c8983890101613b95565b8452509186019186016141a6565b508096505050505050509250929050565b6000602082840312156141fd57600080fd5b61358582613a40565b600080600080600060a0868803121561421e57600080fd5b61422786613a40565b945061423560208701613a40565b9350604086013592506060860135915060808601356001600160401b0381111561425e57600080fd5b613d5b88828901613c4c565b60008060006060848603121561427f57600080fd5b61428884613a40565b95602085013595506040909401359392505050565b6020808252601a908201527f4c6f7474657279206861736e2774207374617274656420796574000000000000604082015260600190565b6020808252601e908201527f466972737420526f756e64206861736e27742073746172746564207965740000604082015260600190565b634e487b7160e01b600052601160045260246000fd5b818103818111156109475761094761430b565b634e487b7160e01b600052603260045260246000fd5b6020808252601690820152752a3434b9903937bab7321030b63932b0b23c903bb7b760511b604082015260600190565b60006001820161438c5761438c61430b565b5060010190565b808201808211156109475761094761430b565b7f697066733a2f2f516d5571446e7a484c6971586250527a58454d414b46764a6381527575505255323863445262716252674c4c5644504b532f60501b6020820152600082516143fd816036850160208701613acd565b64173539b7b760d91b6036939091019283015250603b01919050565b634e487b7160e01b600052601260045260246000fd5b60008261443e5761443e614419565b500690565b602080825260169082015275135a5b9d081a5cdb89dd08195b98589b1959081e595d60521b604082015260600190565b602080825260169082015275135a5b9d081a185cc8185b1c9958591e48195b99195960521b604082015260600190565b6020808252601490820152734578636565647320746f74616c20737570706c7960601b604082015260600190565b80820281158282048414176109475761094761430b565b6020808252602e908201527f455243313135353a2063616c6c6572206973206e6f7420746f6b656e206f776e60408201526d195c881bdc88185c1c1c9bdd995960921b606082015260800190565b60408101818360005b600281101561455e57815183526020928301929091019060010161453f565b50505092915050565b60208082526023908201527f455243313135353a206275726e2066726f6d20746865207a65726f206164647260408201526265737360e81b606082015260800190565b60208082526024908201527f455243313135353a206275726e20616d6f756e7420657863656564732062616c604082015263616e636560e01b606082015260800190565b60208082526025908201527f455243313135353a207472616e7366657220746f20746865207a65726f206164604082015264647265737360d81b606082015260800190565b6020808252602a908201527f455243313135353a20696e73756666696369656e742062616c616e636520666f60408201526939103a3930b739b332b960b11b606082015260800190565b60208082526028908201527f455243313135353a2069647320616e6420616d6f756e7473206c656e677468206040820152670dad2e6dac2e8c6d60c31b606082015260800190565b6040815260006146d86040830185613e9f565b82810360208401526146ea8185613e9f565b95945050505050565b60008261470257614702614419565b500490565b6001600160a01b03868116825285166020820152604081018490526060810183905260a0608082018190526000906140ce90830184613af1565b60006020828403121561475357600080fd5b815161358581613a81565b600060033d11156147775760046000803e5060005160e01c5b90565b600060443d10156147885790565b6040516003193d81016004833e81513d6001600160401b0381602484011181841117156147b757505050505090565b82850191508151818111156147cf5750505050505090565b843d87010160208285010111156147e95750505050505090565b6147f860208286010187613b46565b509095945050505050565b60208082526028908201527f455243313135353a204552433131353552656365697665722072656a656374656040820152676420746f6b656e7360c01b606082015260800190565b6001600160a01b0386811682528516602082015260a06040820181905260009061487790830186613e9f565b82810360608401526148898186613e9f565b9050828103608084015261489d8185613af1565b9897505050505050505056feec73378903cf937f81aa3171f8bc786d9a8db072a819dd1dbd5692402dca3f95a264697066735822122026b089d4c0a49dd0511f0c5b7bde59d0b371527bbba5d9162ea95f1ab8260b5064736f6c63430008110033697066733a2f2f516d584766353469445a54445753464a5331473352464e6e52663438644a32754d48424e76444e72585532376f542f7b69647d2e6a736f6e",
			"opcodes": "PUSH1 0xE0 PUSH1 0x40 MSTORE PUSH1 0x3F PUSH1 0x80 DUP2 DUP2 MSTORE SWAP1 PUSH3 0x52EE PUSH1 0xA0 CODECOPY PUSH3 0x1E DUP2 PUSH3 0x202 JUMP JUMPDEST POP PUSH1 0x40 DUP1 MLOAD PUSH1 0x80 DUP2 ADD DUP3 MSTORE PUSH20 0x70997970C51812DC3A010C7D01B50E0D17DC79C8 DUP2 MSTORE PUSH20 0x3C44CDDDB6A900FA2B585DD299E03D12FA4293BC PUSH1 0x20 DUP3 ADD MSTORE PUSH20 0x90F79BF6EB2C4F870365E785982E1F101E93B906 SWAP2 DUP2 ADD SWAP2 SWAP1 SWAP2 MSTORE PUSH20 0x15D34AAF54267DB7D7C367839AAF71A00A2C6A65 PUSH1 0x60 DUP3 ADD MSTORE PUSH3 0xA0 SWAP1 PUSH1 0x19 SWAP1 PUSH1 0x4 PUSH3 0x567 JUMP JUMPDEST POP PUSH1 0x1 PUSH1 0x1D SSTORE PUSH1 0x0 PUSH1 0x3 SSTORE PUSH1 0x40 DUP1 MLOAD DUP1 DUP3 ADD SWAP1 SWAP2 MSTORE PUSH8 0x16345785D8A0000 DUP2 MSTORE PUSH8 0x2C68AF0BB140000 PUSH1 0x20 DUP3 ADD MSTORE PUSH3 0xDE SWAP1 PUSH1 0x6 SWAP1 PUSH1 0x2 PUSH3 0x5C4 JUMP JUMPDEST POP PUSH1 0x40 DUP1 MLOAD DUP1 DUP3 ADD SWAP1 SWAP2 MSTORE PUSH1 0x1 DUP2 MSTORE PUSH1 0x3 PUSH1 0x20 DUP3 ADD MSTORE PUSH3 0x104 SWAP1 PUSH1 0x8 SWAP1 PUSH1 0x2 PUSH3 0x600 JUMP JUMPDEST POP PUSH1 0xF PUSH1 0xB SSTORE PUSH1 0x0 PUSH1 0xC DUP2 SWAP1 SSTORE PUSH1 0xD DUP2 SWAP1 SSTORE PUSH1 0x11 DUP2 SWAP1 SSTORE PUSH1 0x40 DUP1 MLOAD PUSH1 0x60 DUP2 ADD DUP3 MSTORE DUP3 DUP2 MSTORE PUSH1 0x20 DUP2 ADD DUP4 SWAP1 MSTORE SWAP1 DUP2 ADD SWAP2 SWAP1 SWAP2 MSTORE PUSH3 0x146 SWAP1 PUSH1 0x12 SWAP1 PUSH1 0x3 PUSH3 0x636 JUMP JUMPDEST POP PUSH1 0x40 DUP1 MLOAD PUSH1 0x60 DUP2 ADD DUP3 MSTORE PUSH1 0x0 DUP1 DUP3 MSTORE PUSH1 0x20 DUP3 ADD DUP2 SWAP1 MSTORE SWAP2 DUP2 ADD SWAP2 SWAP1 SWAP2 MSTORE PUSH3 0x174 SWAP1 PUSH1 0xE SWAP1 PUSH1 0x3 PUSH3 0x636 JUMP JUMPDEST POP PUSH1 0x0 PUSH1 0x16 DUP2 SWAP1 SSTORE PUSH1 0x4 DUP1 SLOAD PUSH21 0xF39FD6E51AAD88F6F4CE6AB8827279CFFFB9226600 PUSH2 0x100 PUSH1 0x1 PUSH1 0xA8 SHL SUB NOT SWAP1 SWAP2 AND OR SWAP1 DUP2 SWAP1 SSTORE PUSH32 0xAC9EA287E28A6B9A01E90B4B5002798329590DDEDF39DAFB45E1BDD0526B10F3 PUSH1 0x5 SSTORE PUSH1 0xB SLOAD PUSH1 0x40 DUP1 MLOAD PUSH1 0x20 DUP2 ADD SWAP1 SWAP2 MSTORE SWAP3 DUP4 MSTORE PUSH3 0x1FC SWAP3 PUSH2 0x100 SWAP1 SWAP3 DIV PUSH1 0x1 PUSH1 0x1 PUSH1 0xA0 SHL SUB AND SWAP2 PUSH1 0x10 SWAP2 SWAP1 PUSH3 0x214 JUMP JUMPDEST PUSH3 0x9DF JUMP JUMPDEST PUSH1 0x2 PUSH3 0x210 DUP3 DUP3 PUSH3 0x723 JUMP JUMPDEST POP POP JUMP JUMPDEST PUSH1 0x1 PUSH1 0x1 PUSH1 0xA0 SHL SUB DUP5 AND PUSH3 0x27A JUMPI PUSH1 0x40 MLOAD PUSH3 0x461BCD PUSH1 0xE5 SHL DUP2 MSTORE PUSH1 0x20 PUSH1 0x4 DUP3 ADD MSTORE PUSH1 0x21 PUSH1 0x24 DUP3 ADD MSTORE PUSH32 0x455243313135353A206D696E7420746F20746865207A65726F20616464726573 PUSH1 0x44 DUP3 ADD MSTORE PUSH1 0x73 PUSH1 0xF8 SHL PUSH1 0x64 DUP3 ADD MSTORE PUSH1 0x84 ADD JUMPDEST PUSH1 0x40 MLOAD DUP1 SWAP2 SUB SWAP1 REVERT JUMPDEST CALLER PUSH1 0x0 PUSH3 0x288 DUP6 PUSH3 0x336 JUMP JUMPDEST SWAP1 POP PUSH1 0x0 PUSH3 0x297 DUP6 PUSH3 0x336 JUMP JUMPDEST SWAP1 POP PUSH1 0x0 DUP7 DUP2 MSTORE PUSH1 0x20 DUP2 DUP2 MSTORE PUSH1 0x40 DUP1 DUP4 KECCAK256 PUSH1 0x1 PUSH1 0x1 PUSH1 0xA0 SHL SUB DUP12 AND DUP5 MSTORE SWAP1 SWAP2 MSTORE DUP2 KECCAK256 DUP1 SLOAD DUP8 SWAP3 SWAP1 PUSH3 0x2CB SWAP1 DUP5 SWAP1 PUSH3 0x7EF JUMP JUMPDEST SWAP1 SWAP2 SSTORE POP POP PUSH1 0x40 DUP1 MLOAD DUP8 DUP2 MSTORE PUSH1 0x20 DUP2 ADD DUP8 SWAP1 MSTORE PUSH1 0x1 PUSH1 0x1 PUSH1 0xA0 SHL SUB DUP1 DUP11 AND SWAP3 PUSH1 0x0 SWAP3 SWAP2 DUP8 AND SWAP2 PUSH32 0xC3D58168C5AE7397731D063D5BBF3D657854427343F4C083240F7AACAA2D0F62 SWAP2 ADD PUSH1 0x40 MLOAD DUP1 SWAP2 SUB SWAP1 LOG4 PUSH3 0x32D DUP4 PUSH1 0x0 DUP10 DUP10 DUP10 DUP10 PUSH3 0x38C JUMP JUMPDEST POP POP POP POP POP POP POP JUMP JUMPDEST PUSH1 0x40 DUP1 MLOAD PUSH1 0x1 DUP1 DUP3 MSTORE DUP2 DUP4 ADD SWAP1 SWAP3 MSTORE PUSH1 0x60 SWAP2 PUSH1 0x0 SWAP2 SWAP1 PUSH1 0x20 DUP1 DUP4 ADD SWAP1 DUP1 CALLDATASIZE DUP4 CALLDATACOPY ADD SWAP1 POP POP SWAP1 POP DUP3 DUP2 PUSH1 0x0 DUP2 MLOAD DUP2 LT PUSH3 0x373 JUMPI PUSH3 0x373 PUSH3 0x817 JUMP JUMPDEST PUSH1 0x20 SWAP1 DUP2 MUL SWAP2 SWAP1 SWAP2 ADD ADD MSTORE SWAP3 SWAP2 POP POP JUMP JUMPDEST POP POP POP POP POP POP JUMP JUMPDEST PUSH3 0x3AB DUP5 PUSH1 0x1 PUSH1 0x1 PUSH1 0xA0 SHL SUB AND PUSH3 0x558 PUSH1 0x20 SHL PUSH3 0x262B OR PUSH1 0x20 SHR JUMP JUMPDEST ISZERO PUSH3 0x384 JUMPI PUSH1 0x40 MLOAD PUSH4 0xF23A6E61 PUSH1 0xE0 SHL DUP2 MSTORE PUSH1 0x1 PUSH1 0x1 PUSH1 0xA0 SHL SUB DUP6 AND SWAP1 PUSH4 0xF23A6E61 SWAP1 PUSH3 0x3E7 SWAP1 DUP10 SWAP1 DUP10 SWAP1 DUP9 SWAP1 DUP9 SWAP1 DUP9 SWAP1 PUSH1 0x4 ADD PUSH3 0x875 JUMP JUMPDEST PUSH1 0x20 PUSH1 0x40 MLOAD DUP1 DUP4 SUB DUP2 PUSH1 0x0 DUP8 GAS CALL SWAP3 POP POP POP DUP1 ISZERO PUSH3 0x425 JUMPI POP PUSH1 0x40 DUP1 MLOAD PUSH1 0x1F RETURNDATASIZE SWAP1 DUP2 ADD PUSH1 0x1F NOT AND DUP3 ADD SWAP1 SWAP3 MSTORE PUSH3 0x422 SWAP2 DUP2 ADD SWAP1 PUSH3 0x8BC JUMP JUMPDEST PUSH1 0x1 JUMPDEST PUSH3 0x4E5 JUMPI PUSH3 0x434 PUSH3 0x8EF JUMP JUMPDEST DUP1 PUSH4 0x8C379A0 SUB PUSH3 0x474 JUMPI POP PUSH3 0x44B PUSH3 0x93B JUMP JUMPDEST DUP1 PUSH3 0x458 JUMPI POP PUSH3 0x476 JUMP JUMPDEST DUP1 PUSH1 0x40 MLOAD PUSH3 0x461BCD PUSH1 0xE5 SHL DUP2 MSTORE PUSH1 0x4 ADD PUSH3 0x271 SWAP2 SWAP1 PUSH3 0x9CA JUMP JUMPDEST POP JUMPDEST PUSH1 0x40 MLOAD PUSH3 0x461BCD PUSH1 0xE5 SHL DUP2 MSTORE PUSH1 0x20 PUSH1 0x4 DUP3 ADD MSTORE PUSH1 0x34 PUSH1 0x24 DUP3 ADD MSTORE PUSH32 0x455243313135353A207472616E7366657220746F206E6F6E2D45524331313535 PUSH1 0x44 DUP3 ADD MSTORE PUSH32 0x526563656976657220696D706C656D656E746572000000000000000000000000 PUSH1 0x64 DUP3 ADD MSTORE PUSH1 0x84 ADD PUSH3 0x271 JUMP JUMPDEST PUSH1 0x1 PUSH1 0x1 PUSH1 0xE0 SHL SUB NOT DUP2 AND PUSH4 0xF23A6E61 PUSH1 0xE0 SHL EQ PUSH3 0x32D JUMPI PUSH1 0x40 MLOAD PUSH3 0x461BCD PUSH1 0xE5 SHL DUP2 MSTORE PUSH1 0x20 PUSH1 0x4 DUP3 ADD MSTORE PUSH1 0x28 PUSH1 0x24 DUP3 ADD MSTORE PUSH32 0x455243313135353A204552433131353552656365697665722072656A65637465 PUSH1 0x44 DUP3 ADD MSTORE PUSH8 0x6420746F6B656E73 PUSH1 0xC0 SHL PUSH1 0x64 DUP3 ADD MSTORE PUSH1 0x84 ADD PUSH3 0x271 JUMP JUMPDEST PUSH1 0x1 PUSH1 0x1 PUSH1 0xA0 SHL SUB AND EXTCODESIZE ISZERO ISZERO SWAP1 JUMP JUMPDEST DUP3 PUSH1 0x4 DUP2 ADD SWAP3 DUP3 ISZERO PUSH3 0x5B2 JUMPI SWAP2 PUSH1 0x20 MUL DUP3 ADD JUMPDEST DUP3 DUP2 GT ISZERO PUSH3 0x5B2 JUMPI DUP3 MLOAD DUP3 SLOAD PUSH1 0x1 PUSH1 0x1 PUSH1 0xA0 SHL SUB NOT AND PUSH1 0x1 PUSH1 0x1 PUSH1 0xA0 SHL SUB SWAP1 SWAP2 AND OR DUP3 SSTORE PUSH1 0x20 SWAP1 SWAP3 ADD SWAP2 PUSH1 0x1 SWAP1 SWAP2 ADD SWAP1 PUSH3 0x57B JUMP JUMPDEST POP PUSH3 0x5C0 SWAP3 SWAP2 POP PUSH3 0x66B JUMP JUMPDEST POP SWAP1 JUMP JUMPDEST DUP3 PUSH1 0x2 DUP2 ADD SWAP3 DUP3 ISZERO PUSH3 0x5B2 JUMPI SWAP2 PUSH1 0x20 MUL DUP3 ADD JUMPDEST DUP3 DUP2 GT ISZERO PUSH3 0x5B2 JUMPI DUP3 MLOAD DUP3 SWAP1 PUSH1 0x1 PUSH1 0x1 PUSH1 0x40 SHL SUB AND SWAP1 SSTORE SWAP2 PUSH1 0x20 ADD SWAP2 SWAP1 PUSH1 0x1 ADD SWAP1 PUSH3 0x5D8 JUMP JUMPDEST DUP3 PUSH1 0x2 DUP2 ADD SWAP3 DUP3 ISZERO PUSH3 0x5B2 JUMPI SWAP2 PUSH1 0x20 MUL DUP3 ADD JUMPDEST DUP3 DUP2 GT ISZERO PUSH3 0x5B2 JUMPI DUP3 MLOAD DUP3 SWAP1 PUSH1 0xFF AND SWAP1 SSTORE SWAP2 PUSH1 0x20 ADD SWAP2 SWAP1 PUSH1 0x1 ADD SWAP1 PUSH3 0x614 JUMP JUMPDEST DUP3 PUSH1 0x3 DUP2 ADD SWAP3 DUP3 ISZERO PUSH3 0x5B2 JUMPI SWAP2 PUSH1 0x20 MUL DUP3 ADD DUP3 DUP2 GT ISZERO PUSH3 0x5B2 JUMPI DUP3 MLOAD DUP3 SWAP1 PUSH1 0xFF AND SWAP1 SSTORE SWAP2 PUSH1 0x20 ADD SWAP2 SWAP1 PUSH1 0x1 ADD SWAP1 PUSH3 0x614 JUMP JUMPDEST JUMPDEST DUP1 DUP3 GT ISZERO PUSH3 0x5C0 JUMPI PUSH1 0x0 DUP2 SSTORE PUSH1 0x1 ADD PUSH3 0x66C JUMP JUMPDEST PUSH4 0x4E487B71 PUSH1 0xE0 SHL PUSH1 0x0 MSTORE PUSH1 0x41 PUSH1 0x4 MSTORE PUSH1 0x24 PUSH1 0x0 REVERT JUMPDEST PUSH1 0x1 DUP2 DUP2 SHR SWAP1 DUP3 AND DUP1 PUSH3 0x6AD JUMPI PUSH1 0x7F DUP3 AND SWAP2 POP JUMPDEST PUSH1 0x20 DUP3 LT DUP2 SUB PUSH3 0x6CE JUMPI PUSH4 0x4E487B71 PUSH1 0xE0 SHL PUSH1 0x0 MSTORE PUSH1 0x22 PUSH1 0x4 MSTORE PUSH1 0x24 PUSH1 0x0 REVERT JUMPDEST POP SWAP2 SWAP1 POP JUMP JUMPDEST PUSH1 0x1F DUP3 GT ISZERO PUSH3 0x71E JUMPI PUSH1 0x0 DUP2 DUP2 MSTORE PUSH1 0x20 DUP2 KECCAK256 PUSH1 0x1F DUP6 ADD PUSH1 0x5 SHR DUP2 ADD PUSH1 0x20 DUP7 LT ISZERO PUSH3 0x6FD JUMPI POP DUP1 JUMPDEST PUSH1 0x1F DUP6 ADD PUSH1 0x5 SHR DUP3 ADD SWAP2 POP JUMPDEST DUP2 DUP2 LT ISZERO PUSH3 0x384 JUMPI DUP3 DUP2 SSTORE PUSH1 0x1 ADD PUSH3 0x709 JUMP JUMPDEST POP POP POP JUMP JUMPDEST DUP2 MLOAD PUSH1 0x1 PUSH1 0x1 PUSH1 0x40 SHL SUB DUP2 GT ISZERO PUSH3 0x73F JUMPI PUSH3 0x73F PUSH3 0x682 JUMP JUMPDEST PUSH3 0x757 DUP2 PUSH3 0x750 DUP5 SLOAD PUSH3 0x698 JUMP JUMPDEST DUP5 PUSH3 0x6D4 JUMP JUMPDEST PUSH1 0x20 DUP1 PUSH1 0x1F DUP4 GT PUSH1 0x1 DUP2 EQ PUSH3 0x78F JUMPI PUSH1 0x0 DUP5 ISZERO PUSH3 0x776 JUMPI POP DUP6 DUP4 ADD MLOAD JUMPDEST PUSH1 0x0 NOT PUSH1 0x3 DUP7 SWAP1 SHL SHR NOT AND PUSH1 0x1 DUP6 SWAP1 SHL OR DUP6 SSTORE PUSH3 0x384 JUMP JUMPDEST PUSH1 0x0 DUP6 DUP2 MSTORE PUSH1 0x20 DUP2 KECCAK256 PUSH1 0x1F NOT DUP7 AND SWAP2 JUMPDEST DUP3 DUP2 LT ISZERO PUSH3 0x7C0 JUMPI DUP9 DUP7 ADD MLOAD DUP3 SSTORE SWAP5 DUP5 ADD SWAP5 PUSH1 0x1 SWAP1 SWAP2 ADD SWAP1 DUP5 ADD PUSH3 0x79F JUMP JUMPDEST POP DUP6 DUP3 LT ISZERO PUSH3 0x7DF JUMPI DUP8 DUP6 ADD MLOAD PUSH1 0x0 NOT PUSH1 0x3 DUP9 SWAP1 SHL PUSH1 0xF8 AND SHR NOT AND DUP2 SSTORE JUMPDEST POP POP POP POP POP PUSH1 0x1 SWAP1 DUP2 SHL ADD SWAP1 SSTORE POP JUMP JUMPDEST DUP1 DUP3 ADD DUP1 DUP3 GT ISZERO PUSH3 0x811 JUMPI PUSH4 0x4E487B71 PUSH1 0xE0 SHL PUSH1 0x0 MSTORE PUSH1 0x11 PUSH1 0x4 MSTORE PUSH1 0x24 PUSH1 0x0 REVERT JUMPDEST SWAP3 SWAP2 POP POP JUMP JUMPDEST PUSH4 0x4E487B71 PUSH1 0xE0 SHL PUSH1 0x0 MSTORE PUSH1 0x32 PUSH1 0x4 MSTORE PUSH1 0x24 PUSH1 0x0 REVERT JUMPDEST PUSH1 0x0 DUP2 MLOAD DUP1 DUP5 MSTORE PUSH1 0x0 JUMPDEST DUP2 DUP2 LT ISZERO PUSH3 0x855 JUMPI PUSH1 0x20 DUP2 DUP6 ADD DUP2 ADD MLOAD DUP7 DUP4 ADD DUP3 ADD MSTORE ADD PUSH3 0x837 JUMP JUMPDEST POP PUSH1 0x0 PUSH1 0x20 DUP3 DUP7 ADD ADD MSTORE PUSH1 0x20 PUSH1 0x1F NOT PUSH1 0x1F DUP4 ADD AND DUP6 ADD ADD SWAP2 POP POP SWAP3 SWAP2 POP POP JUMP JUMPDEST PUSH1 0x1 PUSH1 0x1 PUSH1 0xA0 SHL SUB DUP7 DUP2 AND DUP3 MSTORE DUP6 AND PUSH1 0x20 DUP3 ADD MSTORE PUSH1 0x40 DUP2 ADD DUP5 SWAP1 MSTORE PUSH1 0x60 DUP2 ADD DUP4 SWAP1 MSTORE PUSH1 0xA0 PUSH1 0x80 DUP3 ADD DUP2 SWAP1 MSTORE PUSH1 0x0 SWAP1 PUSH3 0x8B1 SWAP1 DUP4 ADD DUP5 PUSH3 0x82D JUMP JUMPDEST SWAP8 SWAP7 POP POP POP POP POP POP POP JUMP JUMPDEST PUSH1 0x0 PUSH1 0x20 DUP3 DUP5 SUB SLT ISZERO PUSH3 0x8CF JUMPI PUSH1 0x0 DUP1 REVERT JUMPDEST DUP2 MLOAD PUSH1 0x1 PUSH1 0x1 PUSH1 0xE0 SHL SUB NOT DUP2 AND DUP2 EQ PUSH3 0x8E8 JUMPI PUSH1 0x0 DUP1 REVERT JUMPDEST SWAP4 SWAP3 POP POP POP JUMP JUMPDEST PUSH1 0x0 PUSH1 0x3 RETURNDATASIZE GT ISZERO PUSH3 0x909 JUMPI PUSH1 0x4 PUSH1 0x0 DUP1 RETURNDATACOPY POP PUSH1 0x0 MLOAD PUSH1 0xE0 SHR JUMPDEST SWAP1 JUMP JUMPDEST PUSH1 0x1F DUP3 ADD PUSH1 0x1F NOT AND DUP2 ADD PUSH1 0x1 PUSH1 0x1 PUSH1 0x40 SHL SUB DUP2 GT DUP3 DUP3 LT OR ISZERO PUSH3 0x934 JUMPI PUSH3 0x934 PUSH3 0x682 JUMP JUMPDEST PUSH1 0x40 MSTORE POP POP JUMP JUMPDEST PUSH1 0x0 PUSH1 0x44 RETURNDATASIZE LT ISZERO PUSH3 0x94A JUMPI SWAP1 JUMP JUMPDEST PUSH1 0x40 MLOAD PUSH1 0x3 NOT RETURNDATASIZE DUP2 ADD PUSH1 0x4 DUP4 RETURNDATACOPY DUP2 MLOAD RETURNDATASIZE PUSH1 0x1 PUSH1 0x1 PUSH1 0x40 SHL SUB DUP1 DUP4 GT PUSH1 0x24 DUP5 ADD DUP4 LT OR ISZERO PUSH3 0x97A JUMPI POP POP POP POP POP SWAP1 JUMP JUMPDEST DUP3 DUP6 ADD SWAP2 POP DUP2 MLOAD DUP2 DUP2 GT ISZERO PUSH3 0x993 JUMPI POP POP POP POP POP POP SWAP1 JUMP JUMPDEST DUP5 RETURNDATASIZE DUP8 ADD ADD PUSH1 0x20 DUP3 DUP6 ADD ADD GT ISZERO PUSH3 0x9AE JUMPI POP POP POP POP POP POP SWAP1 JUMP JUMPDEST PUSH3 0x9BF PUSH1 0x20 DUP3 DUP7 ADD ADD DUP8 PUSH3 0x90C JUMP JUMPDEST POP SWAP1 SWAP6 SWAP5 POP POP POP POP POP JUMP JUMPDEST PUSH1 0x20 DUP2 MSTORE PUSH1 0x0 PUSH3 0x8E8 PUSH1 0x20 DUP4 ADD DUP5 PUSH3 0x82D JUMP JUMPDEST PUSH2 0x48FF DUP1 PUSH3 0x9EF PUSH1 0x0 CODECOPY PUSH1 0x0 RETURN INVALID PUSH1 0x80 PUSH1 0x40 MSTORE PUSH1 0x4 CALLDATASIZE LT PUSH2 0x2AD JUMPI PUSH1 0x0 CALLDATALOAD PUSH1 0xE0 SHR DUP1 PUSH4 0x73F42561 GT PUSH2 0x175 JUMPI DUP1 PUSH4 0xB0EA7DCF GT PUSH2 0xDC JUMPI DUP1 PUSH4 0xED2239E9 GT PUSH2 0x95 JUMPI DUP1 PUSH4 0xF301AF42 GT PUSH2 0x6F JUMPI DUP1 PUSH4 0xF301AF42 EQ PUSH2 0x83F JUMPI DUP1 PUSH4 0xF5298ACA EQ PUSH2 0x85F JUMPI DUP1 PUSH4 0xF634F8DD EQ PUSH2 0x87F JUMPI DUP1 PUSH4 0xFF897BDD EQ PUSH2 0x894 JUMPI PUSH1 0x0 DUP1 REVERT JUMPDEST DUP1 PUSH4 0xED2239E9 EQ PUSH2 0x7D2 JUMPI DUP1 PUSH4 0xF0293FD3 EQ PUSH2 0x7F2 JUMPI DUP1 PUSH4 0xF242432A EQ PUSH2 0x81F JUMPI PUSH1 0x0 DUP1 REVERT JUMPDEST DUP1 PUSH4 0xB0EA7DCF EQ PUSH2 0x713 JUMPI DUP1 PUSH4 0xC040E6B8 EQ PUSH2 0x726 JUMPI DUP1 PUSH4 0xC5196426 EQ PUSH2 0x73C JUMPI DUP1 PUSH4 0xDC9A1535 EQ PUSH2 0x752 JUMPI DUP1 PUSH4 0xE985E9C5 EQ PUSH2 0x773 JUMPI DUP1 PUSH4 0xEBF0C717 EQ PUSH2 0x7BC JUMPI PUSH1 0x0 DUP1 REVERT JUMPDEST DUP1 PUSH4 0x95F08182 GT PUSH2 0x12E JUMPI DUP1 PUSH4 0x95F08182 EQ PUSH2 0x663 JUMPI DUP1 PUSH4 0x98CD0447 EQ PUSH2 0x693 JUMPI DUP1 PUSH4 0xA22CB465 EQ PUSH2 0x6B3 JUMPI DUP1 PUSH4 0xA26759CB EQ PUSH2 0x335 JUMPI DUP1 PUSH4 0xA7521A89 EQ PUSH2 0x6D3 JUMPI DUP1 PUSH4 0xAD4834DC EQ PUSH2 0x6F3 JUMPI PUSH1 0x0 DUP1 REVERT JUMPDEST DUP1 PUSH4 0x73F42561 EQ PUSH2 0x598 JUMPI DUP1 PUSH4 0x81A02AE7 EQ PUSH2 0x5AE JUMPI DUP1 PUSH4 0x84590B5C EQ PUSH2 0x5C3 JUMPI DUP1 PUSH4 0x85B87FC0 EQ PUSH2 0x5F0 JUMPI DUP1 PUSH4 0x9335DCB7 EQ PUSH2 0x610 JUMPI DUP1 PUSH4 0x947A36FB EQ PUSH2 0x64D JUMPI PUSH1 0x0 DUP1 REVERT JUMPDEST DUP1 PUSH4 0x3CCFD60B GT PUSH2 0x219 JUMPI DUP1 PUSH4 0x6187B33E GT PUSH2 0x1D2 JUMPI DUP1 PUSH4 0x6187B33E EQ PUSH2 0x4DF JUMPI DUP1 PUSH4 0x66666AA9 EQ PUSH2 0x4FF JUMPI DUP1 PUSH4 0x6B20C454 EQ PUSH2 0x515 JUMPI DUP1 PUSH4 0x6BD08049 EQ PUSH2 0x535 JUMPI DUP1 PUSH4 0x6E04FF0D EQ PUSH2 0x555 JUMPI DUP1 PUSH4 0x71F71994 EQ PUSH2 0x583 JUMPI PUSH1 0x0 DUP1 REVERT JUMPDEST DUP1 PUSH4 0x3CCFD60B EQ PUSH2 0x42D JUMPI DUP1 PUSH4 0x4585E33B EQ PUSH2 0x442 JUMPI DUP1 PUSH4 0x4800CBC8 EQ PUSH2 0x462 JUMPI DUP1 PUSH4 0x4E1273F4 EQ PUSH2 0x482 JUMPI DUP1 PUSH4 0x4F02C420 EQ PUSH2 0x4AF JUMPI DUP1 PUSH4 0x54214F69 EQ PUSH2 0x4C5 JUMPI PUSH1 0x0 DUP1 REVERT JUMPDEST DUP1 PUSH4 0x14C3EEEE GT PUSH2 0x26B JUMPI DUP1 PUSH4 0x14C3EEEE EQ PUSH2 0x38F JUMPI DUP1 PUSH4 0x237B7733 EQ PUSH2 0x3AF JUMPI DUP1 PUSH4 0x2B71F5E0 EQ PUSH2 0x3CF JUMPI DUP1 PUSH4 0x2DB11544 EQ PUSH2 0x3E4 JUMPI DUP1 PUSH4 0x2EB2C2D6 EQ PUSH2 0x3F7 JUMPI DUP1 PUSH4 0x32FE5ACF EQ PUSH2 0x417 JUMPI PUSH1 0x0 DUP1 REVERT JUMPDEST DUP1 PUSH3 0xFDD58E EQ PUSH2 0x2B2 JUMPI DUP1 PUSH4 0x1FFC9A7 EQ PUSH2 0x2E5 JUMPI DUP1 PUSH4 0x3DDCAB8 EQ PUSH2 0x315 JUMPI DUP1 PUSH4 0x45B7DCA EQ PUSH2 0x337 JUMPI DUP1 PUSH4 0xAA3C754 EQ PUSH2 0x34D JUMPI DUP1 PUSH4 0xE89341C EQ PUSH2 0x362 JUMPI JUMPDEST PUSH1 0x0 DUP1 REVERT JUMPDEST CALLVALUE DUP1 ISZERO PUSH2 0x2BE JUMPI PUSH1 0x0 DUP1 REVERT JUMPDEST POP PUSH2 0x2D2 PUSH2 0x2CD CALLDATASIZE PUSH1 0x4 PUSH2 0x3A57 JUMP JUMPDEST PUSH2 0x8B4 JUMP JUMPDEST PUSH1 0x40 MLOAD SWAP1 DUP2 MSTORE PUSH1 0x20 ADD JUMPDEST PUSH1 0x40 MLOAD DUP1 SWAP2 SUB SWAP1 RETURN JUMPDEST CALLVALUE DUP1 ISZERO PUSH2 0x2F1 JUMPI PUSH1 0x0 DUP1 REVERT JUMPDEST POP PUSH2 0x305 PUSH2 0x300 CALLDATASIZE PUSH1 0x4 PUSH2 0x3A97 JUMP JUMPDEST PUSH2 0x94D JUMP JUMPDEST PUSH1 0x40 MLOAD SWAP1 ISZERO ISZERO DUP2 MSTORE PUSH1 0x20 ADD PUSH2 0x2DC JUMP JUMPDEST CALLVALUE DUP1 ISZERO PUSH2 0x321 JUMPI PUSH1 0x0 DUP1 REVERT JUMPDEST POP PUSH2 0x335 PUSH2 0x330 CALLDATASIZE PUSH1 0x4 PUSH2 0x3AB4 JUMP JUMPDEST PUSH2 0x99D JUMP JUMPDEST STOP JUMPDEST CALLVALUE DUP1 ISZERO PUSH2 0x343 JUMPI PUSH1 0x0 DUP1 REVERT JUMPDEST POP PUSH2 0x2D2 PUSH1 0xB SLOAD DUP2 JUMP JUMPDEST CALLVALUE DUP1 ISZERO PUSH2 0x359 JUMPI PUSH1 0x0 DUP1 REVERT JUMPDEST POP PUSH2 0x335 PUSH2 0xD15 JUMP JUMPDEST CALLVALUE DUP1 ISZERO PUSH2 0x36E JUMPI PUSH1 0x0 DUP1 REVERT JUMPDEST POP PUSH2 0x382 PUSH2 0x37D CALLDATASIZE PUSH1 0x4 PUSH2 0x3AB4 JUMP JUMPDEST PUSH2 0xE03 JUMP JUMPDEST PUSH1 0x40 MLOAD PUSH2 0x2DC SWAP2 SWAP1 PUSH2 0x3B1D JUMP JUMPDEST CALLVALUE DUP1 ISZERO PUSH2 0x39B JUMPI PUSH1 0x0 DUP1 REVERT JUMPDEST POP PUSH2 0x335 PUSH2 0x3AA CALLDATASIZE PUSH1 0x4 PUSH2 0x3C06 JUMP JUMPDEST PUSH2 0xE9E JUMP JUMPDEST CALLVALUE DUP1 ISZERO PUSH2 0x3BB JUMPI PUSH1 0x0 DUP1 REVERT JUMPDEST POP PUSH2 0x2D2 PUSH2 0x3CA CALLDATASIZE PUSH1 0x4 PUSH2 0x3AB4 JUMP JUMPDEST PUSH2 0x1102 JUMP JUMPDEST CALLVALUE DUP1 ISZERO PUSH2 0x3DB JUMPI PUSH1 0x0 DUP1 REVERT JUMPDEST POP PUSH2 0x335 PUSH2 0x1119 JUMP JUMPDEST PUSH2 0x335 PUSH2 0x3F2 CALLDATASIZE PUSH1 0x4 PUSH2 0x3AB4 JUMP JUMPDEST PUSH2 0x1190 JUMP JUMPDEST CALLVALUE DUP1 ISZERO PUSH2 0x403 JUMPI PUSH1 0x0 DUP1 REVERT JUMPDEST POP PUSH2 0x335 PUSH2 0x412 CALLDATASIZE PUSH1 0x4 PUSH2 0x3CBF JUMP JUMPDEST PUSH2 0x1436 JUMP JUMPDEST CALLVALUE DUP1 ISZERO PUSH2 0x423 JUMPI PUSH1 0x0 DUP1 REVERT JUMPDEST POP PUSH2 0x2D2 PUSH1 0x15 SLOAD DUP2 JUMP JUMPDEST CALLVALUE DUP1 ISZERO PUSH2 0x439 JUMPI PUSH1 0x0 DUP1 REVERT JUMPDEST POP PUSH2 0x335 PUSH2 0x1482 JUMP JUMPDEST CALLVALUE DUP1 ISZERO PUSH2 0x44E JUMPI PUSH1 0x0 DUP1 REVERT JUMPDEST POP PUSH2 0x335 PUSH2 0x45D CALLDATASIZE PUSH1 0x4 PUSH2 0x3D68 JUMP JUMPDEST PUSH2 0x15FF JUMP JUMPDEST CALLVALUE DUP1 ISZERO PUSH2 0x46E JUMPI PUSH1 0x0 DUP1 REVERT JUMPDEST POP PUSH2 0x335 PUSH2 0x47D CALLDATASIZE PUSH1 0x4 PUSH2 0x3AB4 JUMP JUMPDEST PUSH2 0x18B1 JUMP JUMPDEST CALLVALUE DUP1 ISZERO PUSH2 0x48E JUMPI PUSH1 0x0 DUP1 REVERT JUMPDEST POP PUSH2 0x4A2 PUSH2 0x49D CALLDATASIZE PUSH1 0x4 PUSH2 0x3E46 JUMP JUMPDEST PUSH2 0x18E2 JUMP JUMPDEST PUSH1 0x40 MLOAD PUSH2 0x2DC SWAP2 SWAP1 PUSH2 0x3EDA JUMP JUMPDEST CALLVALUE DUP1 ISZERO PUSH2 0x4BB JUMPI PUSH1 0x0 DUP1 REVERT JUMPDEST POP PUSH2 0x2D2 PUSH1 0xC SLOAD DUP2 JUMP JUMPDEST CALLVALUE DUP1 ISZERO PUSH2 0x4D1 JUMPI PUSH1 0x0 DUP1 REVERT JUMPDEST POP PUSH1 0x4 SLOAD PUSH2 0x305 SWAP1 PUSH1 0xFF AND DUP2 JUMP JUMPDEST CALLVALUE DUP1 ISZERO PUSH2 0x4EB JUMPI PUSH1 0x0 DUP1 REVERT JUMPDEST POP PUSH2 0x2D2 PUSH2 0x4FA CALLDATASIZE PUSH1 0x4 PUSH2 0x3AB4 JUMP JUMPDEST PUSH2 0x1A0B JUMP JUMPDEST CALLVALUE DUP1 ISZERO PUSH2 0x50B JUMPI PUSH1 0x0 DUP1 REVERT JUMPDEST POP PUSH2 0x2D2 PUSH1 0x11 SLOAD DUP2 JUMP JUMPDEST CALLVALUE DUP1 ISZERO PUSH2 0x521 JUMPI PUSH1 0x0 DUP1 REVERT JUMPDEST POP PUSH2 0x335 PUSH2 0x530 CALLDATASIZE PUSH1 0x4 PUSH2 0x3EED JUMP JUMPDEST PUSH2 0x1A1B JUMP JUMPDEST CALLVALUE DUP1 ISZERO PUSH2 0x541 JUMPI PUSH1 0x0 DUP1 REVERT JUMPDEST POP PUSH2 0x335 PUSH2 0x550 CALLDATASIZE PUSH1 0x4 PUSH2 0x3AB4 JUMP JUMPDEST PUSH2 0x1A5E JUMP JUMPDEST CALLVALUE DUP1 ISZERO PUSH2 0x561 JUMPI PUSH1 0x0 DUP1 REVERT JUMPDEST POP PUSH2 0x575 PUSH2 0x570 CALLDATASIZE PUSH1 0x4 PUSH2 0x3D68 JUMP JUMPDEST PUSH2 0x1AF5 JUMP JUMPDEST PUSH1 0x40 MLOAD PUSH2 0x2DC SWAP3 SWAP2 SWAP1 PUSH2 0x3F60 JUMP JUMPDEST CALLVALUE DUP1 ISZERO PUSH2 0x58F JUMPI PUSH1 0x0 DUP1 REVERT JUMPDEST POP PUSH2 0x2D2 PUSH1 0x10 DUP2 JUMP JUMPDEST CALLVALUE DUP1 ISZERO PUSH2 0x5A4 JUMPI PUSH1 0x0 DUP1 REVERT JUMPDEST POP PUSH2 0x2D2 PUSH1 0x16 SLOAD DUP2 JUMP JUMPDEST CALLVALUE DUP1 ISZERO PUSH2 0x5BA JUMPI PUSH1 0x0 DUP1 REVERT JUMPDEST POP PUSH2 0x335 PUSH2 0x1CE6 JUMP JUMPDEST CALLVALUE DUP1 ISZERO PUSH2 0x5CF JUMPI PUSH1 0x0 DUP1 REVERT JUMPDEST POP PUSH2 0x2D2 PUSH2 0x5DE CALLDATASIZE PUSH1 0x4 PUSH2 0x3AB4 JUMP JUMPDEST PUSH1 0x1E PUSH1 0x20 MSTORE PUSH1 0x0 SWAP1 DUP2 MSTORE PUSH1 0x40 SWAP1 KECCAK256 SLOAD DUP2 JUMP JUMPDEST CALLVALUE DUP1 ISZERO PUSH2 0x5FC JUMPI PUSH1 0x0 DUP1 REVERT JUMPDEST POP PUSH2 0x335 PUSH2 0x60B CALLDATASIZE PUSH1 0x4 PUSH2 0x3F83 JUMP JUMPDEST PUSH2 0x1DBB JUMP JUMPDEST CALLVALUE DUP1 ISZERO PUSH2 0x61C JUMPI PUSH1 0x0 DUP1 REVERT JUMPDEST POP PUSH1 0x4 SLOAD PUSH2 0x635 SWAP1 PUSH2 0x100 SWAP1 DIV PUSH1 0x1 PUSH1 0x1 PUSH1 0xA0 SHL SUB AND DUP2 JUMP JUMPDEST PUSH1 0x40 MLOAD PUSH1 0x1 PUSH1 0x1 PUSH1 0xA0 SHL SUB SWAP1 SWAP2 AND DUP2 MSTORE PUSH1 0x20 ADD PUSH2 0x2DC JUMP JUMPDEST CALLVALUE DUP1 ISZERO PUSH2 0x659 JUMPI PUSH1 0x0 DUP1 REVERT JUMPDEST POP PUSH2 0x2D2 PUSH1 0x1D SLOAD DUP2 JUMP JUMPDEST CALLVALUE DUP1 ISZERO PUSH2 0x66F JUMPI PUSH1 0x0 DUP1 REVERT JUMPDEST POP PUSH2 0x305 PUSH2 0x67E CALLDATASIZE PUSH1 0x4 PUSH2 0x3AB4 JUMP JUMPDEST PUSH1 0x17 PUSH1 0x20 MSTORE PUSH1 0x0 SWAP1 DUP2 MSTORE PUSH1 0x40 SWAP1 KECCAK256 SLOAD PUSH1 0xFF AND DUP2 JUMP JUMPDEST CALLVALUE DUP1 ISZERO PUSH2 0x69F JUMPI PUSH1 0x0 DUP1 REVERT JUMPDEST POP PUSH2 0x2D2 PUSH2 0x6AE CALLDATASIZE PUSH1 0x4 PUSH2 0x3AB4 JUMP JUMPDEST PUSH2 0x1E65 JUMP JUMPDEST CALLVALUE DUP1 ISZERO PUSH2 0x6BF JUMPI PUSH1 0x0 DUP1 REVERT JUMPDEST POP PUSH2 0x335 PUSH2 0x6CE CALLDATASIZE PUSH1 0x4 PUSH2 0x4002 JUMP JUMPDEST PUSH2 0x1E75 JUMP JUMPDEST CALLVALUE DUP1 ISZERO PUSH2 0x6DF JUMPI PUSH1 0x0 DUP1 REVERT JUMPDEST POP PUSH2 0x382 PUSH2 0x6EE CALLDATASIZE PUSH1 0x4 PUSH2 0x3AB4 JUMP JUMPDEST PUSH2 0x1E80 JUMP JUMPDEST CALLVALUE DUP1 ISZERO PUSH2 0x6FF JUMPI PUSH1 0x0 DUP1 REVERT JUMPDEST POP PUSH2 0x635 PUSH2 0x70E CALLDATASIZE PUSH1 0x4 PUSH2 0x3AB4 JUMP JUMPDEST PUSH2 0x1E95 JUMP JUMPDEST PUSH2 0x335 PUSH2 0x721 CALLDATASIZE PUSH1 0x4 PUSH2 0x403E JUMP JUMPDEST PUSH2 0x1EB5 JUMP JUMPDEST CALLVALUE DUP1 ISZERO PUSH2 0x732 JUMPI PUSH1 0x0 DUP1 REVERT JUMPDEST POP PUSH2 0x2D2 PUSH1 0x3 SLOAD DUP2 JUMP JUMPDEST CALLVALUE DUP1 ISZERO PUSH2 0x748 JUMPI PUSH1 0x0 DUP1 REVERT JUMPDEST POP PUSH2 0x2D2 PUSH1 0xD SLOAD DUP2 JUMP JUMPDEST CALLVALUE DUP1 ISZERO PUSH2 0x75E JUMPI PUSH1 0x0 DUP1 REVERT JUMPDEST POP PUSH1 0x4 SLOAD PUSH2 0x305 SWAP1 PUSH1 0x1 PUSH1 0xA8 SHL SWAP1 DIV PUSH1 0xFF AND DUP2 JUMP JUMPDEST CALLVALUE DUP1 ISZERO PUSH2 0x77F JUMPI PUSH1 0x0 DUP1 REVERT JUMPDEST POP PUSH2 0x305 PUSH2 0x78E CALLDATASIZE PUSH1 0x4 PUSH2 0x40D9 JUMP JUMPDEST PUSH1 0x1 PUSH1 0x1 PUSH1 0xA0 SHL SUB SWAP2 DUP3 AND PUSH1 0x0 SWAP1 DUP2 MSTORE PUSH1 0x1 PUSH1 0x20 SWAP1 DUP2 MSTORE PUSH1 0x40 DUP1 DUP4 KECCAK256 SWAP4 SWAP1 SWAP5 AND DUP3 MSTORE SWAP2 SWAP1 SWAP2 MSTORE KECCAK256 SLOAD PUSH1 0xFF AND SWAP1 JUMP JUMPDEST CALLVALUE DUP1 ISZERO PUSH2 0x7C8 JUMPI PUSH1 0x0 DUP1 REVERT JUMPDEST POP PUSH2 0x2D2 PUSH1 0x5 SLOAD DUP2 JUMP JUMPDEST CALLVALUE DUP1 ISZERO PUSH2 0x7DE JUMPI PUSH1 0x0 DUP1 REVERT JUMPDEST POP PUSH2 0x335 PUSH2 0x7ED CALLDATASIZE PUSH1 0x4 PUSH2 0x410C JUMP JUMPDEST PUSH2 0x21BA JUMP JUMPDEST CALLVALUE DUP1 ISZERO PUSH2 0x7FE JUMPI PUSH1 0x0 DUP1 REVERT JUMPDEST POP PUSH2 0x2D2 PUSH2 0x80D CALLDATASIZE PUSH1 0x4 PUSH2 0x41EB JUMP JUMPDEST PUSH1 0xA PUSH1 0x20 MSTORE PUSH1 0x0 SWAP1 DUP2 MSTORE PUSH1 0x40 SWAP1 KECCAK256 SLOAD DUP2 JUMP JUMPDEST CALLVALUE DUP1 ISZERO PUSH2 0x82B JUMPI PUSH1 0x0 DUP1 REVERT JUMPDEST POP PUSH2 0x335 PUSH2 0x83A CALLDATASIZE PUSH1 0x4 PUSH2 0x4206 JUMP JUMPDEST PUSH2 0x241C JUMP JUMPDEST CALLVALUE DUP1 ISZERO PUSH2 0x84B JUMPI PUSH1 0x0 DUP1 REVERT JUMPDEST POP PUSH2 0x2D2 PUSH2 0x85A CALLDATASIZE PUSH1 0x4 PUSH2 0x3AB4 JUMP JUMPDEST PUSH2 0x2461 JUMP JUMPDEST CALLVALUE DUP1 ISZERO PUSH2 0x86B JUMPI PUSH1 0x0 DUP1 REVERT JUMPDEST POP PUSH2 0x335 PUSH2 0x87A CALLDATASIZE PUSH1 0x4 PUSH2 0x426A JUMP JUMPDEST PUSH2 0x2471 JUMP JUMPDEST CALLVALUE DUP1 ISZERO PUSH2 0x88B JUMPI PUSH1 0x0 DUP1 REVERT JUMPDEST POP PUSH2 0x335 PUSH2 0x24B4 JUMP JUMPDEST CALLVALUE DUP1 ISZERO PUSH2 0x8A0 JUMPI PUSH1 0x0 DUP1 REVERT JUMPDEST POP PUSH2 0x335 PUSH2 0x8AF CALLDATASIZE PUSH1 0x4 PUSH2 0x3F83 JUMP JUMPDEST PUSH2 0x2586 JUMP JUMPDEST PUSH1 0x0 PUSH1 0x1 PUSH1 0x1 PUSH1 0xA0 SHL SUB DUP4 AND PUSH2 0x924 JUMPI PUSH1 0x40 MLOAD PUSH3 0x461BCD PUSH1 0xE5 SHL DUP2 MSTORE PUSH1 0x20 PUSH1 0x4 DUP3 ADD MSTORE PUSH1 0x2A PUSH1 0x24 DUP3 ADD MSTORE PUSH32 0x455243313135353A2061646472657373207A65726F206973206E6F7420612076 PUSH1 0x44 DUP3 ADD MSTORE PUSH10 0x30B634B21037BBB732B9 PUSH1 0xB1 SHL PUSH1 0x64 DUP3 ADD MSTORE PUSH1 0x84 ADD JUMPDEST PUSH1 0x40 MLOAD DUP1 SWAP2 SUB SWAP1 REVERT JUMPDEST POP PUSH1 0x0 DUP2 DUP2 MSTORE PUSH1 0x20 DUP2 DUP2 MSTORE PUSH1 0x40 DUP1 DUP4 KECCAK256 PUSH1 0x1 PUSH1 0x1 PUSH1 0xA0 SHL SUB DUP7 AND DUP5 MSTORE SWAP1 SWAP2 MSTORE SWAP1 KECCAK256 SLOAD JUMPDEST SWAP3 SWAP2 POP POP JUMP JUMPDEST PUSH1 0x0 PUSH1 0x1 PUSH1 0x1 PUSH1 0xE0 SHL SUB NOT DUP3 AND PUSH4 0x6CDB3D13 PUSH1 0xE1 SHL EQ DUP1 PUSH2 0x97E JUMPI POP PUSH1 0x1 PUSH1 0x1 PUSH1 0xE0 SHL SUB NOT DUP3 AND PUSH4 0x3A24D07 PUSH1 0xE2 SHL EQ JUMPDEST DUP1 PUSH2 0x947 JUMPI POP PUSH4 0x1FFC9A7 PUSH1 0xE0 SHL PUSH1 0x1 PUSH1 0x1 PUSH1 0xE0 SHL SUB NOT DUP4 AND EQ PUSH2 0x947 JUMP JUMPDEST PUSH1 0x3 SLOAD PUSH1 0x2 EQ PUSH2 0x9BF JUMPI PUSH1 0x40 MLOAD PUSH3 0x461BCD PUSH1 0xE5 SHL DUP2 MSTORE PUSH1 0x4 ADD PUSH2 0x91B SWAP1 PUSH2 0x429D JUMP JUMPDEST PUSH1 0x0 PUSH1 0xD SLOAD GT PUSH2 0x9E1 JUMPI PUSH1 0x40 MLOAD PUSH3 0x461BCD PUSH1 0xE5 SHL DUP2 MSTORE PUSH1 0x4 ADD PUSH2 0x91B SWAP1 PUSH2 0x42D4 JUMP JUMPDEST PUSH1 0xE PUSH1 0x1 PUSH1 0xD SLOAD PUSH2 0x9F2 SWAP2 SWAP1 PUSH2 0x4321 JUMP JUMPDEST PUSH1 0x3 DUP2 LT PUSH2 0xA02 JUMPI PUSH2 0xA02 PUSH2 0x4334 JUMP JUMPDEST ADD SLOAD ISZERO PUSH2 0xA21 JUMPI PUSH1 0x40 MLOAD PUSH3 0x461BCD PUSH1 0xE5 SHL DUP2 MSTORE PUSH1 0x4 ADD PUSH2 0x91B SWAP1 PUSH2 0x434A JUMP JUMPDEST PUSH1 0xC SLOAD DUP2 GT ISZERO PUSH2 0xA69 JUMPI PUSH1 0x40 MLOAD PUSH3 0x461BCD PUSH1 0xE5 SHL DUP2 MSTORE PUSH1 0x20 PUSH1 0x4 DUP3 ADD MSTORE PUSH1 0x13 PUSH1 0x24 DUP3 ADD MSTORE PUSH19 0x151BDAD95B88191BD95CDB89DD08195E1A5CDD PUSH1 0x6A SHL PUSH1 0x44 DUP3 ADD MSTORE PUSH1 0x64 ADD PUSH2 0x91B JUMP JUMPDEST PUSH1 0x0 PUSH2 0xA75 CALLER DUP4 PUSH2 0x8B4 JUMP JUMPDEST GT PUSH2 0xAC2 JUMPI PUSH1 0x40 MLOAD PUSH3 0x461BCD PUSH1 0xE5 SHL DUP2 MSTORE PUSH1 0x20 PUSH1 0x4 DUP3 ADD MSTORE PUSH1 0x18 PUSH1 0x24 DUP3 ADD MSTORE PUSH32 0x596F7520646F6E2774206F776E207468697320746F6B656E0000000000000000 PUSH1 0x44 DUP3 ADD MSTORE PUSH1 0x64 ADD PUSH2 0x91B JUMP JUMPDEST PUSH1 0x0 DUP2 DUP2 MSTORE PUSH1 0x17 PUSH1 0x20 MSTORE PUSH1 0x40 SWAP1 KECCAK256 SLOAD PUSH1 0xFF AND ISZERO ISZERO PUSH1 0x1 EQ PUSH2 0xB3C JUMPI PUSH1 0x40 MLOAD PUSH3 0x461BCD PUSH1 0xE5 SHL DUP2 MSTORE PUSH1 0x20 PUSH1 0x4 DUP3 ADD MSTORE PUSH1 0x2E PUSH1 0x24 DUP3 ADD MSTORE PUSH32 0x54686973206C6F747465727920737461676520666F7220646966666572656E74 PUSH1 0x44 DUP3 ADD MSTORE PUSH14 0x2072617269747920746F6B656E73 PUSH1 0x90 SHL PUSH1 0x64 DUP3 ADD MSTORE PUSH1 0x84 ADD PUSH2 0x91B JUMP JUMPDEST PUSH1 0x18 SLOAD DUP2 SUB PUSH2 0xC5D JUMPI PUSH2 0xB51 CALLER DUP3 PUSH1 0x1 PUSH2 0x263A JUMP JUMPDEST PUSH1 0x16 DUP1 SLOAD SWAP1 PUSH1 0x0 PUSH2 0xB61 DUP4 PUSH2 0x437A JUMP JUMPDEST SWAP2 SWAP1 POP SSTORE POP PUSH2 0xBA6 PUSH1 0x4 PUSH1 0x1 SWAP1 SLOAD SWAP1 PUSH2 0x100 EXP SWAP1 DIV PUSH1 0x1 PUSH1 0x1 PUSH1 0xA0 SHL SUB AND CALLER PUSH1 0x10 PUSH1 0x1 PUSH1 0x40 MLOAD DUP1 PUSH1 0x40 ADD PUSH1 0x40 MSTORE DUP1 PUSH1 0x4 DUP2 MSTORE PUSH1 0x20 ADD PUSH4 0x3078303 PUSH1 0xE4 SHL DUP2 MSTORE POP PUSH2 0x2743 JUMP JUMPDEST DUP1 PUSH1 0xE PUSH1 0x1 PUSH1 0xD SLOAD PUSH2 0xBB8 SWAP2 SWAP1 PUSH2 0x4321 JUMP JUMPDEST PUSH1 0x3 DUP2 LT PUSH2 0xBC8 JUMPI PUSH2 0xBC8 PUSH2 0x4334 JUMP JUMPDEST ADD SSTORE PUSH1 0xD SLOAD CALLER SWAP1 PUSH2 0x8FC SWAP1 PUSH1 0x12 SWAP1 PUSH2 0xBE2 SWAP1 PUSH1 0x1 SWAP1 PUSH2 0x4321 JUMP JUMPDEST PUSH1 0x3 DUP2 LT PUSH2 0xBF2 JUMPI PUSH2 0xBF2 PUSH2 0x4334 JUMP JUMPDEST ADD SLOAD PUSH1 0x40 MLOAD DUP2 ISZERO SWAP1 SWAP3 MUL SWAP2 PUSH1 0x0 DUP2 DUP2 DUP2 DUP6 DUP9 DUP9 CALL SWAP4 POP POP POP POP ISZERO DUP1 ISZERO PUSH2 0xC1C JUMPI RETURNDATASIZE PUSH1 0x0 DUP1 RETURNDATACOPY RETURNDATASIZE PUSH1 0x0 REVERT JUMPDEST POP PUSH1 0xD SLOAD PUSH1 0x40 DUP1 MLOAD SWAP2 DUP3 MSTORE PUSH1 0x20 DUP3 ADD DUP4 SWAP1 MSTORE PUSH32 0xE63F62AA52D6270C5AC3086B02DD8AD47850F9FDA51B8D82FB2985D71E038D1B SWAP2 ADD JUMPDEST PUSH1 0x40 MLOAD DUP1 SWAP2 SUB SWAP1 LOG1 POP JUMP JUMPDEST PUSH2 0xC69 CALLER DUP3 PUSH1 0x1 PUSH2 0x263A JUMP JUMPDEST PUSH1 0x16 DUP1 SLOAD SWAP1 PUSH1 0x0 PUSH2 0xC79 DUP4 PUSH2 0x437A JUMP JUMPDEST SWAP2 SWAP1 POP SSTORE POP PUSH2 0xCBE PUSH1 0x4 PUSH1 0x1 SWAP1 SLOAD SWAP1 PUSH2 0x100 EXP SWAP1 DIV PUSH1 0x1 PUSH1 0x1 PUSH1 0xA0 SHL SUB AND CALLER PUSH1 0x10 PUSH1 0x1 PUSH1 0x40 MLOAD DUP1 PUSH1 0x40 ADD PUSH1 0x40 MSTORE DUP1 PUSH1 0x4 DUP2 MSTORE PUSH1 0x20 ADD PUSH4 0x3078303 PUSH1 0xE4 SHL DUP2 MSTORE POP PUSH2 0x2743 JUMP JUMPDEST PUSH1 0x15 SLOAD PUSH1 0x12 PUSH1 0x1 PUSH1 0xD SLOAD PUSH2 0xCD2 SWAP2 SWAP1 PUSH2 0x4321 JUMP JUMPDEST PUSH1 0x3 DUP2 LT PUSH2 0xCE2 JUMPI PUSH2 0xCE2 PUSH2 0x4334 JUMP JUMPDEST ADD SLOAD PUSH2 0xCEE SWAP2 SWAP1 PUSH2 0x4393 JUMP JUMPDEST PUSH1 0x12 PUSH1 0x1 PUSH1 0xD SLOAD PUSH2 0xCFF SWAP2 SWAP1 PUSH2 0x4321 JUMP JUMPDEST PUSH1 0x3 DUP2 LT PUSH2 0xD0F JUMPI PUSH2 0xD0F PUSH2 0x4334 JUMP JUMPDEST ADD SSTORE JUMPDEST POP JUMP JUMPDEST PUSH1 0x3 PUSH1 0xC SLOAD LT ISZERO PUSH2 0xD78 JUMPI PUSH1 0x40 MLOAD PUSH3 0x461BCD PUSH1 0xE5 SHL DUP2 MSTORE PUSH1 0x20 PUSH1 0x4 DUP3 ADD MSTORE PUSH1 0x27 PUSH1 0x24 DUP3 ADD MSTORE PUSH32 0x4E656564206174206C65617374203320746F6B656E7320666F72207261726974 PUSH1 0x44 DUP3 ADD MSTORE PUSH7 0x792072616E6B73 PUSH1 0xC8 SHL PUSH1 0x64 DUP3 ADD MSTORE PUSH1 0x84 ADD PUSH2 0x91B JUMP JUMPDEST PUSH1 0x4 SLOAD PUSH1 0xFF AND ISZERO PUSH2 0xDCB JUMPI PUSH1 0x40 MLOAD PUSH3 0x461BCD PUSH1 0xE5 SHL DUP2 MSTORE PUSH1 0x20 PUSH1 0x4 DUP3 ADD MSTORE PUSH1 0x17 PUSH1 0x24 DUP3 ADD MSTORE PUSH32 0x546F6B656E7320616C72656164792072657665616C6564000000000000000000 PUSH1 0x44 DUP3 ADD MSTORE PUSH1 0x64 ADD PUSH2 0x91B JUMP JUMPDEST PUSH1 0x4 DUP1 SLOAD PUSH1 0xFF NOT AND PUSH1 0x1 OR SWAP1 SSTORE PUSH1 0x40 MLOAD PUSH1 0x0 DUP1 MLOAD PUSH1 0x20 PUSH2 0x48AA DUP4 CODECOPY DUP2 MLOAD SWAP2 MSTORE SWAP1 PUSH2 0xDF9 SWAP1 PUSH1 0x3 DUP2 MSTORE PUSH1 0x20 ADD SWAP1 JUMP JUMPDEST PUSH1 0x40 MLOAD DUP1 SWAP2 SUB SWAP1 LOG1 JUMP JUMPDEST PUSH1 0x4 SLOAD PUSH1 0x60 SWAP1 PUSH1 0xFF AND ISZERO PUSH2 0xE40 JUMPI PUSH2 0xE1A DUP3 PUSH2 0x286D JUMP JUMPDEST PUSH1 0x40 MLOAD PUSH1 0x20 ADD PUSH2 0xE2A SWAP2 SWAP1 PUSH2 0x43A6 JUMP JUMPDEST PUSH1 0x40 MLOAD PUSH1 0x20 DUP2 DUP4 SUB SUB DUP2 MSTORE SWAP1 PUSH1 0x40 MSTORE SWAP1 POP SWAP2 SWAP1 POP JUMP JUMPDEST PUSH1 0x40 MLOAD PUSH1 0x20 ADD PUSH2 0xE2A SWAP1 PUSH32 0x697066733A2F2F516D5571446E7A484C6971586250527A58454D414B46764A63 DUP2 MSTORE PUSH32 0x75505255323863445262716252674C4C5644504B532F302E6A736F6E00000000 PUSH1 0x20 DUP3 ADD MSTORE PUSH1 0x3C ADD SWAP1 JUMP JUMPDEST SWAP2 SWAP1 POP JUMP JUMPDEST PUSH1 0xD SLOAD DUP3 SUB PUSH2 0xEE7 JUMPI PUSH1 0x40 MLOAD PUSH3 0x461BCD PUSH1 0xE5 SHL DUP2 MSTORE PUSH1 0x20 PUSH1 0x4 DUP3 ADD MSTORE PUSH1 0x15 PUSH1 0x24 DUP3 ADD MSTORE PUSH21 0x149BDD5B9908185B1C9958591E481CDD185C9D1959 PUSH1 0x5A SHL PUSH1 0x44 DUP3 ADD MSTORE PUSH1 0x64 ADD PUSH2 0x91B JUMP JUMPDEST PUSH1 0xE PUSH2 0xEF4 PUSH1 0x1 DUP5 PUSH2 0x4321 JUMP JUMPDEST PUSH1 0x3 DUP2 LT PUSH2 0xF04 JUMPI PUSH2 0xF04 PUSH2 0x4334 JUMP JUMPDEST ADD SLOAD ISZERO PUSH2 0xF47 JUMPI PUSH1 0x40 MLOAD PUSH3 0x461BCD PUSH1 0xE5 SHL DUP2 MSTORE PUSH1 0x20 PUSH1 0x4 DUP3 ADD MSTORE PUSH1 0x11 PUSH1 0x24 DUP3 ADD MSTORE PUSH17 0x2937BAB7321030B63932B0B23C903BB7B7 PUSH1 0x79 SHL PUSH1 0x44 DUP3 ADD MSTORE PUSH1 0x64 ADD PUSH2 0x91B JUMP JUMPDEST PUSH1 0x3 SLOAD PUSH1 0x2 EQ PUSH2 0xF8E JUMPI PUSH1 0x40 MLOAD PUSH3 0x461BCD PUSH1 0xE5 SHL DUP2 MSTORE PUSH1 0x20 PUSH1 0x4 DUP3 ADD MSTORE PUSH1 0x12 PUSH1 0x24 DUP3 ADD MSTORE PUSH18 0x4E6F206F6E676F696E67206C6F7474657279 PUSH1 0x70 SHL PUSH1 0x44 DUP3 ADD MSTORE PUSH1 0x64 ADD PUSH2 0x91B JUMP JUMPDEST PUSH1 0xD DUP3 SWAP1 SSTORE DUP1 MLOAD PUSH1 0x0 SWAP1 PUSH2 0xFE8 PUSH1 0x4 SLOAD PUSH1 0x40 MLOAD PUSH2 0x100 SWAP1 SWAP2 DIV PUSH1 0x60 SHL PUSH12 0xFFFFFFFFFFFFFFFFFFFFFFFF NOT AND PUSH1 0x20 DUP3 ADD MSTORE TIMESTAMP PUSH1 0x34 DUP3 ADD MSTORE PUSH1 0x0 SWAP1 PUSH1 0x54 ADD PUSH1 0x40 MLOAD PUSH1 0x20 DUP2 DUP4 SUB SUB DUP2 MSTORE SWAP1 PUSH1 0x40 MSTORE DUP1 MLOAD SWAP1 PUSH1 0x20 ADD KECCAK256 PUSH1 0x0 SHR SWAP1 POP SWAP1 JUMP JUMPDEST PUSH2 0xFF2 SWAP2 SWAP1 PUSH2 0x442F JUMP JUMPDEST SWAP1 POP DUP2 DUP2 DUP2 MLOAD DUP2 LT PUSH2 0x1006 JUMPI PUSH2 0x1006 PUSH2 0x4334 JUMP JUMPDEST PUSH1 0x20 SWAP1 DUP2 MUL SWAP2 SWAP1 SWAP2 ADD ADD MLOAD PUSH1 0x18 SSTORE PUSH1 0x1 JUMPDEST PUSH1 0xC SLOAD DUP2 GT PUSH2 0x1064 JUMPI PUSH1 0x0 DUP2 DUP2 MSTORE PUSH1 0x17 PUSH1 0x20 MSTORE PUSH1 0x40 SWAP1 KECCAK256 SLOAD PUSH1 0xFF AND ISZERO ISZERO PUSH1 0x1 SUB PUSH2 0x1052 JUMPI PUSH1 0x0 DUP2 DUP2 MSTORE PUSH1 0x17 PUSH1 0x20 MSTORE PUSH1 0x40 SWAP1 KECCAK256 DUP1 SLOAD PUSH1 0xFF NOT AND SWAP1 SSTORE JUMPDEST DUP1 PUSH2 0x105C DUP2 PUSH2 0x437A JUMP JUMPDEST SWAP2 POP POP PUSH2 0x1017 JUMP JUMPDEST POP PUSH1 0x0 JUMPDEST DUP3 MLOAD DUP2 LT ISZERO PUSH2 0x10C9 JUMPI PUSH1 0x1 PUSH1 0x17 PUSH1 0x0 DUP6 DUP5 DUP2 MLOAD DUP2 LT PUSH2 0x1089 JUMPI PUSH2 0x1089 PUSH2 0x4334 JUMP JUMPDEST PUSH1 0x20 MUL PUSH1 0x20 ADD ADD MLOAD DUP2 MSTORE PUSH1 0x20 ADD SWAP1 DUP2 MSTORE PUSH1 0x20 ADD PUSH1 0x0 KECCAK256 PUSH1 0x0 PUSH2 0x100 EXP DUP2 SLOAD DUP2 PUSH1 0xFF MUL NOT AND SWAP1 DUP4 ISZERO ISZERO MUL OR SWAP1 SSTORE POP DUP1 DUP1 PUSH2 0x10C1 SWAP1 PUSH2 0x437A JUMP JUMPDEST SWAP2 POP POP PUSH2 0x1068 JUMP JUMPDEST POP PUSH1 0x40 MLOAD DUP4 DUP2 MSTORE PUSH32 0x4ACC99F74A6541B02CF97191A57B833A1040567EA9774E1C106FAA1466C50080 SWAP1 PUSH1 0x20 ADD PUSH1 0x40 MLOAD DUP1 SWAP2 SUB SWAP1 LOG1 POP POP POP JUMP JUMPDEST PUSH1 0x8 DUP2 PUSH1 0x2 DUP2 LT PUSH2 0x1112 JUMPI PUSH1 0x0 DUP1 REVERT JUMPDEST ADD SLOAD SWAP1 POP DUP2 JUMP JUMPDEST PUSH1 0x1 PUSH1 0x3 SLOAD LT PUSH2 0x116B JUMPI PUSH1 0x40 MLOAD PUSH3 0x461BCD PUSH1 0xE5 SHL DUP2 MSTORE PUSH1 0x20 PUSH1 0x4 DUP3 ADD MSTORE PUSH1 0x18 PUSH1 0x24 DUP3 ADD MSTORE PUSH32 0x574C206D696E7420616C7265616479206C61756E636865640000000000000000 PUSH1 0x44 DUP3 ADD MSTORE PUSH1 0x64 ADD PUSH2 0x91B JUMP JUMPDEST PUSH1 0x1 PUSH1 0x3 DUP2 SWAP1 SSTORE PUSH1 0x40 MLOAD SWAP1 DUP2 MSTORE PUSH1 0x0 DUP1 MLOAD PUSH1 0x20 PUSH2 0x48AA DUP4 CODECOPY DUP2 MLOAD SWAP2 MSTORE SWAP1 PUSH1 0x20 ADD PUSH2 0xDF9 JUMP JUMPDEST PUSH1 0x0 PUSH1 0x3 SLOAD GT PUSH2 0x11B2 JUMPI PUSH1 0x40 MLOAD PUSH3 0x461BCD PUSH1 0xE5 SHL DUP2 MSTORE PUSH1 0x4 ADD PUSH2 0x91B SWAP1 PUSH2 0x4443 JUMP JUMPDEST PUSH1 0x2 PUSH1 0x3 SLOAD LT PUSH2 0x11D4 JUMPI PUSH1 0x40 MLOAD PUSH3 0x461BCD PUSH1 0xE5 SHL DUP2 MSTORE PUSH1 0x4 ADD PUSH2 0x91B SWAP1 PUSH2 0x4473 JUMP JUMPDEST PUSH1 0x4 SLOAD PUSH1 0x1 PUSH1 0xA8 SHL SWAP1 DIV PUSH1 0xFF AND ISZERO ISZERO PUSH1 0x1 EQ PUSH2 0x1232 JUMPI PUSH1 0x40 MLOAD PUSH3 0x461BCD PUSH1 0xE5 SHL DUP2 MSTORE PUSH1 0x20 PUSH1 0x4 DUP3 ADD MSTORE PUSH1 0x1D PUSH1 0x24 DUP3 ADD MSTORE PUSH32 0x5075626C6963204D696E742069736E277420656E61626C656420796574000000 PUSH1 0x44 DUP3 ADD MSTORE PUSH1 0x64 ADD PUSH2 0x91B JUMP JUMPDEST PUSH1 0xB SLOAD DUP2 PUSH1 0xC SLOAD PUSH2 0x1243 SWAP2 SWAP1 PUSH2 0x4393 JUMP JUMPDEST GT ISZERO PUSH2 0x1261 JUMPI PUSH1 0x40 MLOAD PUSH3 0x461BCD PUSH1 0xE5 SHL DUP2 MSTORE PUSH1 0x4 ADD PUSH2 0x91B SWAP1 PUSH2 0x44A3 JUMP JUMPDEST PUSH1 0x9 SLOAD CALLER PUSH1 0x0 SWAP1 DUP2 MSTORE PUSH1 0xA PUSH1 0x20 MSTORE PUSH1 0x40 SWAP1 KECCAK256 SLOAD PUSH2 0x127F SWAP1 DUP4 SWAP1 PUSH2 0x4393 JUMP JUMPDEST GT ISZERO PUSH2 0x12CD JUMPI PUSH1 0x40 MLOAD PUSH3 0x461BCD PUSH1 0xE5 SHL DUP2 MSTORE PUSH1 0x20 PUSH1 0x4 DUP3 ADD MSTORE PUSH1 0x1D PUSH1 0x24 DUP3 ADD MSTORE PUSH32 0x45786365656473206D617820746F6B656E73207065722077616C6C6574000000 PUSH1 0x44 DUP3 ADD MSTORE PUSH1 0x64 ADD PUSH2 0x91B JUMP JUMPDEST PUSH1 0x7 SLOAD PUSH2 0x12DA SWAP1 DUP3 PUSH2 0x44D1 JUMP JUMPDEST CALLVALUE EQ PUSH2 0x1316 JUMPI PUSH1 0x40 MLOAD PUSH3 0x461BCD PUSH1 0xE5 SHL DUP2 MSTORE PUSH1 0x20 PUSH1 0x4 DUP3 ADD MSTORE PUSH1 0xB PUSH1 0x24 DUP3 ADD MSTORE PUSH11 0x57726F6E67207072696365 PUSH1 0xA8 SHL PUSH1 0x44 DUP3 ADD MSTORE PUSH1 0x64 ADD PUSH2 0x91B JUMP JUMPDEST PUSH1 0x0 JUMPDEST DUP2 DUP2 LT ISZERO PUSH2 0x1432 JUMPI PUSH1 0x7 SLOAD PUSH1 0x11 DUP1 SLOAD PUSH1 0x0 SWAP1 PUSH2 0x1336 SWAP1 DUP5 SWAP1 PUSH2 0x4393 JUMP JUMPDEST SWAP1 SWAP2 SSTORE POP POP CALLER PUSH1 0x0 SWAP1 DUP2 MSTORE PUSH1 0xA PUSH1 0x20 MSTORE PUSH1 0x40 DUP2 KECCAK256 DUP1 SLOAD SWAP2 PUSH2 0x1356 DUP4 PUSH2 0x437A JUMP JUMPDEST SWAP1 SWAP2 SSTORE POP POP PUSH1 0xC DUP1 SLOAD SWAP1 PUSH1 0x0 PUSH2 0x136B DUP4 PUSH2 0x437A JUMP JUMPDEST SWAP2 SWAP1 POP SSTORE POP PUSH1 0x0 PUSH1 0xC SLOAD SWAP1 POP PUSH2 0x13A0 CALLER DUP3 PUSH1 0x1 PUSH1 0x40 MLOAD DUP1 PUSH1 0x40 ADD PUSH1 0x40 MSTORE DUP1 PUSH1 0x4 DUP2 MSTORE PUSH1 0x20 ADD PUSH4 0x3078303 PUSH1 0xE4 SHL DUP2 MSTORE POP PUSH2 0x28FF JUMP JUMPDEST PUSH1 0x40 MLOAD DUP2 DUP2 MSTORE PUSH32 0x176B02BB2D12439FF7A20B59F402CCA16C76F50508B13EF3166A600EB719354A SWAP1 PUSH1 0x20 ADD PUSH1 0x40 MLOAD DUP1 SWAP2 SUB SWAP1 LOG1 PUSH1 0x9 SLOAD CALLER PUSH1 0x0 SWAP1 DUP2 MSTORE PUSH1 0xA PUSH1 0x20 MSTORE PUSH1 0x40 SWAP1 KECCAK256 SLOAD SUB PUSH2 0x141F JUMPI PUSH1 0x40 MLOAD CALLER DUP2 MSTORE PUSH32 0x2F790A6B5EF966385B6319409177A4905B3B4A53CFE5A807EF3B07A0A138BEF8 SWAP1 PUSH1 0x20 ADD PUSH1 0x40 MLOAD DUP1 SWAP2 SUB SWAP1 LOG1 JUMPDEST POP DUP1 PUSH2 0x142A DUP2 PUSH2 0x437A JUMP JUMPDEST SWAP2 POP POP PUSH2 0x1319 JUMP JUMPDEST POP POP JUMP JUMPDEST PUSH1 0x1 PUSH1 0x1 PUSH1 0xA0 SHL SUB DUP6 AND CALLER EQ DUP1 PUSH2 0x1452 JUMPI POP PUSH2 0x1452 DUP6 CALLER PUSH2 0x78E JUMP JUMPDEST PUSH2 0x146E JUMPI PUSH1 0x40 MLOAD PUSH3 0x461BCD PUSH1 0xE5 SHL DUP2 MSTORE PUSH1 0x4 ADD PUSH2 0x91B SWAP1 PUSH2 0x44E8 JUMP JUMPDEST PUSH2 0x147B DUP6 DUP6 DUP6 DUP6 DUP6 PUSH2 0x2A0A JUMP JUMPDEST POP POP POP POP POP JUMP JUMPDEST PUSH1 0xE SLOAD PUSH1 0x0 SUB PUSH2 0x14E2 JUMPI PUSH1 0x40 MLOAD PUSH3 0x461BCD PUSH1 0xE5 SHL DUP2 MSTORE PUSH1 0x20 PUSH1 0x4 DUP3 ADD MSTORE PUSH1 0x25 PUSH1 0x24 DUP3 ADD MSTORE PUSH32 0x526F756E642031207265776172647320686176656E2774206265656E2073656E PUSH1 0x44 DUP3 ADD MSTORE PUSH5 0x1D081E595D PUSH1 0xDA SHL PUSH1 0x64 DUP3 ADD MSTORE PUSH1 0x84 ADD PUSH2 0x91B JUMP JUMPDEST PUSH1 0xF SLOAD PUSH1 0x0 SUB PUSH2 0x1542 JUMPI PUSH1 0x40 MLOAD PUSH3 0x461BCD PUSH1 0xE5 SHL DUP2 MSTORE PUSH1 0x20 PUSH1 0x4 DUP3 ADD MSTORE PUSH1 0x25 PUSH1 0x24 DUP3 ADD MSTORE PUSH32 0x526F756E642032207265776172647320686176656E2774206265656E2073656E PUSH1 0x44 DUP3 ADD MSTORE PUSH5 0x1D081E595D PUSH1 0xDA SHL PUSH1 0x64 DUP3 ADD MSTORE PUSH1 0x84 ADD PUSH2 0x91B JUMP JUMPDEST PUSH1 0x10 SLOAD PUSH1 0x0 SUB PUSH2 0x15A2 JUMPI PUSH1 0x40 MLOAD PUSH3 0x461BCD PUSH1 0xE5 SHL DUP2 MSTORE PUSH1 0x20 PUSH1 0x4 DUP3 ADD MSTORE PUSH1 0x25 PUSH1 0x24 DUP3 ADD MSTORE PUSH32 0x526F756E642033207265776172647320686176656E2774206265656E2073656E PUSH1 0x44 DUP3 ADD MSTORE PUSH5 0x1D081E595D PUSH1 0xDA SHL PUSH1 0x64 DUP3 ADD MSTORE PUSH1 0x84 ADD PUSH2 0x91B JUMP JUMPDEST PUSH1 0x40 MLOAD CALLER SWAP1 SELFBALANCE DUP1 ISZERO PUSH2 0x8FC MUL SWAP2 PUSH1 0x0 DUP2 DUP2 DUP2 DUP6 DUP9 DUP9 CALL SWAP4 POP POP POP POP ISZERO DUP1 ISZERO PUSH2 0x15CE JUMPI RETURNDATASIZE PUSH1 0x0 DUP1 RETURNDATACOPY RETURNDATASIZE PUSH1 0x0 REVERT JUMPDEST POP PUSH1 0x40 MLOAD SELFBALANCE DUP2 MSTORE PUSH32 0x4E70A604B23A8EDEE2B1D0A656E9B9C00B73AD8BB1AFC2C59381EE9F69197DE7 SWAP1 PUSH1 0x20 ADD PUSH2 0xDF9 JUMP JUMPDEST PUSH1 0x0 PUSH2 0x160D DUP3 DUP5 ADD DUP5 PUSH2 0x3AB4 JUMP JUMPDEST SWAP1 POP DUP1 PUSH1 0x0 SUB PUSH2 0x1750 JUMPI PUSH1 0x0 PUSH1 0x3 SLOAD GT PUSH2 0x1639 JUMPI PUSH1 0x40 MLOAD PUSH3 0x461BCD PUSH1 0xE5 SHL DUP2 MSTORE PUSH1 0x4 ADD PUSH2 0x91B SWAP1 PUSH2 0x4443 JUMP JUMPDEST PUSH1 0x4 SLOAD PUSH1 0xFF AND ISZERO PUSH2 0x165C JUMPI PUSH1 0x40 MLOAD PUSH3 0x461BCD PUSH1 0xE5 SHL DUP2 MSTORE PUSH1 0x4 ADD PUSH2 0x91B SWAP1 PUSH2 0x4473 JUMP JUMPDEST PUSH1 0x2 PUSH1 0x3 SLOAD LT PUSH2 0x167E JUMPI PUSH1 0x40 MLOAD PUSH3 0x461BCD PUSH1 0xE5 SHL DUP2 MSTORE PUSH1 0x4 ADD PUSH2 0x91B SWAP1 PUSH2 0x4473 JUMP JUMPDEST PUSH1 0xB SLOAD PUSH1 0xC SLOAD LT PUSH2 0x16BC JUMPI PUSH1 0x40 MLOAD PUSH3 0x461BCD PUSH1 0xE5 SHL DUP2 MSTORE PUSH1 0x20 PUSH1 0x4 DUP3 ADD MSTORE PUSH1 0x8 PUSH1 0x24 DUP3 ADD MSTORE PUSH8 0x14DBDB19081BDD5D PUSH1 0xC2 SHL PUSH1 0x44 DUP3 ADD MSTORE PUSH1 0x64 ADD PUSH2 0x91B JUMP JUMPDEST PUSH1 0x4 SLOAD PUSH1 0x1 PUSH1 0xA8 SHL SWAP1 DIV PUSH1 0xFF AND ISZERO ISZERO PUSH1 0x1 EQ PUSH2 0x1710 JUMPI PUSH1 0x40 MLOAD PUSH3 0x461BCD PUSH1 0xE5 SHL DUP2 MSTORE PUSH1 0x20 PUSH1 0x4 DUP3 ADD MSTORE PUSH1 0x13 PUSH1 0x24 DUP3 ADD MSTORE PUSH19 0x139BC8185D5D1BC81B5A5B9D1CC81BDB8815D3 PUSH1 0x6A SHL PUSH1 0x44 DUP3 ADD MSTORE PUSH1 0x64 ADD PUSH2 0x91B JUMP JUMPDEST PUSH1 0x1D SLOAD PUSH1 0x0 DUP3 DUP2 MSTORE PUSH1 0x1E PUSH1 0x20 MSTORE PUSH1 0x40 SWAP1 KECCAK256 SLOAD PUSH2 0x172C SWAP1 TIMESTAMP PUSH2 0x4321 JUMP JUMPDEST GT ISZERO PUSH2 0x174B JUMPI PUSH1 0x0 DUP2 DUP2 MSTORE PUSH1 0x1E PUSH1 0x20 MSTORE PUSH1 0x40 SWAP1 KECCAK256 TIMESTAMP SWAP1 SSTORE PUSH2 0x174B PUSH2 0x2BA6 JUMP JUMPDEST POP POP POP JUMP JUMPDEST DUP1 PUSH1 0x1 SUB PUSH2 0x1879 JUMPI PUSH1 0x3 SLOAD PUSH1 0x2 EQ PUSH2 0x177A JUMPI PUSH1 0x40 MLOAD PUSH3 0x461BCD PUSH1 0xE5 SHL DUP2 MSTORE PUSH1 0x4 ADD PUSH2 0x91B SWAP1 PUSH2 0x429D JUMP JUMPDEST PUSH1 0x10 SLOAD ISZERO DUP1 PUSH2 0x1789 JUMPI POP PUSH1 0xF SLOAD ISZERO JUMPDEST DUP1 PUSH2 0x1794 JUMPI POP PUSH1 0xE SLOAD ISZERO JUMPDEST PUSH2 0x17DC JUMPI PUSH1 0x40 MLOAD PUSH3 0x461BCD PUSH1 0xE5 SHL DUP2 MSTORE PUSH1 0x20 PUSH1 0x4 DUP3 ADD MSTORE PUSH1 0x19 PUSH1 0x24 DUP3 ADD MSTORE PUSH25 0x131BDD1D195C9E481A185CC8185B1C9958591E48195B991959 PUSH1 0x3A SHL PUSH1 0x44 DUP3 ADD MSTORE PUSH1 0x64 ADD PUSH2 0x91B JUMP JUMPDEST PUSH1 0x0 PUSH1 0xD SLOAD GT PUSH2 0x17FE JUMPI PUSH1 0x40 MLOAD PUSH3 0x461BCD PUSH1 0xE5 SHL DUP2 MSTORE PUSH1 0x4 ADD PUSH2 0x91B SWAP1 PUSH2 0x42D4 JUMP JUMPDEST PUSH1 0xE PUSH1 0x1 PUSH1 0xD SLOAD PUSH2 0x180F SWAP2 SWAP1 PUSH2 0x4321 JUMP JUMPDEST PUSH1 0x3 DUP2 LT PUSH2 0x181F JUMPI PUSH2 0x181F PUSH2 0x4334 JUMP JUMPDEST ADD SLOAD ISZERO PUSH2 0x183E JUMPI PUSH1 0x40 MLOAD PUSH3 0x461BCD PUSH1 0xE5 SHL DUP2 MSTORE PUSH1 0x4 ADD PUSH2 0x91B SWAP1 PUSH2 0x434A JUMP JUMPDEST PUSH1 0x1D SLOAD PUSH1 0x0 DUP3 DUP2 MSTORE PUSH1 0x1E PUSH1 0x20 MSTORE PUSH1 0x40 SWAP1 KECCAK256 SLOAD PUSH2 0x185A SWAP1 TIMESTAMP PUSH2 0x4321 JUMP JUMPDEST GT ISZERO PUSH2 0x174B JUMPI PUSH1 0x0 DUP2 DUP2 MSTORE PUSH1 0x1E PUSH1 0x20 MSTORE PUSH1 0x40 SWAP1 KECCAK256 TIMESTAMP SWAP1 SSTORE PUSH2 0x174B PUSH2 0x2E10 JUMP JUMPDEST PUSH1 0x40 MLOAD PUSH3 0x461BCD PUSH1 0xE5 SHL DUP2 MSTORE PUSH1 0x20 PUSH1 0x4 DUP3 ADD MSTORE PUSH1 0xD PUSH1 0x24 DUP3 ADD MSTORE PUSH13 0x3BB937B733903A3934B3B3B2B9 PUSH1 0x99 SHL PUSH1 0x44 DUP3 ADD MSTORE PUSH1 0x64 ADD PUSH2 0x91B JUMP JUMPDEST PUSH1 0x5 DUP2 SWAP1 SSTORE PUSH1 0x40 MLOAD PUSH32 0xB45A2D75A069A081A15D17CF84E5F3D3F2CE4459D58662B63347594FBBA54884 SWAP1 PUSH1 0x0 SWAP1 LOG1 POP JUMP JUMPDEST PUSH1 0x60 DUP2 MLOAD DUP4 MLOAD EQ PUSH2 0x1947 JUMPI PUSH1 0x40 MLOAD PUSH3 0x461BCD PUSH1 0xE5 SHL DUP2 MSTORE PUSH1 0x20 PUSH1 0x4 DUP3 ADD MSTORE PUSH1 0x29 PUSH1 0x24 DUP3 ADD MSTORE PUSH32 0x455243313135353A206163636F756E747320616E6420696473206C656E677468 PUSH1 0x44 DUP3 ADD MSTORE PUSH9 0x40DAD2E6DAC2E8C6D PUSH1 0xBB SHL PUSH1 0x64 DUP3 ADD MSTORE PUSH1 0x84 ADD PUSH2 0x91B JUMP JUMPDEST PUSH1 0x0 DUP4 MLOAD PUSH1 0x1 PUSH1 0x1 PUSH1 0x40 SHL SUB DUP2 GT ISZERO PUSH2 0x1962 JUMPI PUSH2 0x1962 PUSH2 0x3B30 JUMP JUMPDEST PUSH1 0x40 MLOAD SWAP1 DUP1 DUP3 MSTORE DUP1 PUSH1 0x20 MUL PUSH1 0x20 ADD DUP3 ADD PUSH1 0x40 MSTORE DUP1 ISZERO PUSH2 0x198B JUMPI DUP2 PUSH1 0x20 ADD PUSH1 0x20 DUP3 MUL DUP1 CALLDATASIZE DUP4 CALLDATACOPY ADD SWAP1 POP JUMPDEST POP SWAP1 POP PUSH1 0x0 JUMPDEST DUP5 MLOAD DUP2 LT ISZERO PUSH2 0x1A03 JUMPI PUSH2 0x19D6 DUP6 DUP3 DUP2 MLOAD DUP2 LT PUSH2 0x19AF JUMPI PUSH2 0x19AF PUSH2 0x4334 JUMP JUMPDEST PUSH1 0x20 MUL PUSH1 0x20 ADD ADD MLOAD DUP6 DUP4 DUP2 MLOAD DUP2 LT PUSH2 0x19C9 JUMPI PUSH2 0x19C9 PUSH2 0x4334 JUMP JUMPDEST PUSH1 0x20 MUL PUSH1 0x20 ADD ADD MLOAD PUSH2 0x8B4 JUMP JUMPDEST DUP3 DUP3 DUP2 MLOAD DUP2 LT PUSH2 0x19E8 JUMPI PUSH2 0x19E8 PUSH2 0x4334 JUMP JUMPDEST PUSH1 0x20 SWAP1 DUP2 MUL SWAP2 SWAP1 SWAP2 ADD ADD MSTORE PUSH2 0x19FC DUP2 PUSH2 0x437A JUMP JUMPDEST SWAP1 POP PUSH2 0x1991 JUMP JUMPDEST POP SWAP4 SWAP3 POP POP POP JUMP JUMPDEST PUSH1 0x6 DUP2 PUSH1 0x2 DUP2 LT PUSH2 0x1112 JUMPI PUSH1 0x0 DUP1 REVERT JUMPDEST PUSH1 0x1 PUSH1 0x1 PUSH1 0xA0 SHL SUB DUP4 AND CALLER EQ DUP1 PUSH2 0x1A37 JUMPI POP PUSH2 0x1A37 DUP4 CALLER PUSH2 0x78E JUMP JUMPDEST PUSH2 0x1A53 JUMPI PUSH1 0x40 MLOAD PUSH3 0x461BCD PUSH1 0xE5 SHL DUP2 MSTORE PUSH1 0x4 ADD PUSH2 0x91B SWAP1 PUSH2 0x44E8 JUMP JUMPDEST PUSH2 0x174B DUP4 DUP4 DUP4 PUSH2 0x31A8 JUMP JUMPDEST PUSH1 0xF DUP2 GT ISZERO PUSH2 0x1AC0 JUMPI PUSH1 0x40 MLOAD PUSH3 0x461BCD PUSH1 0xE5 SHL DUP2 MSTORE PUSH1 0x20 PUSH1 0x4 DUP3 ADD MSTORE PUSH1 0x28 PUSH1 0x24 DUP3 ADD MSTORE PUSH32 0x457863656564732074686520616D6F756E74206F662067656E65726174656420 PUSH1 0x44 DUP3 ADD MSTORE PUSH8 0x7069637475726573 PUSH1 0xC0 SHL PUSH1 0x64 DUP3 ADD MSTORE PUSH1 0x84 ADD PUSH2 0x91B JUMP JUMPDEST PUSH1 0xB DUP2 SWAP1 SSTORE PUSH1 0x40 MLOAD DUP2 DUP2 MSTORE PUSH32 0xEA4BFEE7F9FB38136C61CC04B6E56EFC93EAF1BEEF326DBC47495B358385914C SWAP1 PUSH1 0x20 ADD PUSH2 0xC52 JUMP JUMPDEST PUSH1 0x0 PUSH1 0x60 DUP2 PUSH2 0x1B06 DUP5 DUP7 ADD DUP7 PUSH2 0x3AB4 JUMP JUMPDEST SWAP1 POP DUP1 PUSH1 0x0 SUB PUSH2 0x1BF0 JUMPI PUSH1 0x0 PUSH1 0x3 SLOAD GT PUSH2 0x1B32 JUMPI PUSH1 0x40 MLOAD PUSH3 0x461BCD PUSH1 0xE5 SHL DUP2 MSTORE PUSH1 0x4 ADD PUSH2 0x91B SWAP1 PUSH2 0x4443 JUMP JUMPDEST PUSH1 0x2 PUSH1 0x3 SLOAD LT PUSH2 0x1B54 JUMPI PUSH1 0x40 MLOAD PUSH3 0x461BCD PUSH1 0xE5 SHL DUP2 MSTORE PUSH1 0x4 ADD PUSH2 0x91B SWAP1 PUSH2 0x4473 JUMP JUMPDEST PUSH1 0xB SLOAD PUSH1 0xC SLOAD LT PUSH2 0x1B92 JUMPI PUSH1 0x40 MLOAD PUSH3 0x461BCD PUSH1 0xE5 SHL DUP2 MSTORE PUSH1 0x20 PUSH1 0x4 DUP3 ADD MSTORE PUSH1 0x8 PUSH1 0x24 DUP3 ADD MSTORE PUSH8 0x14DBDB19081BDD5D PUSH1 0xC2 SHL PUSH1 0x44 DUP3 ADD MSTORE PUSH1 0x64 ADD PUSH2 0x91B JUMP JUMPDEST PUSH1 0x1D SLOAD PUSH1 0x0 DUP3 DUP2 MSTORE PUSH1 0x1E PUSH1 0x20 MSTORE PUSH1 0x40 SWAP1 KECCAK256 SLOAD PUSH2 0x1BAE SWAP1 TIMESTAMP PUSH2 0x4321 JUMP JUMPDEST GT SWAP3 POP DUP5 DUP5 DUP1 DUP1 PUSH1 0x1F ADD PUSH1 0x20 DUP1 SWAP2 DIV MUL PUSH1 0x20 ADD PUSH1 0x40 MLOAD SWAP1 DUP2 ADD PUSH1 0x40 MSTORE DUP1 SWAP4 SWAP3 SWAP2 SWAP1 DUP2 DUP2 MSTORE PUSH1 0x20 ADD DUP4 DUP4 DUP1 DUP3 DUP5 CALLDATACOPY PUSH1 0x0 SWAP3 ADD SWAP2 SWAP1 SWAP2 MSTORE POP SWAP3 SWAP5 POP PUSH2 0x1CDE SWAP3 POP POP POP JUMP JUMPDEST DUP1 PUSH1 0x1 SUB PUSH2 0x1879 JUMPI PUSH1 0x3 SLOAD PUSH1 0x2 EQ PUSH2 0x1C1A JUMPI PUSH1 0x40 MLOAD PUSH3 0x461BCD PUSH1 0xE5 SHL DUP2 MSTORE PUSH1 0x4 ADD PUSH2 0x91B SWAP1 PUSH2 0x429D JUMP JUMPDEST PUSH1 0x10 SLOAD ISZERO DUP1 PUSH2 0x1C29 JUMPI POP PUSH1 0xF SLOAD ISZERO JUMPDEST DUP1 PUSH2 0x1C34 JUMPI POP PUSH1 0xE SLOAD ISZERO JUMPDEST PUSH2 0x1C7C JUMPI PUSH1 0x40 MLOAD PUSH3 0x461BCD PUSH1 0xE5 SHL DUP2 MSTORE PUSH1 0x20 PUSH1 0x4 DUP3 ADD MSTORE PUSH1 0x19 PUSH1 0x24 DUP3 ADD MSTORE PUSH25 0x131BDD1D195C9E481A185CC8185B1C9958591E48195B991959 PUSH1 0x3A SHL PUSH1 0x44 DUP3 ADD MSTORE PUSH1 0x64 ADD PUSH2 0x91B JUMP JUMPDEST PUSH1 0x0 PUSH1 0xD SLOAD GT PUSH2 0x1C9E JUMPI PUSH1 0x40 MLOAD PUSH3 0x461BCD PUSH1 0xE5 SHL DUP2 MSTORE PUSH1 0x4 ADD PUSH2 0x91B SWAP1 PUSH2 0x42D4 JUMP JUMPDEST PUSH1 0xE PUSH1 0x1 PUSH1 0xD SLOAD PUSH2 0x1CAF SWAP2 SWAP1 PUSH2 0x4321 JUMP JUMPDEST PUSH1 0x3 DUP2 LT PUSH2 0x1CBF JUMPI PUSH2 0x1CBF PUSH2 0x4334 JUMP JUMPDEST ADD SLOAD ISZERO PUSH2 0x1B92 JUMPI PUSH1 0x40 MLOAD PUSH3 0x461BCD PUSH1 0xE5 SHL DUP2 MSTORE PUSH1 0x4 ADD PUSH2 0x91B SWAP1 PUSH2 0x434A JUMP JUMPDEST POP SWAP3 POP SWAP3 SWAP1 POP JUMP JUMPDEST PUSH1 0x4 SLOAD PUSH1 0xFF AND ISZERO ISZERO PUSH1 0x1 EQ PUSH2 0x1D3D JUMPI PUSH1 0x40 MLOAD PUSH3 0x461BCD PUSH1 0xE5 SHL DUP2 MSTORE PUSH1 0x20 PUSH1 0x4 DUP3 ADD DUP2 SWAP1 MSTORE PUSH1 0x24 DUP3 ADD MSTORE PUSH32 0x546F6B656E7320686176656E2774206265656E2072657665616C656420796574 PUSH1 0x44 DUP3 ADD MSTORE PUSH1 0x64 ADD PUSH2 0x91B JUMP JUMPDEST PUSH1 0x2 PUSH1 0x3 SLOAD LT PUSH2 0x1D8F JUMPI PUSH1 0x40 MLOAD PUSH3 0x461BCD PUSH1 0xE5 SHL DUP2 MSTORE PUSH1 0x20 PUSH1 0x4 DUP3 ADD MSTORE PUSH1 0x18 PUSH1 0x24 DUP3 ADD MSTORE PUSH32 0x4C6F747465727920616C7265616479206C61756E636865640000000000000000 PUSH1 0x44 DUP3 ADD MSTORE PUSH1 0x64 ADD PUSH2 0x91B JUMP JUMPDEST PUSH2 0x1D97 PUSH2 0x3333 JUMP JUMPDEST PUSH1 0x2 PUSH1 0x3 SSTORE PUSH1 0x40 MLOAD PUSH1 0x4 DUP2 MSTORE PUSH1 0x0 DUP1 MLOAD PUSH1 0x20 PUSH2 0x48AA DUP4 CODECOPY DUP2 MLOAD SWAP2 MSTORE SWAP1 PUSH1 0x20 ADD PUSH2 0xDF9 JUMP JUMPDEST PUSH1 0x20 DUP2 ADD MLOAD DUP2 MLOAD GT ISZERO PUSH2 0x1E28 JUMPI PUSH1 0x40 MLOAD PUSH3 0x461BCD PUSH1 0xE5 SHL DUP2 MSTORE PUSH1 0x20 PUSH1 0x4 DUP3 ADD MSTORE PUSH1 0x2F PUSH1 0x24 DUP3 ADD MSTORE PUSH32 0x574C20746F6B656E206C696D69742063616E2774206265206869676865722074 PUSH1 0x44 DUP3 ADD MSTORE PUSH15 0x1A185B881D1BDD185B081B1A5B5A5D PUSH1 0x8A SHL PUSH1 0x64 DUP3 ADD MSTORE PUSH1 0x84 ADD PUSH2 0x91B JUMP JUMPDEST PUSH2 0x1E35 PUSH1 0x8 DUP3 PUSH1 0x2 PUSH2 0x394F JUMP JUMPDEST POP PUSH32 0x927023FD2C63ED386C84648D47B3A0C55AB81D380B25BA57912C54868F34A357 DUP2 PUSH1 0x40 MLOAD PUSH2 0xC52 SWAP2 SWAP1 PUSH2 0x4536 JUMP JUMPDEST PUSH1 0xE DUP2 PUSH1 0x3 DUP2 LT PUSH2 0x1112 JUMPI PUSH1 0x0 DUP1 REVERT JUMPDEST PUSH2 0x1432 CALLER DUP4 DUP4 PUSH2 0x3496 JUMP JUMPDEST PUSH1 0x60 DUP2 PUSH1 0x40 MLOAD PUSH1 0x20 ADD PUSH2 0xE2A SWAP2 DUP2 MSTORE PUSH1 0x20 ADD SWAP1 JUMP JUMPDEST PUSH1 0x19 DUP2 PUSH1 0x4 DUP2 LT PUSH2 0x1EA5 JUMPI PUSH1 0x0 DUP1 REVERT JUMPDEST ADD SLOAD PUSH1 0x1 PUSH1 0x1 PUSH1 0xA0 SHL SUB AND SWAP1 POP DUP2 JUMP JUMPDEST PUSH1 0x0 PUSH1 0x3 SLOAD GT PUSH2 0x1ED7 JUMPI PUSH1 0x40 MLOAD PUSH3 0x461BCD PUSH1 0xE5 SHL DUP2 MSTORE PUSH1 0x4 ADD PUSH2 0x91B SWAP1 PUSH2 0x4443 JUMP JUMPDEST PUSH1 0x2 PUSH1 0x3 SLOAD LT PUSH2 0x1EF9 JUMPI PUSH1 0x40 MLOAD PUSH3 0x461BCD PUSH1 0xE5 SHL DUP2 MSTORE PUSH1 0x4 ADD PUSH2 0x91B SWAP1 PUSH2 0x4473 JUMP JUMPDEST PUSH1 0x4 SLOAD PUSH1 0x1 PUSH1 0xA8 SHL SWAP1 DIV PUSH1 0xFF AND ISZERO PUSH2 0x1F53 JUMPI PUSH1 0x40 MLOAD PUSH3 0x461BCD PUSH1 0xE5 SHL DUP2 MSTORE PUSH1 0x20 PUSH1 0x4 DUP3 ADD DUP2 SWAP1 MSTORE PUSH1 0x24 DUP3 ADD MSTORE PUSH32 0x57686974654C697374204D696E742068617320616C726561647920656E646564 PUSH1 0x44 DUP3 ADD MSTORE PUSH1 0x64 ADD PUSH2 0x91B JUMP JUMPDEST PUSH1 0x40 MLOAD PUSH12 0xFFFFFFFFFFFFFFFFFFFFFFFF NOT CALLER PUSH1 0x60 SHL AND PUSH1 0x20 DUP3 ADD MSTORE PUSH2 0x1F92 SWAP1 DUP3 SWAP1 PUSH1 0x34 ADD PUSH1 0x40 MLOAD PUSH1 0x20 DUP2 DUP4 SUB SUB DUP2 MSTORE SWAP1 PUSH1 0x40 MSTORE DUP1 MLOAD SWAP1 PUSH1 0x20 ADD KECCAK256 PUSH2 0x3576 JUMP JUMPDEST PUSH2 0x1FDE JUMPI PUSH1 0x40 MLOAD PUSH3 0x461BCD PUSH1 0xE5 SHL DUP2 MSTORE PUSH1 0x20 PUSH1 0x4 DUP3 ADD MSTORE PUSH1 0x1A PUSH1 0x24 DUP3 ADD MSTORE PUSH32 0x596F75277265206E6F7420616C6C6F77656420746F206D696E74000000000000 PUSH1 0x44 DUP3 ADD MSTORE PUSH1 0x64 ADD PUSH2 0x91B JUMP JUMPDEST PUSH1 0xB SLOAD PUSH1 0xC SLOAD PUSH2 0x1FEF SWAP1 PUSH1 0x1 PUSH2 0x4393 JUMP JUMPDEST GT ISZERO PUSH2 0x200D JUMPI PUSH1 0x40 MLOAD PUSH3 0x461BCD PUSH1 0xE5 SHL DUP2 MSTORE PUSH1 0x4 ADD PUSH2 0x91B SWAP1 PUSH2 0x44A3 JUMP JUMPDEST PUSH1 0x8 SLOAD CALLER PUSH1 0x0 SWAP1 DUP2 MSTORE PUSH1 0xA PUSH1 0x20 MSTORE PUSH1 0x40 SWAP1 KECCAK256 SLOAD PUSH2 0x202B SWAP1 PUSH1 0x1 PUSH2 0x4393 JUMP JUMPDEST GT ISZERO PUSH2 0x2079 JUMPI PUSH1 0x40 MLOAD PUSH3 0x461BCD PUSH1 0xE5 SHL DUP2 MSTORE PUSH1 0x20 PUSH1 0x4 DUP3 ADD MSTORE PUSH1 0x1D PUSH1 0x24 DUP3 ADD MSTORE PUSH32 0x45786365656473206D617820746F6B656E73207065722077616C6C6574000000 PUSH1 0x44 DUP3 ADD MSTORE PUSH1 0x64 ADD PUSH2 0x91B JUMP JUMPDEST PUSH1 0x6 SLOAD CALLVALUE EQ PUSH2 0x20B8 JUMPI PUSH1 0x40 MLOAD PUSH3 0x461BCD PUSH1 0xE5 SHL DUP2 MSTORE PUSH1 0x20 PUSH1 0x4 DUP3 ADD MSTORE PUSH1 0xB PUSH1 0x24 DUP3 ADD MSTORE PUSH11 0x57726F6E67207072696365 PUSH1 0xA8 SHL PUSH1 0x44 DUP3 ADD MSTORE PUSH1 0x64 ADD PUSH2 0x91B JUMP JUMPDEST PUSH1 0x7 SLOAD PUSH1 0x11 DUP1 SLOAD PUSH1 0x0 SWAP1 PUSH2 0x20CD SWAP1 DUP5 SWAP1 PUSH2 0x4393 JUMP JUMPDEST SWAP1 SWAP2 SSTORE POP POP CALLER PUSH1 0x0 SWAP1 DUP2 MSTORE PUSH1 0xA PUSH1 0x20 MSTORE PUSH1 0x40 DUP2 KECCAK256 DUP1 SLOAD SWAP2 PUSH2 0x20ED DUP4 PUSH2 0x437A JUMP JUMPDEST SWAP1 SWAP2 SSTORE POP POP PUSH1 0xC DUP1 SLOAD SWAP1 PUSH1 0x0 PUSH2 0x2102 DUP4 PUSH2 0x437A JUMP JUMPDEST SWAP2 SWAP1 POP SSTORE POP PUSH1 0x0 PUSH1 0xC SLOAD SWAP1 POP PUSH2 0x2137 CALLER DUP3 PUSH1 0x1 PUSH1 0x40 MLOAD DUP1 PUSH1 0x40 ADD PUSH1 0x40 MSTORE DUP1 PUSH1 0x4 DUP2 MSTORE PUSH1 0x20 ADD PUSH4 0x3078303 PUSH1 0xE4 SHL DUP2 MSTORE POP PUSH2 0x28FF JUMP JUMPDEST PUSH1 0x40 MLOAD DUP2 DUP2 MSTORE PUSH32 0x176B02BB2D12439FF7A20B59F402CCA16C76F50508B13EF3166A600EB719354A SWAP1 PUSH1 0x20 ADD PUSH1 0x40 MLOAD DUP1 SWAP2 SUB SWAP1 LOG1 PUSH1 0x8 SLOAD CALLER PUSH1 0x0 SWAP1 DUP2 MSTORE PUSH1 0xA PUSH1 0x20 MSTORE PUSH1 0x40 SWAP1 KECCAK256 SLOAD SUB PUSH2 0x1432 JUMPI PUSH1 0x40 MLOAD CALLER DUP2 MSTORE PUSH32 0x2F790A6B5EF966385B6319409177A4905B3B4A53CFE5A807EF3B07A0A138BEF8 SWAP1 PUSH1 0x20 ADD JUMPDEST PUSH1 0x40 MLOAD DUP1 SWAP2 SUB SWAP1 LOG1 POP POP JUMP JUMPDEST PUSH1 0x0 PUSH1 0x3 SSTORE PUSH1 0x4 DUP1 SLOAD PUSH1 0xFF PUSH1 0xFF PUSH1 0xA8 SHL ADD NOT AND SWAP1 SSTORE PUSH1 0x40 DUP1 MLOAD DUP1 DUP3 ADD SWAP1 SWAP2 MSTORE PUSH8 0x16345785D8A0000 DUP2 MSTORE PUSH8 0x2C68AF0BB140000 PUSH1 0x20 DUP3 ADD MSTORE PUSH2 0x2200 SWAP1 PUSH1 0x6 SWAP1 PUSH1 0x2 PUSH2 0x398D JUMP JUMPDEST POP PUSH1 0x40 DUP1 MLOAD DUP1 DUP3 ADD SWAP1 SWAP2 MSTORE PUSH1 0x1 DUP2 MSTORE PUSH1 0x3 PUSH1 0x20 DUP3 ADD MSTORE PUSH2 0x2224 SWAP1 PUSH1 0x8 SWAP1 PUSH1 0x2 PUSH2 0x39C6 JUMP JUMPDEST POP PUSH1 0xF PUSH1 0xB SSTORE PUSH1 0x0 PUSH1 0xC DUP2 SWAP1 SSTORE PUSH1 0xD DUP2 SWAP1 SSTORE PUSH1 0x40 DUP1 MLOAD PUSH1 0x60 DUP2 ADD DUP3 MSTORE DUP3 DUP2 MSTORE PUSH1 0x20 DUP2 ADD DUP4 SWAP1 MSTORE SWAP1 DUP2 ADD SWAP2 SWAP1 SWAP2 MSTORE PUSH2 0x225F SWAP1 PUSH1 0x12 SWAP1 PUSH1 0x3 PUSH2 0x39F9 JUMP JUMPDEST POP PUSH1 0x0 PUSH1 0x15 DUP2 SWAP1 SSTORE PUSH1 0x40 DUP1 MLOAD PUSH1 0x60 DUP2 ADD DUP3 MSTORE DUP3 DUP2 MSTORE PUSH1 0x20 DUP2 ADD DUP4 SWAP1 MSTORE SWAP1 DUP2 ADD SWAP2 SWAP1 SWAP2 MSTORE PUSH2 0x2290 SWAP1 PUSH1 0xE SWAP1 PUSH1 0x3 PUSH2 0x39F9 JUMP JUMPDEST POP PUSH1 0x0 PUSH1 0x16 DUP2 SWAP1 SSTORE JUMPDEST DUP3 MLOAD DUP2 LT ISZERO PUSH2 0x22F9 JUMPI PUSH1 0x0 PUSH1 0xA PUSH1 0x0 DUP6 DUP5 DUP2 MLOAD DUP2 LT PUSH2 0x22BA JUMPI PUSH2 0x22BA PUSH2 0x4334 JUMP JUMPDEST PUSH1 0x20 MUL PUSH1 0x20 ADD ADD MLOAD PUSH1 0x1 PUSH1 0x1 PUSH1 0xA0 SHL SUB AND PUSH1 0x1 PUSH1 0x1 PUSH1 0xA0 SHL SUB AND DUP2 MSTORE PUSH1 0x20 ADD SWAP1 DUP2 MSTORE PUSH1 0x20 ADD PUSH1 0x0 KECCAK256 DUP2 SWAP1 SSTORE POP DUP1 DUP1 PUSH2 0x22F1 SWAP1 PUSH2 0x437A JUMP JUMPDEST SWAP2 POP POP PUSH2 0x2299 JUMP JUMPDEST POP PUSH1 0x0 JUMPDEST DUP3 MLOAD DUP2 LT ISZERO PUSH2 0x2395 JUMPI PUSH1 0x0 DUP3 DUP3 DUP2 MLOAD DUP2 LT PUSH2 0x231A JUMPI PUSH2 0x231A PUSH2 0x4334 JUMP JUMPDEST PUSH1 0x20 MUL PUSH1 0x20 ADD ADD MLOAD SWAP1 POP PUSH1 0x0 JUMPDEST DUP2 MLOAD DUP2 LT ISZERO PUSH2 0x2380 JUMPI PUSH2 0x236E DUP6 DUP5 DUP2 MLOAD DUP2 LT PUSH2 0x2345 JUMPI PUSH2 0x2345 PUSH2 0x4334 JUMP JUMPDEST PUSH1 0x20 MUL PUSH1 0x20 ADD ADD MLOAD DUP4 DUP4 DUP2 MLOAD DUP2 LT PUSH2 0x235F JUMPI PUSH2 0x235F PUSH2 0x4334 JUMP JUMPDEST PUSH1 0x20 MUL PUSH1 0x20 ADD ADD MLOAD PUSH1 0x1 PUSH2 0x263A JUMP JUMPDEST DUP1 PUSH2 0x2378 DUP2 PUSH2 0x437A JUMP JUMPDEST SWAP2 POP POP PUSH2 0x2327 JUMP JUMPDEST POP POP DUP1 DUP1 PUSH2 0x238D SWAP1 PUSH2 0x437A JUMP JUMPDEST SWAP2 POP POP PUSH2 0x22FD JUMP JUMPDEST POP PUSH1 0x4 SLOAD PUSH2 0x23BC SWAP1 PUSH2 0x100 SWAP1 DIV PUSH1 0x1 PUSH1 0x1 PUSH1 0xA0 SHL SUB AND PUSH1 0x10 PUSH2 0x23B7 DUP3 DUP3 PUSH2 0x8B4 JUMP JUMPDEST PUSH2 0x263A JUMP JUMPDEST PUSH2 0x23EF PUSH1 0x4 PUSH1 0x1 SWAP1 SLOAD SWAP1 PUSH2 0x100 EXP SWAP1 DIV PUSH1 0x1 PUSH1 0x1 PUSH1 0xA0 SHL SUB AND PUSH1 0x10 PUSH1 0xB SLOAD PUSH1 0x40 MLOAD DUP1 PUSH1 0x20 ADD PUSH1 0x40 MSTORE DUP1 PUSH1 0x0 DUP2 MSTORE POP PUSH2 0x28FF JUMP JUMPDEST PUSH1 0x40 MLOAD PUSH32 0x6423DB340205C829EEB91151B1C5D1DC6D7A2B8708B1621494E89BA90C87081E SWAP1 PUSH1 0x0 SWAP1 LOG1 POP POP JUMP JUMPDEST PUSH1 0x1 PUSH1 0x1 PUSH1 0xA0 SHL SUB DUP6 AND CALLER EQ DUP1 PUSH2 0x2438 JUMPI POP PUSH2 0x2438 DUP6 CALLER PUSH2 0x78E JUMP JUMPDEST PUSH2 0x2454 JUMPI PUSH1 0x40 MLOAD PUSH3 0x461BCD PUSH1 0xE5 SHL DUP2 MSTORE PUSH1 0x4 ADD PUSH2 0x91B SWAP1 PUSH2 0x44E8 JUMP JUMPDEST PUSH2 0x147B DUP6 DUP6 DUP6 DUP6 DUP6 PUSH2 0x2743 JUMP JUMPDEST PUSH1 0x12 DUP2 PUSH1 0x3 DUP2 LT PUSH2 0x1112 JUMPI PUSH1 0x0 DUP1 REVERT JUMPDEST PUSH1 0x1 PUSH1 0x1 PUSH1 0xA0 SHL SUB DUP4 AND CALLER EQ DUP1 PUSH2 0x248D JUMPI POP PUSH2 0x248D DUP4 CALLER PUSH2 0x78E JUMP JUMPDEST PUSH2 0x24A9 JUMPI PUSH1 0x40 MLOAD PUSH3 0x461BCD PUSH1 0xE5 SHL DUP2 MSTORE PUSH1 0x4 ADD PUSH2 0x91B SWAP1 PUSH2 0x44E8 JUMP JUMPDEST PUSH2 0x174B DUP4 DUP4 DUP4 PUSH2 0x263A JUMP JUMPDEST PUSH1 0x3 SLOAD PUSH1 0x1 EQ PUSH2 0x24F8 JUMPI PUSH1 0x40 MLOAD PUSH3 0x461BCD PUSH1 0xE5 SHL DUP2 MSTORE PUSH1 0x20 PUSH1 0x4 DUP3 ADD MSTORE PUSH1 0xF PUSH1 0x24 DUP3 ADD MSTORE PUSH15 0x139BC81BDB99DBDA5B99C81B5A5B9D PUSH1 0x8A SHL PUSH1 0x44 DUP3 ADD MSTORE PUSH1 0x64 ADD PUSH2 0x91B JUMP JUMPDEST PUSH1 0x4 SLOAD PUSH1 0x1 PUSH1 0xA8 SHL SWAP1 DIV PUSH1 0xFF AND ISZERO PUSH2 0x2552 JUMPI PUSH1 0x40 MLOAD PUSH3 0x461BCD PUSH1 0xE5 SHL DUP2 MSTORE PUSH1 0x20 PUSH1 0x4 DUP3 ADD MSTORE PUSH1 0x1C PUSH1 0x24 DUP3 ADD MSTORE PUSH32 0x5075626C6963206D696E7420616C7265616479206C61756E6368656400000000 PUSH1 0x44 DUP3 ADD MSTORE PUSH1 0x64 ADD PUSH2 0x91B JUMP JUMPDEST PUSH1 0x4 DUP1 SLOAD PUSH1 0xFF PUSH1 0xA8 SHL NOT AND PUSH1 0x1 PUSH1 0xA8 SHL OR SWAP1 SSTORE PUSH1 0x40 MLOAD PUSH1 0x0 DUP1 MLOAD PUSH1 0x20 PUSH2 0x48AA DUP4 CODECOPY DUP2 MLOAD SWAP2 MSTORE SWAP1 PUSH2 0xDF9 SWAP1 PUSH1 0x2 DUP2 MSTORE PUSH1 0x20 ADD SWAP1 JUMP JUMPDEST PUSH1 0x20 DUP2 ADD MLOAD DUP2 MLOAD GT ISZERO PUSH2 0x25EE JUMPI PUSH1 0x40 MLOAD PUSH3 0x461BCD PUSH1 0xE5 SHL DUP2 MSTORE PUSH1 0x20 PUSH1 0x4 DUP3 ADD MSTORE PUSH1 0x2A PUSH1 0x24 DUP3 ADD MSTORE PUSH32 0x574C2070726963652063616E277420626520686967686572207468616E207075 PUSH1 0x44 DUP3 ADD MSTORE PUSH10 0x626C6963207072696365 PUSH1 0xB0 SHL PUSH1 0x64 DUP3 ADD MSTORE PUSH1 0x84 ADD PUSH2 0x91B JUMP JUMPDEST PUSH2 0x25FB PUSH1 0x6 DUP3 PUSH1 0x2 PUSH2 0x394F JUMP JUMPDEST POP PUSH32 0x1E4D4EE348EEF514E8A03BCC5C0A93771F1E76548C5FB363BE0FCC1F5620DD2 DUP2 PUSH1 0x40 MLOAD PUSH2 0xC52 SWAP2 SWAP1 PUSH2 0x4536 JUMP JUMPDEST PUSH1 0x1 PUSH1 0x1 PUSH1 0xA0 SHL SUB AND EXTCODESIZE ISZERO ISZERO SWAP1 JUMP JUMPDEST PUSH1 0x1 PUSH1 0x1 PUSH1 0xA0 SHL SUB DUP4 AND PUSH2 0x2660 JUMPI PUSH1 0x40 MLOAD PUSH3 0x461BCD PUSH1 0xE5 SHL DUP2 MSTORE PUSH1 0x4 ADD PUSH2 0x91B SWAP1 PUSH2 0x4567 JUMP JUMPDEST CALLER PUSH1 0x0 PUSH2 0x266C DUP5 PUSH2 0x358C JUMP JUMPDEST SWAP1 POP PUSH1 0x0 PUSH2 0x2679 DUP5 PUSH2 0x358C JUMP JUMPDEST PUSH1 0x40 DUP1 MLOAD PUSH1 0x20 DUP1 DUP3 ADD DUP4 MSTORE PUSH1 0x0 SWAP2 DUP3 SWAP1 MSTORE DUP9 DUP3 MSTORE DUP2 DUP2 MSTORE DUP3 DUP3 KECCAK256 PUSH1 0x1 PUSH1 0x1 PUSH1 0xA0 SHL SUB DUP12 AND DUP4 MSTORE SWAP1 MSTORE KECCAK256 SLOAD SWAP1 SWAP2 POP DUP5 DUP2 LT ISZERO PUSH2 0x26C6 JUMPI PUSH1 0x40 MLOAD PUSH3 0x461BCD PUSH1 0xE5 SHL DUP2 MSTORE PUSH1 0x4 ADD PUSH2 0x91B SWAP1 PUSH2 0x45AA JUMP JUMPDEST PUSH1 0x0 DUP7 DUP2 MSTORE PUSH1 0x20 DUP2 DUP2 MSTORE PUSH1 0x40 DUP1 DUP4 KECCAK256 PUSH1 0x1 PUSH1 0x1 PUSH1 0xA0 SHL SUB DUP12 DUP2 AND DUP1 DUP7 MSTORE SWAP2 DUP5 MSTORE DUP3 DUP6 KECCAK256 DUP11 DUP8 SUB SWAP1 SSTORE DUP3 MLOAD DUP12 DUP2 MSTORE SWAP4 DUP5 ADD DUP11 SWAP1 MSTORE SWAP1 SWAP3 SWAP1 DUP9 AND SWAP2 PUSH32 0xC3D58168C5AE7397731D063D5BBF3D657854427343F4C083240F7AACAA2D0F62 SWAP2 ADD PUSH1 0x40 MLOAD DUP1 SWAP2 SUB SWAP1 LOG4 PUSH1 0x40 DUP1 MLOAD PUSH1 0x20 DUP2 ADD SWAP1 SWAP2 MSTORE PUSH1 0x0 SWAP1 MSTORE JUMPDEST POP POP POP POP POP POP POP JUMP JUMPDEST PUSH1 0x1 PUSH1 0x1 PUSH1 0xA0 SHL SUB DUP5 AND PUSH2 0x2769 JUMPI PUSH1 0x40 MLOAD PUSH3 0x461BCD PUSH1 0xE5 SHL DUP2 MSTORE PUSH1 0x4 ADD PUSH2 0x91B SWAP1 PUSH2 0x45EE JUMP JUMPDEST CALLER PUSH1 0x0 PUSH2 0x2775 DUP6 PUSH2 0x358C JUMP JUMPDEST SWAP1 POP PUSH1 0x0 PUSH2 0x2782 DUP6 PUSH2 0x358C JUMP JUMPDEST SWAP1 POP PUSH1 0x0 DUP7 DUP2 MSTORE PUSH1 0x20 DUP2 DUP2 MSTORE PUSH1 0x40 DUP1 DUP4 KECCAK256 PUSH1 0x1 PUSH1 0x1 PUSH1 0xA0 SHL SUB DUP13 AND DUP5 MSTORE SWAP1 SWAP2 MSTORE SWAP1 KECCAK256 SLOAD DUP6 DUP2 LT ISZERO PUSH2 0x27C5 JUMPI PUSH1 0x40 MLOAD PUSH3 0x461BCD PUSH1 0xE5 SHL DUP2 MSTORE PUSH1 0x4 ADD PUSH2 0x91B SWAP1 PUSH2 0x4633 JUMP JUMPDEST PUSH1 0x0 DUP8 DUP2 MSTORE PUSH1 0x20 DUP2 DUP2 MSTORE PUSH1 0x40 DUP1 DUP4 KECCAK256 PUSH1 0x1 PUSH1 0x1 PUSH1 0xA0 SHL SUB DUP14 DUP2 AND DUP6 MSTORE SWAP3 MSTORE DUP1 DUP4 KECCAK256 DUP10 DUP6 SUB SWAP1 SSTORE SWAP1 DUP11 AND DUP3 MSTORE DUP2 KECCAK256 DUP1 SLOAD DUP9 SWAP3 SWAP1 PUSH2 0x2802 SWAP1 DUP5 SWAP1 PUSH2 0x4393 JUMP JUMPDEST SWAP1 SWAP2 SSTORE POP POP PUSH1 0x40 DUP1 MLOAD DUP9 DUP2 MSTORE PUSH1 0x20 DUP2 ADD DUP9 SWAP1 MSTORE PUSH1 0x1 PUSH1 0x1 PUSH1 0xA0 SHL SUB DUP1 DUP12 AND SWAP3 DUP13 DUP3 AND SWAP3 SWAP2 DUP9 AND SWAP2 PUSH32 0xC3D58168C5AE7397731D063D5BBF3D657854427343F4C083240F7AACAA2D0F62 SWAP2 ADD PUSH1 0x40 MLOAD DUP1 SWAP2 SUB SWAP1 LOG4 PUSH2 0x2862 DUP5 DUP11 DUP11 DUP11 DUP11 DUP11 PUSH2 0x35D7 JUMP JUMPDEST POP POP POP POP POP POP POP POP POP JUMP JUMPDEST PUSH1 0x60 PUSH1 0x0 PUSH2 0x287A DUP4 PUSH2 0x3732 JUMP JUMPDEST PUSH1 0x1 ADD SWAP1 POP PUSH1 0x0 DUP2 PUSH1 0x1 PUSH1 0x1 PUSH1 0x40 SHL SUB DUP2 GT ISZERO PUSH2 0x2899 JUMPI PUSH2 0x2899 PUSH2 0x3B30 JUMP JUMPDEST PUSH1 0x40 MLOAD SWAP1 DUP1 DUP3 MSTORE DUP1 PUSH1 0x1F ADD PUSH1 0x1F NOT AND PUSH1 0x20 ADD DUP3 ADD PUSH1 0x40 MSTORE DUP1 ISZERO PUSH2 0x28C3 JUMPI PUSH1 0x20 DUP3 ADD DUP2 DUP1 CALLDATASIZE DUP4 CALLDATACOPY ADD SWAP1 POP JUMPDEST POP SWAP1 POP DUP2 DUP2 ADD PUSH1 0x20 ADD JUMPDEST PUSH1 0x0 NOT ADD PUSH16 0x181899199A1A9B1B9C1CB0B131B232B3 PUSH1 0x81 SHL PUSH1 0xA DUP7 MOD BYTE DUP2 MSTORE8 PUSH1 0xA DUP6 DIV SWAP5 POP DUP5 PUSH2 0x28CD JUMPI POP SWAP4 SWAP3 POP POP POP JUMP JUMPDEST PUSH1 0x1 PUSH1 0x1 PUSH1 0xA0 SHL SUB DUP5 AND PUSH2 0x295F JUMPI PUSH1 0x40 MLOAD PUSH3 0x461BCD PUSH1 0xE5 SHL DUP2 MSTORE PUSH1 0x20 PUSH1 0x4 DUP3 ADD MSTORE PUSH1 0x21 PUSH1 0x24 DUP3 ADD MSTORE PUSH32 0x455243313135353A206D696E7420746F20746865207A65726F20616464726573 PUSH1 0x44 DUP3 ADD MSTORE PUSH1 0x73 PUSH1 0xF8 SHL PUSH1 0x64 DUP3 ADD MSTORE PUSH1 0x84 ADD PUSH2 0x91B JUMP JUMPDEST CALLER PUSH1 0x0 PUSH2 0x296B DUP6 PUSH2 0x358C JUMP JUMPDEST SWAP1 POP PUSH1 0x0 PUSH2 0x2978 DUP6 PUSH2 0x358C JUMP JUMPDEST SWAP1 POP PUSH1 0x0 DUP7 DUP2 MSTORE PUSH1 0x20 DUP2 DUP2 MSTORE PUSH1 0x40 DUP1 DUP4 KECCAK256 PUSH1 0x1 PUSH1 0x1 PUSH1 0xA0 SHL SUB DUP12 AND DUP5 MSTORE SWAP1 SWAP2 MSTORE DUP2 KECCAK256 DUP1 SLOAD DUP8 SWAP3 SWAP1 PUSH2 0x29AA SWAP1 DUP5 SWAP1 PUSH2 0x4393 JUMP JUMPDEST SWAP1 SWAP2 SSTORE POP POP PUSH1 0x40 DUP1 MLOAD DUP8 DUP2 MSTORE PUSH1 0x20 DUP2 ADD DUP8 SWAP1 MSTORE PUSH1 0x1 PUSH1 0x1 PUSH1 0xA0 SHL SUB DUP1 DUP11 AND SWAP3 PUSH1 0x0 SWAP3 SWAP2 DUP8 AND SWAP2 PUSH32 0xC3D58168C5AE7397731D063D5BBF3D657854427343F4C083240F7AACAA2D0F62 SWAP2 ADD PUSH1 0x40 MLOAD DUP1 SWAP2 SUB SWAP1 LOG4 PUSH2 0x273A DUP4 PUSH1 0x0 DUP10 DUP10 DUP10 DUP10 PUSH2 0x35D7 JUMP JUMPDEST DUP2 MLOAD DUP4 MLOAD EQ PUSH2 0x2A2B JUMPI PUSH1 0x40 MLOAD PUSH3 0x461BCD PUSH1 0xE5 SHL DUP2 MSTORE PUSH1 0x4 ADD PUSH2 0x91B SWAP1 PUSH2 0x467D JUMP JUMPDEST PUSH1 0x1 PUSH1 0x1 PUSH1 0xA0 SHL SUB DUP5 AND PUSH2 0x2A51 JUMPI PUSH1 0x40 MLOAD PUSH3 0x461BCD PUSH1 0xE5 SHL DUP2 MSTORE PUSH1 0x4 ADD PUSH2 0x91B SWAP1 PUSH2 0x45EE JUMP JUMPDEST CALLER PUSH1 0x0 JUMPDEST DUP5 MLOAD DUP2 LT ISZERO PUSH2 0x2B38 JUMPI PUSH1 0x0 DUP6 DUP3 DUP2 MLOAD DUP2 LT PUSH2 0x2A72 JUMPI PUSH2 0x2A72 PUSH2 0x4334 JUMP JUMPDEST PUSH1 0x20 MUL PUSH1 0x20 ADD ADD MLOAD SWAP1 POP PUSH1 0x0 DUP6 DUP4 DUP2 MLOAD DUP2 LT PUSH2 0x2A90 JUMPI PUSH2 0x2A90 PUSH2 0x4334 JUMP JUMPDEST PUSH1 0x20 SWAP1 DUP2 MUL SWAP2 SWAP1 SWAP2 ADD DUP2 ADD MLOAD PUSH1 0x0 DUP5 DUP2 MSTORE DUP1 DUP4 MSTORE PUSH1 0x40 DUP1 DUP3 KECCAK256 PUSH1 0x1 PUSH1 0x1 PUSH1 0xA0 SHL SUB DUP15 AND DUP4 MSTORE SWAP1 SWAP4 MSTORE SWAP2 SWAP1 SWAP2 KECCAK256 SLOAD SWAP1 SWAP2 POP DUP2 DUP2 LT ISZERO PUSH2 0x2AE0 JUMPI PUSH1 0x40 MLOAD PUSH3 0x461BCD PUSH1 0xE5 SHL DUP2 MSTORE PUSH1 0x4 ADD PUSH2 0x91B SWAP1 PUSH2 0x4633 JUMP JUMPDEST PUSH1 0x0 DUP4 DUP2 MSTORE PUSH1 0x20 DUP2 DUP2 MSTORE PUSH1 0x40 DUP1 DUP4 KECCAK256 PUSH1 0x1 PUSH1 0x1 PUSH1 0xA0 SHL SUB DUP15 DUP2 AND DUP6 MSTORE SWAP3 MSTORE DUP1 DUP4 KECCAK256 DUP6 DUP6 SUB SWAP1 SSTORE SWAP1 DUP12 AND DUP3 MSTORE DUP2 KECCAK256 DUP1 SLOAD DUP5 SWAP3 SWAP1 PUSH2 0x2B1D SWAP1 DUP5 SWAP1 PUSH2 0x4393 JUMP JUMPDEST SWAP3 POP POP DUP2 SWAP1 SSTORE POP POP POP POP DUP1 PUSH2 0x2B31 SWAP1 PUSH2 0x437A JUMP JUMPDEST SWAP1 POP PUSH2 0x2A55 JUMP JUMPDEST POP DUP5 PUSH1 0x1 PUSH1 0x1 PUSH1 0xA0 SHL SUB AND DUP7 PUSH1 0x1 PUSH1 0x1 PUSH1 0xA0 SHL SUB AND DUP3 PUSH1 0x1 PUSH1 0x1 PUSH1 0xA0 SHL SUB AND PUSH32 0x4A39DC06D4C0DBC64B70AF90FD698A233A518AA5D07E595D983B8C0526C8F7FB DUP8 DUP8 PUSH1 0x40 MLOAD PUSH2 0x2B88 SWAP3 SWAP2 SWAP1 PUSH2 0x46C5 JUMP JUMPDEST PUSH1 0x40 MLOAD DUP1 SWAP2 SUB SWAP1 LOG4 PUSH2 0x2B9E DUP2 DUP8 DUP8 DUP8 DUP8 DUP8 PUSH2 0x380A JUMP JUMPDEST POP POP POP POP POP POP JUMP JUMPDEST PUSH1 0x0 PUSH1 0x3 SLOAD GT PUSH2 0x2BC8 JUMPI PUSH1 0x40 MLOAD PUSH3 0x461BCD PUSH1 0xE5 SHL DUP2 MSTORE PUSH1 0x4 ADD PUSH2 0x91B SWAP1 PUSH2 0x4443 JUMP JUMPDEST PUSH1 0x2 PUSH1 0x3 SLOAD LT PUSH2 0x2BEA JUMPI PUSH1 0x40 MLOAD PUSH3 0x461BCD PUSH1 0xE5 SHL DUP2 MSTORE PUSH1 0x4 ADD PUSH2 0x91B SWAP1 PUSH2 0x4473 JUMP JUMPDEST PUSH1 0xB SLOAD PUSH1 0xC SLOAD PUSH2 0x2BFB SWAP1 PUSH1 0x1 PUSH2 0x4393 JUMP JUMPDEST GT ISZERO PUSH2 0x2C19 JUMPI PUSH1 0x40 MLOAD PUSH3 0x461BCD PUSH1 0xE5 SHL DUP2 MSTORE PUSH1 0x4 ADD PUSH2 0x91B SWAP1 PUSH2 0x44A3 JUMP JUMPDEST PUSH1 0x0 DUP1 JUMPDEST PUSH1 0x4 DUP2 LT ISZERO PUSH2 0x2C98 JUMPI PUSH1 0x19 DUP2 PUSH1 0x4 DUP2 LT PUSH2 0x2C39 JUMPI PUSH2 0x2C39 PUSH2 0x4334 JUMP JUMPDEST ADD SLOAD PUSH1 0x9 SLOAD PUSH1 0x1 PUSH1 0x1 PUSH1 0xA0 SHL SUB SWAP1 SWAP2 AND PUSH1 0x0 DUP2 DUP2 MSTORE PUSH1 0xA PUSH1 0x20 MSTORE PUSH1 0x40 SWAP1 KECCAK256 SLOAD SWAP1 SWAP4 POP LT ISZERO PUSH2 0x2C86 JUMPI PUSH1 0x19 DUP2 PUSH1 0x4 DUP2 LT PUSH2 0x2C74 JUMPI PUSH2 0x2C74 PUSH2 0x4334 JUMP JUMPDEST ADD SLOAD PUSH1 0x1 PUSH1 0x1 PUSH1 0xA0 SHL SUB AND SWAP2 POP PUSH2 0x2C98 JUMP JUMPDEST DUP1 PUSH2 0x2C90 DUP2 PUSH2 0x437A JUMP JUMPDEST SWAP2 POP POP PUSH2 0x2C1D JUMP JUMPDEST POP PUSH1 0x9 SLOAD PUSH1 0x1 PUSH1 0x1 PUSH1 0xA0 SHL SUB DUP3 AND PUSH1 0x0 SWAP1 DUP2 MSTORE PUSH1 0xA PUSH1 0x20 MSTORE PUSH1 0x40 SWAP1 KECCAK256 SLOAD LT PUSH2 0x2CFB JUMPI PUSH1 0x40 MLOAD PUSH3 0x461BCD PUSH1 0xE5 SHL DUP2 MSTORE PUSH1 0x20 PUSH1 0x4 DUP3 ADD MSTORE PUSH1 0x16 PUSH1 0x24 DUP3 ADD MSTORE PUSH22 0x115E18D959591CC81B585E081C195C881DD85B1B195D PUSH1 0x52 SHL PUSH1 0x44 DUP3 ADD MSTORE PUSH1 0x64 ADD PUSH2 0x91B JUMP JUMPDEST PUSH1 0x7 SLOAD PUSH1 0x11 DUP1 SLOAD PUSH1 0x0 SWAP1 PUSH2 0x2D10 SWAP1 DUP5 SWAP1 PUSH2 0x4393 JUMP JUMPDEST SWAP1 SWAP2 SSTORE POP POP PUSH1 0x1 PUSH1 0x1 PUSH1 0xA0 SHL SUB DUP2 AND PUSH1 0x0 SWAP1 DUP2 MSTORE PUSH1 0xA PUSH1 0x20 MSTORE PUSH1 0x40 DUP2 KECCAK256 DUP1 SLOAD SWAP2 PUSH2 0x2D39 DUP4 PUSH2 0x437A JUMP JUMPDEST SWAP1 SWAP2 SSTORE POP POP PUSH1 0xC DUP1 SLOAD SWAP1 PUSH1 0x0 PUSH2 0x2D4E DUP4 PUSH2 0x437A JUMP JUMPDEST SWAP2 SWAP1 POP SSTORE POP PUSH1 0x0 PUSH1 0xC SLOAD SWAP1 POP PUSH2 0x2D83 DUP3 DUP3 PUSH1 0x1 PUSH1 0x40 MLOAD DUP1 PUSH1 0x40 ADD PUSH1 0x40 MSTORE DUP1 PUSH1 0x4 DUP2 MSTORE PUSH1 0x20 ADD PUSH4 0x3078303 PUSH1 0xE4 SHL DUP2 MSTORE POP PUSH2 0x28FF JUMP JUMPDEST PUSH1 0x40 MLOAD DUP2 DUP2 MSTORE PUSH32 0x176B02BB2D12439FF7A20B59F402CCA16C76F50508B13EF3166A600EB719354A SWAP1 PUSH1 0x20 ADD PUSH1 0x40 MLOAD DUP1 SWAP2 SUB SWAP1 LOG1 PUSH1 0x9 SLOAD PUSH1 0x1 PUSH1 0x1 PUSH1 0xA0 SHL SUB DUP4 AND PUSH1 0x0 SWAP1 DUP2 MSTORE PUSH1 0xA PUSH1 0x20 MSTORE PUSH1 0x40 SWAP1 KECCAK256 SLOAD SUB PUSH2 0x1432 JUMPI PUSH1 0x40 MLOAD PUSH1 0x1 PUSH1 0x1 PUSH1 0xA0 SHL SUB DUP4 AND DUP2 MSTORE PUSH32 0x2F790A6B5EF966385B6319409177A4905B3B4A53CFE5A807EF3B07A0A138BEF8 SWAP1 PUSH1 0x20 ADD PUSH2 0x21AE JUMP JUMPDEST PUSH1 0x3 SLOAD PUSH1 0x2 EQ PUSH2 0x2E32 JUMPI PUSH1 0x40 MLOAD PUSH3 0x461BCD PUSH1 0xE5 SHL DUP2 MSTORE PUSH1 0x4 ADD PUSH2 0x91B SWAP1 PUSH2 0x429D JUMP JUMPDEST PUSH1 0x0 PUSH1 0xD SLOAD GT PUSH2 0x2E54 JUMPI PUSH1 0x40 MLOAD PUSH3 0x461BCD PUSH1 0xE5 SHL DUP2 MSTORE PUSH1 0x4 ADD PUSH2 0x91B SWAP1 PUSH2 0x42D4 JUMP JUMPDEST PUSH1 0xE PUSH1 0x1 PUSH1 0xD SLOAD PUSH2 0x2E65 SWAP2 SWAP1 PUSH2 0x4321 JUMP JUMPDEST PUSH1 0x3 DUP2 LT PUSH2 0x2E75 JUMPI PUSH2 0x2E75 PUSH2 0x4334 JUMP JUMPDEST ADD SLOAD ISZERO PUSH2 0x2E94 JUMPI PUSH1 0x40 MLOAD PUSH3 0x461BCD PUSH1 0xE5 SHL DUP2 MSTORE PUSH1 0x4 ADD PUSH2 0x91B SWAP1 PUSH2 0x434A JUMP JUMPDEST PUSH1 0x0 DUP1 PUSH1 0x0 JUMPDEST PUSH1 0x4 DUP2 LT ISZERO PUSH2 0x2F63 JUMPI PUSH1 0x19 DUP2 PUSH1 0x4 DUP2 LT PUSH2 0x2EB6 JUMPI PUSH2 0x2EB6 PUSH2 0x4334 JUMP JUMPDEST ADD SLOAD PUSH1 0x1 PUSH1 0x1 PUSH1 0xA0 SHL SUB AND SWAP3 POP PUSH1 0x0 SWAP2 POP PUSH1 0x1 JUMPDEST PUSH1 0xC SLOAD DUP2 LT ISZERO PUSH2 0x2F48 JUMPI PUSH1 0x0 PUSH2 0x2EE0 DUP6 DUP4 PUSH2 0x8B4 JUMP JUMPDEST SWAP1 POP PUSH1 0x0 DUP2 GT DUP1 ISZERO PUSH2 0x2F05 JUMPI POP PUSH1 0x0 DUP3 DUP2 MSTORE PUSH1 0x17 PUSH1 0x20 MSTORE PUSH1 0x40 SWAP1 KECCAK256 SLOAD PUSH1 0xFF AND ISZERO ISZERO PUSH1 0x1 EQ JUMPDEST ISZERO PUSH2 0x2F35 JUMPI PUSH1 0x19 DUP4 PUSH1 0x4 DUP2 LT PUSH2 0x2F1D JUMPI PUSH2 0x2F1D PUSH2 0x4334 JUMP JUMPDEST ADD SLOAD PUSH1 0x1 PUSH1 0x1 PUSH1 0xA0 SHL SUB AND SWAP5 POP SWAP1 SWAP3 POP DUP3 SWAP1 POP PUSH2 0x2F48 JUMP JUMPDEST POP DUP1 PUSH2 0x2F40 DUP2 PUSH2 0x437A JUMP JUMPDEST SWAP2 POP POP PUSH2 0x2ECA JUMP JUMPDEST POP PUSH1 0x0 DUP3 GT PUSH2 0x2F63 JUMPI DUP1 PUSH2 0x2F5B DUP2 PUSH2 0x437A JUMP JUMPDEST SWAP2 POP POP PUSH2 0x2E9A JUMP JUMPDEST POP DUP1 ISZERO DUP1 PUSH2 0x2F80 JUMPI POP PUSH1 0x0 DUP2 DUP2 MSTORE PUSH1 0x17 PUSH1 0x20 MSTORE PUSH1 0x40 SWAP1 KECCAK256 SLOAD PUSH1 0xFF AND ISZERO JUMPDEST ISZERO PUSH2 0x2FCD JUMPI PUSH1 0x40 MLOAD PUSH3 0x461BCD PUSH1 0xE5 SHL DUP2 MSTORE PUSH1 0x20 PUSH1 0x4 DUP3 ADD MSTORE PUSH1 0x1A PUSH1 0x24 DUP3 ADD MSTORE PUSH32 0x4E6F20656C696769626C6520746F6B656E7320746F20706C6179000000000000 PUSH1 0x44 DUP3 ADD MSTORE PUSH1 0x64 ADD PUSH2 0x91B JUMP JUMPDEST PUSH1 0x18 SLOAD DUP2 SUB PUSH2 0x30F0 JUMPI PUSH2 0x2FE2 DUP3 DUP3 PUSH1 0x1 PUSH2 0x263A JUMP JUMPDEST PUSH1 0x16 DUP1 SLOAD SWAP1 PUSH1 0x0 PUSH2 0x2FF2 DUP4 PUSH2 0x437A JUMP JUMPDEST SWAP2 SWAP1 POP SSTORE POP PUSH2 0x3037 PUSH1 0x4 PUSH1 0x1 SWAP1 SLOAD SWAP1 PUSH2 0x100 EXP SWAP1 DIV PUSH1 0x1 PUSH1 0x1 PUSH1 0xA0 SHL SUB AND DUP4 PUSH1 0x10 PUSH1 0x1 PUSH1 0x40 MLOAD DUP1 PUSH1 0x40 ADD PUSH1 0x40 MSTORE DUP1 PUSH1 0x4 DUP2 MSTORE PUSH1 0x20 ADD PUSH4 0x3078303 PUSH1 0xE4 SHL DUP2 MSTORE POP PUSH2 0x2743 JUMP JUMPDEST DUP1 PUSH1 0xE PUSH1 0x1 PUSH1 0xD SLOAD PUSH2 0x3049 SWAP2 SWAP1 PUSH2 0x4321 JUMP JUMPDEST PUSH1 0x3 DUP2 LT PUSH2 0x3059 JUMPI PUSH2 0x3059 PUSH2 0x4334 JUMP JUMPDEST ADD DUP2 SWAP1 SSTORE POP DUP2 PUSH1 0x1 PUSH1 0x1 PUSH1 0xA0 SHL SUB AND PUSH2 0x8FC PUSH1 0x12 PUSH1 0x1 PUSH1 0xD SLOAD PUSH2 0x307C SWAP2 SWAP1 PUSH2 0x4321 JUMP JUMPDEST PUSH1 0x3 DUP2 LT PUSH2 0x308C JUMPI PUSH2 0x308C PUSH2 0x4334 JUMP JUMPDEST ADD SLOAD PUSH1 0x40 MLOAD DUP2 ISZERO SWAP1 SWAP3 MUL SWAP2 PUSH1 0x0 DUP2 DUP2 DUP2 DUP6 DUP9 DUP9 CALL SWAP4 POP POP POP POP ISZERO DUP1 ISZERO PUSH2 0x30B6 JUMPI RETURNDATASIZE PUSH1 0x0 DUP1 RETURNDATACOPY RETURNDATASIZE PUSH1 0x0 REVERT JUMPDEST POP PUSH1 0xD SLOAD PUSH1 0x40 DUP1 MLOAD SWAP2 DUP3 MSTORE PUSH1 0x20 DUP3 ADD DUP4 SWAP1 MSTORE PUSH32 0xE63F62AA52D6270C5AC3086B02DD8AD47850F9FDA51B8D82FB2985D71E038D1B SWAP2 ADD PUSH2 0x21AE JUMP JUMPDEST PUSH2 0x30FC DUP3 DUP3 PUSH1 0x1 PUSH2 0x263A JUMP JUMPDEST PUSH1 0x16 DUP1 SLOAD SWAP1 PUSH1 0x0 PUSH2 0x310C DUP4 PUSH2 0x437A JUMP JUMPDEST SWAP2 SWAP1 POP SSTORE POP PUSH2 0x3151 PUSH1 0x4 PUSH1 0x1 SWAP1 SLOAD SWAP1 PUSH2 0x100 EXP SWAP1 DIV PUSH1 0x1 PUSH1 0x1 PUSH1 0xA0 SHL SUB AND DUP4 PUSH1 0x10 PUSH1 0x1 PUSH1 0x40 MLOAD DUP1 PUSH1 0x40 ADD PUSH1 0x40 MSTORE DUP1 PUSH1 0x4 DUP2 MSTORE PUSH1 0x20 ADD PUSH4 0x3078303 PUSH1 0xE4 SHL DUP2 MSTORE POP PUSH2 0x2743 JUMP JUMPDEST PUSH1 0x15 SLOAD PUSH1 0x12 PUSH1 0x1 PUSH1 0xD SLOAD PUSH2 0x3165 SWAP2 SWAP1 PUSH2 0x4321 JUMP JUMPDEST PUSH1 0x3 DUP2 LT PUSH2 0x3175 JUMPI PUSH2 0x3175 PUSH2 0x4334 JUMP JUMPDEST ADD SLOAD PUSH2 0x3181 SWAP2 SWAP1 PUSH2 0x4393 JUMP JUMPDEST PUSH1 0x12 PUSH1 0x1 PUSH1 0xD SLOAD PUSH2 0x3192 SWAP2 SWAP1 PUSH2 0x4321 JUMP JUMPDEST PUSH1 0x3 DUP2 LT PUSH2 0x31A2 JUMPI PUSH2 0x31A2 PUSH2 0x4334 JUMP JUMPDEST ADD SSTORE POP POP JUMP JUMPDEST PUSH1 0x1 PUSH1 0x1 PUSH1 0xA0 SHL SUB DUP4 AND PUSH2 0x31CE JUMPI PUSH1 0x40 MLOAD PUSH3 0x461BCD PUSH1 0xE5 SHL DUP2 MSTORE PUSH1 0x4 ADD PUSH2 0x91B SWAP1 PUSH2 0x4567 JUMP JUMPDEST DUP1 MLOAD DUP3 MLOAD EQ PUSH2 0x31EF JUMPI PUSH1 0x40 MLOAD PUSH3 0x461BCD PUSH1 0xE5 SHL DUP2 MSTORE PUSH1 0x4 ADD PUSH2 0x91B SWAP1 PUSH2 0x467D JUMP JUMPDEST PUSH1 0x40 DUP1 MLOAD PUSH1 0x20 DUP2 ADD SWAP1 SWAP2 MSTORE PUSH1 0x0 SWAP1 DUP2 SWAP1 MSTORE CALLER SWAP1 JUMPDEST DUP4 MLOAD DUP2 LT ISZERO PUSH2 0x32C5 JUMPI PUSH1 0x0 DUP5 DUP3 DUP2 MLOAD DUP2 LT PUSH2 0x3220 JUMPI PUSH2 0x3220 PUSH2 0x4334 JUMP JUMPDEST PUSH1 0x20 MUL PUSH1 0x20 ADD ADD MLOAD SWAP1 POP PUSH1 0x0 DUP5 DUP4 DUP2 MLOAD DUP2 LT PUSH2 0x323E JUMPI PUSH2 0x323E PUSH2 0x4334 JUMP JUMPDEST PUSH1 0x20 SWAP1 DUP2 MUL SWAP2 SWAP1 SWAP2 ADD DUP2 ADD MLOAD PUSH1 0x0 DUP5 DUP2 MSTORE DUP1 DUP4 MSTORE PUSH1 0x40 DUP1 DUP3 KECCAK256 PUSH1 0x1 PUSH1 0x1 PUSH1 0xA0 SHL SUB DUP13 AND DUP4 MSTORE SWAP1 SWAP4 MSTORE SWAP2 SWAP1 SWAP2 KECCAK256 SLOAD SWAP1 SWAP2 POP DUP2 DUP2 LT ISZERO PUSH2 0x328E JUMPI PUSH1 0x40 MLOAD PUSH3 0x461BCD PUSH1 0xE5 SHL DUP2 MSTORE PUSH1 0x4 ADD PUSH2 0x91B SWAP1 PUSH2 0x45AA JUMP JUMPDEST PUSH1 0x0 SWAP3 DUP4 MSTORE PUSH1 0x20 DUP4 DUP2 MSTORE PUSH1 0x40 DUP1 DUP6 KECCAK256 PUSH1 0x1 PUSH1 0x1 PUSH1 0xA0 SHL SUB DUP12 AND DUP7 MSTORE SWAP1 SWAP2 MSTORE SWAP1 SWAP3 KECCAK256 SWAP2 SUB SWAP1 SSTORE DUP1 PUSH2 0x32BD DUP2 PUSH2 0x437A JUMP JUMPDEST SWAP2 POP POP PUSH2 0x3203 JUMP JUMPDEST POP PUSH1 0x0 PUSH1 0x1 PUSH1 0x1 PUSH1 0xA0 SHL SUB AND DUP5 PUSH1 0x1 PUSH1 0x1 PUSH1 0xA0 SHL SUB AND DUP3 PUSH1 0x1 PUSH1 0x1 PUSH1 0xA0 SHL SUB AND PUSH32 0x4A39DC06D4C0DBC64B70AF90FD698A233A518AA5D07E595D983B8C0526C8F7FB DUP7 DUP7 PUSH1 0x40 MLOAD PUSH2 0x3316 SWAP3 SWAP2 SWAP1 PUSH2 0x46C5 JUMP JUMPDEST PUSH1 0x40 MLOAD DUP1 SWAP2 SUB SWAP1 LOG4 PUSH1 0x40 DUP1 MLOAD PUSH1 0x20 DUP2 ADD SWAP1 SWAP2 MSTORE PUSH1 0x0 SWAP1 MSTORE POP POP POP POP JUMP JUMPDEST PUSH1 0x1 PUSH1 0xD SLOAD LT PUSH2 0x33A4 JUMPI PUSH1 0x40 MLOAD PUSH3 0x461BCD PUSH1 0xE5 SHL DUP2 MSTORE PUSH1 0x20 PUSH1 0x4 DUP3 ADD MSTORE PUSH1 0x36 PUSH1 0x24 DUP3 ADD MSTORE PUSH32 0x4C6F747465727920616C726561647920737461727465642C206E6F7420616C6C PUSH1 0x44 DUP3 ADD MSTORE PUSH22 0x6F77656420746F206368616E67652072657761726473 PUSH1 0x50 SHL PUSH1 0x64 DUP3 ADD MSTORE PUSH1 0x84 ADD PUSH2 0x91B JUMP JUMPDEST PUSH1 0x0 PUSH1 0xC SLOAD GT PUSH2 0x3413 JUMPI PUSH1 0x40 MLOAD PUSH3 0x461BCD PUSH1 0xE5 SHL DUP2 MSTORE PUSH1 0x20 PUSH1 0x4 DUP3 ADD MSTORE PUSH1 0x34 PUSH1 0x24 DUP3 ADD MSTORE PUSH32 0x4E6F20696E636F6D652066726F6D206D696E742C20696D706F737369626C6520 PUSH1 0x44 DUP3 ADD MSTORE PUSH20 0x746F2063616C63756C6174652072657761726473 PUSH1 0x60 SHL PUSH1 0x64 DUP3 ADD MSTORE PUSH1 0x84 ADD PUSH2 0x91B JUMP JUMPDEST PUSH1 0x64 PUSH1 0x11 SLOAD PUSH2 0x3422 SWAP2 SWAP1 PUSH2 0x46F3 JUMP JUMPDEST PUSH2 0x342D SWAP1 PUSH1 0x14 PUSH2 0x44D1 JUMP JUMPDEST PUSH1 0x12 SSTORE PUSH1 0x11 SLOAD PUSH2 0x343F SWAP1 PUSH1 0x64 SWAP1 PUSH2 0x46F3 JUMP JUMPDEST PUSH2 0x344A SWAP1 PUSH1 0x19 PUSH2 0x44D1 JUMP JUMPDEST PUSH1 0x13 SSTORE PUSH1 0x11 SLOAD PUSH2 0x345C SWAP1 PUSH1 0x64 SWAP1 PUSH2 0x46F3 JUMP JUMPDEST PUSH2 0x3467 SWAP1 PUSH1 0x1E PUSH2 0x44D1 JUMP JUMPDEST PUSH1 0x14 SSTORE PUSH1 0xC SLOAD PUSH1 0x11 SLOAD PUSH2 0x347C SWAP1 PUSH1 0x64 SWAP1 PUSH2 0x46F3 JUMP JUMPDEST PUSH2 0x3487 SWAP1 PUSH1 0xA PUSH2 0x44D1 JUMP JUMPDEST PUSH2 0x3491 SWAP2 SWAP1 PUSH2 0x46F3 JUMP JUMPDEST PUSH1 0x15 SSTORE JUMP JUMPDEST DUP2 PUSH1 0x1 PUSH1 0x1 PUSH1 0xA0 SHL SUB AND DUP4 PUSH1 0x1 PUSH1 0x1 PUSH1 0xA0 SHL SUB AND SUB PUSH2 0x3509 JUMPI PUSH1 0x40 MLOAD PUSH3 0x461BCD PUSH1 0xE5 SHL DUP2 MSTORE PUSH1 0x20 PUSH1 0x4 DUP3 ADD MSTORE PUSH1 0x29 PUSH1 0x24 DUP3 ADD MSTORE PUSH32 0x455243313135353A2073657474696E6720617070726F76616C20737461747573 PUSH1 0x44 DUP3 ADD MSTORE PUSH9 0x103337B91039B2B633 PUSH1 0xB9 SHL PUSH1 0x64 DUP3 ADD MSTORE PUSH1 0x84 ADD PUSH2 0x91B JUMP JUMPDEST PUSH1 0x1 PUSH1 0x1 PUSH1 0xA0 SHL SUB DUP4 DUP2 AND PUSH1 0x0 DUP2 DUP2 MSTORE PUSH1 0x1 PUSH1 0x20 SWAP1 DUP2 MSTORE PUSH1 0x40 DUP1 DUP4 KECCAK256 SWAP5 DUP8 AND DUP1 DUP5 MSTORE SWAP5 DUP3 MSTORE SWAP2 DUP3 SWAP1 KECCAK256 DUP1 SLOAD PUSH1 0xFF NOT AND DUP7 ISZERO ISZERO SWAP1 DUP2 OR SWAP1 SWAP2 SSTORE SWAP2 MLOAD SWAP2 DUP3 MSTORE PUSH32 0x17307EAB39AB6107E8899845AD3D59BD9653F200F220920489CA2B5937696C31 SWAP2 ADD PUSH1 0x40 MLOAD DUP1 SWAP2 SUB SWAP1 LOG3 POP POP POP JUMP JUMPDEST PUSH1 0x0 PUSH2 0x3585 DUP4 PUSH1 0x5 SLOAD DUP5 PUSH2 0x38C5 JUMP JUMPDEST SWAP4 SWAP3 POP POP POP JUMP JUMPDEST PUSH1 0x40 DUP1 MLOAD PUSH1 0x1 DUP1 DUP3 MSTORE DUP2 DUP4 ADD SWAP1 SWAP3 MSTORE PUSH1 0x60 SWAP2 PUSH1 0x0 SWAP2 SWAP1 PUSH1 0x20 DUP1 DUP4 ADD SWAP1 DUP1 CALLDATASIZE DUP4 CALLDATACOPY ADD SWAP1 POP POP SWAP1 POP DUP3 DUP2 PUSH1 0x0 DUP2 MLOAD DUP2 LT PUSH2 0x35C6 JUMPI PUSH2 0x35C6 PUSH2 0x4334 JUMP JUMPDEST PUSH1 0x20 SWAP1 DUP2 MUL SWAP2 SWAP1 SWAP2 ADD ADD MSTORE SWAP3 SWAP2 POP POP JUMP JUMPDEST PUSH1 0x1 PUSH1 0x1 PUSH1 0xA0 SHL SUB DUP5 AND EXTCODESIZE ISZERO PUSH2 0x2B9E JUMPI PUSH1 0x40 MLOAD PUSH4 0xF23A6E61 PUSH1 0xE0 SHL DUP2 MSTORE PUSH1 0x1 PUSH1 0x1 PUSH1 0xA0 SHL SUB DUP6 AND SWAP1 PUSH4 0xF23A6E61 SWAP1 PUSH2 0x361B SWAP1 DUP10 SWAP1 DUP10 SWAP1 DUP9 SWAP1 DUP9 SWAP1 DUP9 SWAP1 PUSH1 0x4 ADD PUSH2 0x4707 JUMP JUMPDEST PUSH1 0x20 PUSH1 0x40 MLOAD DUP1 DUP4 SUB DUP2 PUSH1 0x0 DUP8 GAS CALL SWAP3 POP POP POP DUP1 ISZERO PUSH2 0x3656 JUMPI POP PUSH1 0x40 DUP1 MLOAD PUSH1 0x1F RETURNDATASIZE SWAP1 DUP2 ADD PUSH1 0x1F NOT AND DUP3 ADD SWAP1 SWAP3 MSTORE PUSH2 0x3653 SWAP2 DUP2 ADD SWAP1 PUSH2 0x4741 JUMP JUMPDEST PUSH1 0x1 JUMPDEST PUSH2 0x3702 JUMPI PUSH2 0x3662 PUSH2 0x475E JUMP JUMPDEST DUP1 PUSH4 0x8C379A0 SUB PUSH2 0x369B JUMPI POP PUSH2 0x3676 PUSH2 0x477A JUMP JUMPDEST DUP1 PUSH2 0x3681 JUMPI POP PUSH2 0x369D JUMP JUMPDEST DUP1 PUSH1 0x40 MLOAD PUSH3 0x461BCD PUSH1 0xE5 SHL DUP2 MSTORE PUSH1 0x4 ADD PUSH2 0x91B SWAP2 SWAP1 PUSH2 0x3B1D JUMP JUMPDEST POP JUMPDEST PUSH1 0x40 MLOAD PUSH3 0x461BCD PUSH1 0xE5 SHL DUP2 MSTORE PUSH1 0x20 PUSH1 0x4 DUP3 ADD MSTORE PUSH1 0x34 PUSH1 0x24 DUP3 ADD MSTORE PUSH32 0x455243313135353A207472616E7366657220746F206E6F6E2D45524331313535 PUSH1 0x44 DUP3 ADD MSTORE PUSH20 0x2932B1B2B4BB32B91034B6B83632B6B2B73A32B9 PUSH1 0x61 SHL PUSH1 0x64 DUP3 ADD MSTORE PUSH1 0x84 ADD PUSH2 0x91B JUMP JUMPDEST PUSH1 0x1 PUSH1 0x1 PUSH1 0xE0 SHL SUB NOT DUP2 AND PUSH4 0xF23A6E61 PUSH1 0xE0 SHL EQ PUSH2 0x273A JUMPI PUSH1 0x40 MLOAD PUSH3 0x461BCD PUSH1 0xE5 SHL DUP2 MSTORE PUSH1 0x4 ADD PUSH2 0x91B SWAP1 PUSH2 0x4803 JUMP JUMPDEST PUSH1 0x0 DUP1 PUSH19 0x184F03E93FF9F4DAA797ED6E38ED64BF6A1F01 PUSH1 0x40 SHL DUP4 LT PUSH2 0x3771 JUMPI PUSH19 0x184F03E93FF9F4DAA797ED6E38ED64BF6A1F01 PUSH1 0x40 SHL DUP4 DIV SWAP3 POP PUSH1 0x40 ADD JUMPDEST PUSH14 0x4EE2D6D415B85ACEF8100000000 DUP4 LT PUSH2 0x379D JUMPI PUSH14 0x4EE2D6D415B85ACEF8100000000 DUP4 DIV SWAP3 POP PUSH1 0x20 ADD JUMPDEST PUSH7 0x2386F26FC10000 DUP4 LT PUSH2 0x37BB JUMPI PUSH7 0x2386F26FC10000 DUP4 DIV SWAP3 POP PUSH1 0x10 ADD JUMPDEST PUSH4 0x5F5E100 DUP4 LT PUSH2 0x37D3 JUMPI PUSH4 0x5F5E100 DUP4 DIV SWAP3 POP PUSH1 0x8 ADD JUMPDEST PUSH2 0x2710 DUP4 LT PUSH2 0x37E7 JUMPI PUSH2 0x2710 DUP4 DIV SWAP3 POP PUSH1 0x4 ADD JUMPDEST PUSH1 0x64 DUP4 LT PUSH2 0x37F9 JUMPI PUSH1 0x64 DUP4 DIV SWAP3 POP PUSH1 0x2 ADD JUMPDEST PUSH1 0xA DUP4 LT PUSH2 0x947 JUMPI PUSH1 0x1 ADD SWAP3 SWAP2 POP POP JUMP JUMPDEST PUSH1 0x1 PUSH1 0x1 PUSH1 0xA0 SHL SUB DUP5 AND EXTCODESIZE ISZERO PUSH2 0x2B9E JUMPI PUSH1 0x40 MLOAD PUSH4 0xBC197C81 PUSH1 0xE0 SHL DUP2 MSTORE PUSH1 0x1 PUSH1 0x1 PUSH1 0xA0 SHL SUB DUP6 AND SWAP1 PUSH4 0xBC197C81 SWAP1 PUSH2 0x384E SWAP1 DUP10 SWAP1 DUP10 SWAP1 DUP9 SWAP1 DUP9 SWAP1 DUP9 SWAP1 PUSH1 0x4 ADD PUSH2 0x484B JUMP JUMPDEST PUSH1 0x20 PUSH1 0x40 MLOAD DUP1 DUP4 SUB DUP2 PUSH1 0x0 DUP8 GAS CALL SWAP3 POP POP POP DUP1 ISZERO PUSH2 0x3889 JUMPI POP PUSH1 0x40 DUP1 MLOAD PUSH1 0x1F RETURNDATASIZE SWAP1 DUP2 ADD PUSH1 0x1F NOT AND DUP3 ADD SWAP1 SWAP3 MSTORE PUSH2 0x3886 SWAP2 DUP2 ADD SWAP1 PUSH2 0x4741 JUMP JUMPDEST PUSH1 0x1 JUMPDEST PUSH2 0x3895 JUMPI PUSH2 0x3662 PUSH2 0x475E JUMP JUMPDEST PUSH1 0x1 PUSH1 0x1 PUSH1 0xE0 SHL SUB NOT DUP2 AND PUSH4 0xBC197C81 PUSH1 0xE0 SHL EQ PUSH2 0x273A JUMPI PUSH1 0x40 MLOAD PUSH3 0x461BCD PUSH1 0xE5 SHL DUP2 MSTORE PUSH1 0x4 ADD PUSH2 0x91B SWAP1 PUSH2 0x4803 JUMP JUMPDEST PUSH1 0x0 DUP3 PUSH2 0x38D2 DUP6 DUP5 PUSH2 0x38DB JUMP JUMPDEST EQ SWAP5 SWAP4 POP POP POP POP JUMP JUMPDEST PUSH1 0x0 DUP2 DUP2 JUMPDEST DUP5 MLOAD DUP2 LT ISZERO PUSH2 0x1A03 JUMPI PUSH2 0x390C DUP3 DUP7 DUP4 DUP2 MLOAD DUP2 LT PUSH2 0x38FF JUMPI PUSH2 0x38FF PUSH2 0x4334 JUMP JUMPDEST PUSH1 0x20 MUL PUSH1 0x20 ADD ADD MLOAD PUSH2 0x3920 JUMP JUMPDEST SWAP2 POP DUP1 PUSH2 0x3918 DUP2 PUSH2 0x437A JUMP JUMPDEST SWAP2 POP POP PUSH2 0x38E0 JUMP JUMPDEST PUSH1 0x0 DUP2 DUP4 LT PUSH2 0x393C JUMPI PUSH1 0x0 DUP3 DUP2 MSTORE PUSH1 0x20 DUP5 SWAP1 MSTORE PUSH1 0x40 SWAP1 KECCAK256 PUSH2 0x3585 JUMP JUMPDEST PUSH1 0x0 DUP4 DUP2 MSTORE PUSH1 0x20 DUP4 SWAP1 MSTORE PUSH1 0x40 SWAP1 KECCAK256 PUSH2 0x3585 JUMP JUMPDEST DUP3 PUSH1 0x2 DUP2 ADD SWAP3 DUP3 ISZERO PUSH2 0x397D JUMPI SWAP2 PUSH1 0x20 MUL DUP3 ADD JUMPDEST DUP3 DUP2 GT ISZERO PUSH2 0x397D JUMPI DUP3 MLOAD DUP3 SSTORE SWAP2 PUSH1 0x20 ADD SWAP2 SWAP1 PUSH1 0x1 ADD SWAP1 PUSH2 0x3962 JUMP JUMPDEST POP PUSH2 0x3989 SWAP3 SWAP2 POP PUSH2 0x3A2B JUMP JUMPDEST POP SWAP1 JUMP JUMPDEST DUP3 PUSH1 0x2 DUP2 ADD SWAP3 DUP3 ISZERO PUSH2 0x397D JUMPI SWAP2 PUSH1 0x20 MUL DUP3 ADD JUMPDEST DUP3 DUP2 GT ISZERO PUSH2 0x397D JUMPI DUP3 MLOAD DUP3 SWAP1 PUSH1 0x1 PUSH1 0x1 PUSH1 0x40 SHL SUB AND SWAP1 SSTORE SWAP2 PUSH1 0x20 ADD SWAP2 SWAP1 PUSH1 0x1 ADD SWAP1 PUSH2 0x39A0 JUMP JUMPDEST DUP3 PUSH1 0x2 DUP2 ADD SWAP3 DUP3 ISZERO PUSH2 0x397D JUMPI SWAP2 PUSH1 0x20 MUL DUP3 ADD JUMPDEST DUP3 DUP2 GT ISZERO PUSH2 0x397D JUMPI DUP3 MLOAD DUP3 SWAP1 PUSH1 0xFF AND SWAP1 SSTORE SWAP2 PUSH1 0x20 ADD SWAP2 SWAP1 PUSH1 0x1 ADD SWAP1 PUSH2 0x39D9 JUMP JUMPDEST DUP3 PUSH1 0x3 DUP2 ADD SWAP3 DUP3 ISZERO PUSH2 0x397D JUMPI SWAP2 PUSH1 0x20 MUL DUP3 ADD DUP3 DUP2 GT ISZERO PUSH2 0x397D JUMPI DUP3 MLOAD DUP3 SWAP1 PUSH1 0xFF AND SWAP1 SSTORE SWAP2 PUSH1 0x20 ADD SWAP2 SWAP1 PUSH1 0x1 ADD SWAP1 PUSH2 0x39D9 JUMP JUMPDEST JUMPDEST DUP1 DUP3 GT ISZERO PUSH2 0x3989 JUMPI PUSH1 0x0 DUP2 SSTORE PUSH1 0x1 ADD PUSH2 0x3A2C JUMP JUMPDEST DUP1 CALLDATALOAD PUSH1 0x1 PUSH1 0x1 PUSH1 0xA0 SHL SUB DUP2 AND DUP2 EQ PUSH2 0xE99 JUMPI PUSH1 0x0 DUP1 REVERT JUMPDEST PUSH1 0x0 DUP1 PUSH1 0x40 DUP4 DUP6 SUB SLT ISZERO PUSH2 0x3A6A JUMPI PUSH1 0x0 DUP1 REVERT JUMPDEST PUSH2 0x3A73 DUP4 PUSH2 0x3A40 JUMP JUMPDEST SWAP5 PUSH1 0x20 SWAP4 SWAP1 SWAP4 ADD CALLDATALOAD SWAP4 POP POP POP JUMP JUMPDEST PUSH1 0x1 PUSH1 0x1 PUSH1 0xE0 SHL SUB NOT DUP2 AND DUP2 EQ PUSH2 0xD12 JUMPI PUSH1 0x0 DUP1 REVERT JUMPDEST PUSH1 0x0 PUSH1 0x20 DUP3 DUP5 SUB SLT ISZERO PUSH2 0x3AA9 JUMPI PUSH1 0x0 DUP1 REVERT JUMPDEST DUP2 CALLDATALOAD PUSH2 0x3585 DUP2 PUSH2 0x3A81 JUMP JUMPDEST PUSH1 0x0 PUSH1 0x20 DUP3 DUP5 SUB SLT ISZERO PUSH2 0x3AC6 JUMPI PUSH1 0x0 DUP1 REVERT JUMPDEST POP CALLDATALOAD SWAP2 SWAP1 POP JUMP JUMPDEST PUSH1 0x0 JUMPDEST DUP4 DUP2 LT ISZERO PUSH2 0x3AE8 JUMPI DUP2 DUP2 ADD MLOAD DUP4 DUP3 ADD MSTORE PUSH1 0x20 ADD PUSH2 0x3AD0 JUMP JUMPDEST POP POP PUSH1 0x0 SWAP2 ADD MSTORE JUMP JUMPDEST PUSH1 0x0 DUP2 MLOAD DUP1 DUP5 MSTORE PUSH2 0x3B09 DUP2 PUSH1 0x20 DUP7 ADD PUSH1 0x20 DUP7 ADD PUSH2 0x3ACD JUMP JUMPDEST PUSH1 0x1F ADD PUSH1 0x1F NOT AND SWAP3 SWAP1 SWAP3 ADD PUSH1 0x20 ADD SWAP3 SWAP2 POP POP JUMP JUMPDEST PUSH1 0x20 DUP2 MSTORE PUSH1 0x0 PUSH2 0x3585 PUSH1 0x20 DUP4 ADD DUP5 PUSH2 0x3AF1 JUMP JUMPDEST PUSH4 0x4E487B71 PUSH1 0xE0 SHL PUSH1 0x0 MSTORE PUSH1 0x41 PUSH1 0x4 MSTORE PUSH1 0x24 PUSH1 0x0 REVERT JUMPDEST PUSH1 0x1F DUP3 ADD PUSH1 0x1F NOT AND DUP2 ADD PUSH1 0x1 PUSH1 0x1 PUSH1 0x40 SHL SUB DUP2 GT DUP3 DUP3 LT OR ISZERO PUSH2 0x3B6B JUMPI PUSH2 0x3B6B PUSH2 0x3B30 JUMP JUMPDEST PUSH1 0x40 MSTORE POP POP JUMP JUMPDEST PUSH1 0x0 PUSH1 0x1 PUSH1 0x1 PUSH1 0x40 SHL SUB DUP3 GT ISZERO PUSH2 0x3B8B JUMPI PUSH2 0x3B8B PUSH2 0x3B30 JUMP JUMPDEST POP PUSH1 0x5 SHL PUSH1 0x20 ADD SWAP1 JUMP JUMPDEST PUSH1 0x0 DUP3 PUSH1 0x1F DUP4 ADD SLT PUSH2 0x3BA6 JUMPI PUSH1 0x0 DUP1 REVERT JUMPDEST DUP2 CALLDATALOAD PUSH1 0x20 PUSH2 0x3BB3 DUP3 PUSH2 0x3B72 JUMP JUMPDEST PUSH1 0x40 MLOAD PUSH2 0x3BC0 DUP3 DUP3 PUSH2 0x3B46 JUMP JUMPDEST DUP4 DUP2 MSTORE PUSH1 0x5 SWAP4 SWAP1 SWAP4 SHL DUP6 ADD DUP3 ADD SWAP3 DUP3 DUP2 ADD SWAP2 POP DUP7 DUP5 GT ISZERO PUSH2 0x3BE0 JUMPI PUSH1 0x0 DUP1 REVERT JUMPDEST DUP3 DUP7 ADD JUMPDEST DUP5 DUP2 LT ISZERO PUSH2 0x3BFB JUMPI DUP1 CALLDATALOAD DUP4 MSTORE SWAP2 DUP4 ADD SWAP2 DUP4 ADD PUSH2 0x3BE4 JUMP JUMPDEST POP SWAP7 SWAP6 POP POP POP POP POP POP JUMP JUMPDEST PUSH1 0x0 DUP1 PUSH1 0x40 DUP4 DUP6 SUB SLT ISZERO PUSH2 0x3C19 JUMPI PUSH1 0x0 DUP1 REVERT JUMPDEST DUP3 CALLDATALOAD SWAP2 POP PUSH1 0x20 DUP4 ADD CALLDATALOAD PUSH1 0x1 PUSH1 0x1 PUSH1 0x40 SHL SUB DUP2 GT ISZERO PUSH2 0x3C36 JUMPI PUSH1 0x0 DUP1 REVERT JUMPDEST PUSH2 0x3C42 DUP6 DUP3 DUP7 ADD PUSH2 0x3B95 JUMP JUMPDEST SWAP2 POP POP SWAP3 POP SWAP3 SWAP1 POP JUMP JUMPDEST PUSH1 0x0 DUP3 PUSH1 0x1F DUP4 ADD SLT PUSH2 0x3C5D JUMPI PUSH1 0x0 DUP1 REVERT JUMPDEST DUP2 CALLDATALOAD PUSH1 0x1 PUSH1 0x1 PUSH1 0x40 SHL SUB DUP2 GT ISZERO PUSH2 0x3C76 JUMPI PUSH2 0x3C76 PUSH2 0x3B30 JUMP JUMPDEST PUSH1 0x40 MLOAD PUSH2 0x3C8D PUSH1 0x1F DUP4 ADD PUSH1 0x1F NOT AND PUSH1 0x20 ADD DUP3 PUSH2 0x3B46 JUMP JUMPDEST DUP2 DUP2 MSTORE DUP5 PUSH1 0x20 DUP4 DUP7 ADD ADD GT ISZERO PUSH2 0x3CA2 JUMPI PUSH1 0x0 DUP1 REVERT JUMPDEST DUP2 PUSH1 0x20 DUP6 ADD PUSH1 0x20 DUP4 ADD CALLDATACOPY PUSH1 0x0 SWAP2 DUP2 ADD PUSH1 0x20 ADD SWAP2 SWAP1 SWAP2 MSTORE SWAP4 SWAP3 POP POP POP JUMP JUMPDEST PUSH1 0x0 DUP1 PUSH1 0x0 DUP1 PUSH1 0x0 PUSH1 0xA0 DUP7 DUP9 SUB SLT ISZERO PUSH2 0x3CD7 JUMPI PUSH1 0x0 DUP1 REVERT JUMPDEST PUSH2 0x3CE0 DUP7 PUSH2 0x3A40 JUMP JUMPDEST SWAP5 POP PUSH2 0x3CEE PUSH1 0x20 DUP8 ADD PUSH2 0x3A40 JUMP JUMPDEST SWAP4 POP PUSH1 0x40 DUP7 ADD CALLDATALOAD PUSH1 0x1 PUSH1 0x1 PUSH1 0x40 SHL SUB DUP1 DUP3 GT ISZERO PUSH2 0x3D0A JUMPI PUSH1 0x0 DUP1 REVERT JUMPDEST PUSH2 0x3D16 DUP10 DUP4 DUP11 ADD PUSH2 0x3B95 JUMP JUMPDEST SWAP5 POP PUSH1 0x60 DUP9 ADD CALLDATALOAD SWAP2 POP DUP1 DUP3 GT ISZERO PUSH2 0x3D2C JUMPI PUSH1 0x0 DUP1 REVERT JUMPDEST PUSH2 0x3D38 DUP10 DUP4 DUP11 ADD PUSH2 0x3B95 JUMP JUMPDEST SWAP4 POP PUSH1 0x80 DUP9 ADD CALLDATALOAD SWAP2 POP DUP1 DUP3 GT ISZERO PUSH2 0x3D4E JUMPI PUSH1 0x0 DUP1 REVERT JUMPDEST POP PUSH2 0x3D5B DUP9 DUP3 DUP10 ADD PUSH2 0x3C4C JUMP JUMPDEST SWAP2 POP POP SWAP3 SWAP6 POP SWAP3 SWAP6 SWAP1 SWAP4 POP JUMP JUMPDEST PUSH1 0x0 DUP1 PUSH1 0x20 DUP4 DUP6 SUB SLT ISZERO PUSH2 0x3D7B JUMPI PUSH1 0x0 DUP1 REVERT JUMPDEST DUP3 CALLDATALOAD PUSH1 0x1 PUSH1 0x1 PUSH1 0x40 SHL SUB DUP1 DUP3 GT ISZERO PUSH2 0x3D92 JUMPI PUSH1 0x0 DUP1 REVERT JUMPDEST DUP2 DUP6 ADD SWAP2 POP DUP6 PUSH1 0x1F DUP4 ADD SLT PUSH2 0x3DA6 JUMPI PUSH1 0x0 DUP1 REVERT JUMPDEST DUP2 CALLDATALOAD DUP2 DUP2 GT ISZERO PUSH2 0x3DB5 JUMPI PUSH1 0x0 DUP1 REVERT JUMPDEST DUP7 PUSH1 0x20 DUP3 DUP6 ADD ADD GT ISZERO PUSH2 0x3DC7 JUMPI PUSH1 0x0 DUP1 REVERT JUMPDEST PUSH1 0x20 SWAP3 SWAP1 SWAP3 ADD SWAP7 SWAP2 SWAP6 POP SWAP1 SWAP4 POP POP POP POP JUMP JUMPDEST PUSH1 0x0 DUP3 PUSH1 0x1F DUP4 ADD SLT PUSH2 0x3DEA JUMPI PUSH1 0x0 DUP1 REVERT JUMPDEST DUP2 CALLDATALOAD PUSH1 0x20 PUSH2 0x3DF7 DUP3 PUSH2 0x3B72 JUMP JUMPDEST PUSH1 0x40 MLOAD PUSH2 0x3E04 DUP3 DUP3 PUSH2 0x3B46 JUMP JUMPDEST DUP4 DUP2 MSTORE PUSH1 0x5 SWAP4 SWAP1 SWAP4 SHL DUP6 ADD DUP3 ADD SWAP3 DUP3 DUP2 ADD SWAP2 POP DUP7 DUP5 GT ISZERO PUSH2 0x3E24 JUMPI PUSH1 0x0 DUP1 REVERT JUMPDEST DUP3 DUP7 ADD JUMPDEST DUP5 DUP2 LT ISZERO PUSH2 0x3BFB JUMPI PUSH2 0x3E39 DUP2 PUSH2 0x3A40 JUMP JUMPDEST DUP4 MSTORE SWAP2 DUP4 ADD SWAP2 DUP4 ADD PUSH2 0x3E28 JUMP JUMPDEST PUSH1 0x0 DUP1 PUSH1 0x40 DUP4 DUP6 SUB SLT ISZERO PUSH2 0x3E59 JUMPI PUSH1 0x0 DUP1 REVERT JUMPDEST DUP3 CALLDATALOAD PUSH1 0x1 PUSH1 0x1 PUSH1 0x40 SHL SUB DUP1 DUP3 GT ISZERO PUSH2 0x3E70 JUMPI PUSH1 0x0 DUP1 REVERT JUMPDEST PUSH2 0x3E7C DUP7 DUP4 DUP8 ADD PUSH2 0x3DD9 JUMP JUMPDEST SWAP4 POP PUSH1 0x20 DUP6 ADD CALLDATALOAD SWAP2 POP DUP1 DUP3 GT ISZERO PUSH2 0x3E92 JUMPI PUSH1 0x0 DUP1 REVERT JUMPDEST POP PUSH2 0x3C42 DUP6 DUP3 DUP7 ADD PUSH2 0x3B95 JUMP JUMPDEST PUSH1 0x0 DUP2 MLOAD DUP1 DUP5 MSTORE PUSH1 0x20 DUP1 DUP6 ADD SWAP5 POP DUP1 DUP5 ADD PUSH1 0x0 JUMPDEST DUP4 DUP2 LT ISZERO PUSH2 0x3ECF JUMPI DUP2 MLOAD DUP8 MSTORE SWAP6 DUP3 ADD SWAP6 SWAP1 DUP3 ADD SWAP1 PUSH1 0x1 ADD PUSH2 0x3EB3 JUMP JUMPDEST POP SWAP5 SWAP6 SWAP5 POP POP POP POP POP JUMP JUMPDEST PUSH1 0x20 DUP2 MSTORE PUSH1 0x0 PUSH2 0x3585 PUSH1 0x20 DUP4 ADD DUP5 PUSH2 0x3E9F JUMP JUMPDEST PUSH1 0x0 DUP1 PUSH1 0x0 PUSH1 0x60 DUP5 DUP7 SUB SLT ISZERO PUSH2 0x3F02 JUMPI PUSH1 0x0 DUP1 REVERT JUMPDEST PUSH2 0x3F0B DUP5 PUSH2 0x3A40 JUMP JUMPDEST SWAP3 POP PUSH1 0x20 DUP5 ADD CALLDATALOAD PUSH1 0x1 PUSH1 0x1 PUSH1 0x40 SHL SUB DUP1 DUP3 GT ISZERO PUSH2 0x3F27 JUMPI PUSH1 0x0 DUP1 REVERT JUMPDEST PUSH2 0x3F33 DUP8 DUP4 DUP9 ADD PUSH2 0x3B95 JUMP JUMPDEST SWAP4 POP PUSH1 0x40 DUP7 ADD CALLDATALOAD SWAP2 POP DUP1 DUP3 GT ISZERO PUSH2 0x3F49 JUMPI PUSH1 0x0 DUP1 REVERT JUMPDEST POP PUSH2 0x3F56 DUP7 DUP3 DUP8 ADD PUSH2 0x3B95 JUMP JUMPDEST SWAP2 POP POP SWAP3 POP SWAP3 POP SWAP3 JUMP JUMPDEST DUP3 ISZERO ISZERO DUP2 MSTORE PUSH1 0x40 PUSH1 0x20 DUP3 ADD MSTORE PUSH1 0x0 PUSH2 0x3F7B PUSH1 0x40 DUP4 ADD DUP5 PUSH2 0x3AF1 JUMP JUMPDEST SWAP5 SWAP4 POP POP POP POP JUMP JUMPDEST PUSH1 0x0 PUSH1 0x40 DUP3 DUP5 SUB SLT ISZERO PUSH2 0x3F95 JUMPI PUSH1 0x0 DUP1 REVERT JUMPDEST DUP3 PUSH1 0x1F DUP4 ADD SLT PUSH2 0x3FA4 JUMPI PUSH1 0x0 DUP1 REVERT JUMPDEST PUSH1 0x40 MLOAD PUSH1 0x40 DUP2 ADD DUP2 DUP2 LT PUSH1 0x1 PUSH1 0x1 PUSH1 0x40 SHL SUB DUP3 GT OR ISZERO PUSH2 0x3FC6 JUMPI PUSH2 0x3FC6 PUSH2 0x3B30 JUMP JUMPDEST DUP1 PUSH1 0x40 MSTORE POP DUP1 PUSH1 0x40 DUP5 ADD DUP6 DUP2 GT ISZERO PUSH2 0x3FDD JUMPI PUSH1 0x0 DUP1 REVERT JUMPDEST DUP5 JUMPDEST DUP2 DUP2 LT ISZERO PUSH2 0x3FF7 JUMPI DUP1 CALLDATALOAD DUP4 MSTORE PUSH1 0x20 SWAP3 DUP4 ADD SWAP3 ADD PUSH2 0x3FDF JUMP JUMPDEST POP SWAP2 SWAP6 SWAP5 POP POP POP POP POP JUMP JUMPDEST PUSH1 0x0 DUP1 PUSH1 0x40 DUP4 DUP6 SUB SLT ISZERO PUSH2 0x4015 JUMPI PUSH1 0x0 DUP1 REVERT JUMPDEST PUSH2 0x401E DUP4 PUSH2 0x3A40 JUMP JUMPDEST SWAP2 POP PUSH1 0x20 DUP4 ADD CALLDATALOAD DUP1 ISZERO ISZERO DUP2 EQ PUSH2 0x4033 JUMPI PUSH1 0x0 DUP1 REVERT JUMPDEST DUP1 SWAP2 POP POP SWAP3 POP SWAP3 SWAP1 POP JUMP JUMPDEST PUSH1 0x0 PUSH1 0x20 DUP1 DUP4 DUP6 SUB SLT ISZERO PUSH2 0x4051 JUMPI PUSH1 0x0 DUP1 REVERT JUMPDEST DUP3 CALLDATALOAD PUSH1 0x1 PUSH1 0x1 PUSH1 0x40 SHL SUB DUP2 GT ISZERO PUSH2 0x4067 JUMPI PUSH1 0x0 DUP1 REVERT JUMPDEST DUP4 ADD PUSH1 0x1F DUP2 ADD DUP6 SGT PUSH2 0x4078 JUMPI PUSH1 0x0 DUP1 REVERT JUMPDEST DUP1 CALLDATALOAD PUSH2 0x4083 DUP2 PUSH2 0x3B72 JUMP JUMPDEST PUSH1 0x40 MLOAD PUSH2 0x4090 DUP3 DUP3 PUSH2 0x3B46 JUMP JUMPDEST DUP3 DUP2 MSTORE PUSH1 0x5 SWAP3 SWAP1 SWAP3 SHL DUP4 ADD DUP5 ADD SWAP2 DUP5 DUP2 ADD SWAP2 POP DUP8 DUP4 GT ISZERO PUSH2 0x40B0 JUMPI PUSH1 0x0 DUP1 REVERT JUMPDEST SWAP3 DUP5 ADD SWAP3 JUMPDEST DUP3 DUP5 LT ISZERO PUSH2 0x40CE JUMPI DUP4 CALLDATALOAD DUP3 MSTORE SWAP3 DUP5 ADD SWAP3 SWAP1 DUP5 ADD SWAP1 PUSH2 0x40B5 JUMP JUMPDEST SWAP8 SWAP7 POP POP POP POP POP POP POP JUMP JUMPDEST PUSH1 0x0 DUP1 PUSH1 0x40 DUP4 DUP6 SUB SLT ISZERO PUSH2 0x40EC JUMPI PUSH1 0x0 DUP1 REVERT JUMPDEST PUSH2 0x40F5 DUP4 PUSH2 0x3A40 JUMP JUMPDEST SWAP2 POP PUSH2 0x4103 PUSH1 0x20 DUP5 ADD PUSH2 0x3A40 JUMP JUMPDEST SWAP1 POP SWAP3 POP SWAP3 SWAP1 POP JUMP JUMPDEST PUSH1 0x0 DUP1 PUSH1 0x40 DUP4 DUP6 SUB SLT ISZERO PUSH2 0x411F JUMPI PUSH1 0x0 DUP1 REVERT JUMPDEST DUP3 CALLDATALOAD PUSH1 0x1 PUSH1 0x1 PUSH1 0x40 SHL SUB DUP1 DUP3 GT ISZERO PUSH2 0x4136 JUMPI PUSH1 0x0 DUP1 REVERT JUMPDEST PUSH2 0x4142 DUP7 DUP4 DUP8 ADD PUSH2 0x3DD9 JUMP JUMPDEST SWAP4 POP PUSH1 0x20 SWAP2 POP DUP2 DUP6 ADD CALLDATALOAD DUP2 DUP2 GT ISZERO PUSH2 0x4159 JUMPI PUSH1 0x0 DUP1 REVERT JUMPDEST DUP6 ADD PUSH1 0x1F DUP2 ADD DUP8 SGT PUSH2 0x416A JUMPI PUSH1 0x0 DUP1 REVERT JUMPDEST DUP1 CALLDATALOAD PUSH2 0x4175 DUP2 PUSH2 0x3B72 JUMP JUMPDEST PUSH1 0x40 MLOAD PUSH2 0x4182 DUP3 DUP3 PUSH2 0x3B46 JUMP JUMPDEST DUP3 DUP2 MSTORE PUSH1 0x5 SWAP3 SWAP1 SWAP3 SHL DUP4 ADD DUP6 ADD SWAP2 DUP6 DUP2 ADD SWAP2 POP DUP10 DUP4 GT ISZERO PUSH2 0x41A2 JUMPI PUSH1 0x0 DUP1 REVERT JUMPDEST DUP6 DUP5 ADD JUMPDEST DUP4 DUP2 LT ISZERO PUSH2 0x41DA JUMPI DUP1 CALLDATALOAD DUP7 DUP2 GT ISZERO PUSH2 0x41BE JUMPI PUSH1 0x0 DUP1 DUP2 REVERT JUMPDEST PUSH2 0x41CC DUP13 DUP10 DUP4 DUP10 ADD ADD PUSH2 0x3B95 JUMP JUMPDEST DUP5 MSTORE POP SWAP2 DUP7 ADD SWAP2 DUP7 ADD PUSH2 0x41A6 JUMP JUMPDEST POP DUP1 SWAP7 POP POP POP POP POP POP POP SWAP3 POP SWAP3 SWAP1 POP JUMP JUMPDEST PUSH1 0x0 PUSH1 0x20 DUP3 DUP5 SUB SLT ISZERO PUSH2 0x41FD JUMPI PUSH1 0x0 DUP1 REVERT JUMPDEST PUSH2 0x3585 DUP3 PUSH2 0x3A40 JUMP JUMPDEST PUSH1 0x0 DUP1 PUSH1 0x0 DUP1 PUSH1 0x0 PUSH1 0xA0 DUP7 DUP9 SUB SLT ISZERO PUSH2 0x421E JUMPI PUSH1 0x0 DUP1 REVERT JUMPDEST PUSH2 0x4227 DUP7 PUSH2 0x3A40 JUMP JUMPDEST SWAP5 POP PUSH2 0x4235 PUSH1 0x20 DUP8 ADD PUSH2 0x3A40 JUMP JUMPDEST SWAP4 POP PUSH1 0x40 DUP7 ADD CALLDATALOAD SWAP3 POP PUSH1 0x60 DUP7 ADD CALLDATALOAD SWAP2 POP PUSH1 0x80 DUP7 ADD CALLDATALOAD PUSH1 0x1 PUSH1 0x1 PUSH1 0x40 SHL SUB DUP2 GT ISZERO PUSH2 0x425E JUMPI PUSH1 0x0 DUP1 REVERT JUMPDEST PUSH2 0x3D5B DUP9 DUP3 DUP10 ADD PUSH2 0x3C4C JUMP JUMPDEST PUSH1 0x0 DUP1 PUSH1 0x0 PUSH1 0x60 DUP5 DUP7 SUB SLT ISZERO PUSH2 0x427F JUMPI PUSH1 0x0 DUP1 REVERT JUMPDEST PUSH2 0x4288 DUP5 PUSH2 0x3A40 JUMP JUMPDEST SWAP6 PUSH1 0x20 DUP6 ADD CALLDATALOAD SWAP6 POP PUSH1 0x40 SWAP1 SWAP5 ADD CALLDATALOAD SWAP4 SWAP3 POP POP POP JUMP JUMPDEST PUSH1 0x20 DUP1 DUP3 MSTORE PUSH1 0x1A SWAP1 DUP3 ADD MSTORE PUSH32 0x4C6F7474657279206861736E2774207374617274656420796574000000000000 PUSH1 0x40 DUP3 ADD MSTORE PUSH1 0x60 ADD SWAP1 JUMP JUMPDEST PUSH1 0x20 DUP1 DUP3 MSTORE PUSH1 0x1E SWAP1 DUP3 ADD MSTORE PUSH32 0x466972737420526F756E64206861736E27742073746172746564207965740000 PUSH1 0x40 DUP3 ADD MSTORE PUSH1 0x60 ADD SWAP1 JUMP JUMPDEST PUSH4 0x4E487B71 PUSH1 0xE0 SHL PUSH1 0x0 MSTORE PUSH1 0x11 PUSH1 0x4 MSTORE PUSH1 0x24 PUSH1 0x0 REVERT JUMPDEST DUP2 DUP2 SUB DUP2 DUP2 GT ISZERO PUSH2 0x947 JUMPI PUSH2 0x947 PUSH2 0x430B JUMP JUMPDEST PUSH4 0x4E487B71 PUSH1 0xE0 SHL PUSH1 0x0 MSTORE PUSH1 0x32 PUSH1 0x4 MSTORE PUSH1 0x24 PUSH1 0x0 REVERT JUMPDEST PUSH1 0x20 DUP1 DUP3 MSTORE PUSH1 0x16 SWAP1 DUP3 ADD MSTORE PUSH22 0x2A3434B9903937BAB7321030B63932B0B23C903BB7B7 PUSH1 0x51 SHL PUSH1 0x40 DUP3 ADD MSTORE PUSH1 0x60 ADD SWAP1 JUMP JUMPDEST PUSH1 0x0 PUSH1 0x1 DUP3 ADD PUSH2 0x438C JUMPI PUSH2 0x438C PUSH2 0x430B JUMP JUMPDEST POP PUSH1 0x1 ADD SWAP1 JUMP JUMPDEST DUP1 DUP3 ADD DUP1 DUP3 GT ISZERO PUSH2 0x947 JUMPI PUSH2 0x947 PUSH2 0x430B JUMP JUMPDEST PUSH32 0x697066733A2F2F516D5571446E7A484C6971586250527A58454D414B46764A63 DUP2 MSTORE PUSH22 0x75505255323863445262716252674C4C5644504B532F PUSH1 0x50 SHL PUSH1 0x20 DUP3 ADD MSTORE PUSH1 0x0 DUP3 MLOAD PUSH2 0x43FD DUP2 PUSH1 0x36 DUP6 ADD PUSH1 0x20 DUP8 ADD PUSH2 0x3ACD JUMP JUMPDEST PUSH5 0x173539B7B7 PUSH1 0xD9 SHL PUSH1 0x36 SWAP4 SWAP1 SWAP2 ADD SWAP3 DUP4 ADD MSTORE POP PUSH1 0x3B ADD SWAP2 SWAP1 POP JUMP JUMPDEST PUSH4 0x4E487B71 PUSH1 0xE0 SHL PUSH1 0x0 MSTORE PUSH1 0x12 PUSH1 0x4 MSTORE PUSH1 0x24 PUSH1 0x0 REVERT JUMPDEST PUSH1 0x0 DUP3 PUSH2 0x443E JUMPI PUSH2 0x443E PUSH2 0x4419 JUMP JUMPDEST POP MOD SWAP1 JUMP JUMPDEST PUSH1 0x20 DUP1 DUP3 MSTORE PUSH1 0x16 SWAP1 DUP3 ADD MSTORE PUSH22 0x135A5B9D081A5CDB89DD08195B98589B1959081E595D PUSH1 0x52 SHL PUSH1 0x40 DUP3 ADD MSTORE PUSH1 0x60 ADD SWAP1 JUMP JUMPDEST PUSH1 0x20 DUP1 DUP3 MSTORE PUSH1 0x16 SWAP1 DUP3 ADD MSTORE PUSH22 0x135A5B9D081A185CC8185B1C9958591E48195B991959 PUSH1 0x52 SHL PUSH1 0x40 DUP3 ADD MSTORE PUSH1 0x60 ADD SWAP1 JUMP JUMPDEST PUSH1 0x20 DUP1 DUP3 MSTORE PUSH1 0x14 SWAP1 DUP3 ADD MSTORE PUSH20 0x4578636565647320746F74616C20737570706C79 PUSH1 0x60 SHL PUSH1 0x40 DUP3 ADD MSTORE PUSH1 0x60 ADD SWAP1 JUMP JUMPDEST DUP1 DUP3 MUL DUP2 ISZERO DUP3 DUP3 DIV DUP5 EQ OR PUSH2 0x947 JUMPI PUSH2 0x947 PUSH2 0x430B JUMP JUMPDEST PUSH1 0x20 DUP1 DUP3 MSTORE PUSH1 0x2E SWAP1 DUP3 ADD MSTORE PUSH32 0x455243313135353A2063616C6C6572206973206E6F7420746F6B656E206F776E PUSH1 0x40 DUP3 ADD MSTORE PUSH14 0x195C881BDC88185C1C1C9BDD9959 PUSH1 0x92 SHL PUSH1 0x60 DUP3 ADD MSTORE PUSH1 0x80 ADD SWAP1 JUMP JUMPDEST PUSH1 0x40 DUP2 ADD DUP2 DUP4 PUSH1 0x0 JUMPDEST PUSH1 0x2 DUP2 LT ISZERO PUSH2 0x455E JUMPI DUP2 MLOAD DUP4 MSTORE PUSH1 0x20 SWAP3 DUP4 ADD SWAP3 SWAP1 SWAP2 ADD SWAP1 PUSH1 0x1 ADD PUSH2 0x453F JUMP JUMPDEST POP POP POP SWAP3 SWAP2 POP POP JUMP JUMPDEST PUSH1 0x20 DUP1 DUP3 MSTORE PUSH1 0x23 SWAP1 DUP3 ADD MSTORE PUSH32 0x455243313135353A206275726E2066726F6D20746865207A65726F2061646472 PUSH1 0x40 DUP3 ADD MSTORE PUSH3 0x657373 PUSH1 0xE8 SHL PUSH1 0x60 DUP3 ADD MSTORE PUSH1 0x80 ADD SWAP1 JUMP JUMPDEST PUSH1 0x20 DUP1 DUP3 MSTORE PUSH1 0x24 SWAP1 DUP3 ADD MSTORE PUSH32 0x455243313135353A206275726E20616D6F756E7420657863656564732062616C PUSH1 0x40 DUP3 ADD MSTORE PUSH4 0x616E6365 PUSH1 0xE0 SHL PUSH1 0x60 DUP3 ADD MSTORE PUSH1 0x80 ADD SWAP1 JUMP JUMPDEST PUSH1 0x20 DUP1 DUP3 MSTORE PUSH1 0x25 SWAP1 DUP3 ADD MSTORE PUSH32 0x455243313135353A207472616E7366657220746F20746865207A65726F206164 PUSH1 0x40 DUP3 ADD MSTORE PUSH5 0x6472657373 PUSH1 0xD8 SHL PUSH1 0x60 DUP3 ADD MSTORE PUSH1 0x80 ADD SWAP1 JUMP JUMPDEST PUSH1 0x20 DUP1 DUP3 MSTORE PUSH1 0x2A SWAP1 DUP3 ADD MSTORE PUSH32 0x455243313135353A20696E73756666696369656E742062616C616E636520666F PUSH1 0x40 DUP3 ADD MSTORE PUSH10 0x39103A3930B739B332B9 PUSH1 0xB1 SHL PUSH1 0x60 DUP3 ADD MSTORE PUSH1 0x80 ADD SWAP1 JUMP JUMPDEST PUSH1 0x20 DUP1 DUP3 MSTORE PUSH1 0x28 SWAP1 DUP3 ADD MSTORE PUSH32 0x455243313135353A2069647320616E6420616D6F756E7473206C656E67746820 PUSH1 0x40 DUP3 ADD MSTORE PUSH8 0xDAD2E6DAC2E8C6D PUSH1 0xC3 SHL PUSH1 0x60 DUP3 ADD MSTORE PUSH1 0x80 ADD SWAP1 JUMP JUMPDEST PUSH1 0x40 DUP2 MSTORE PUSH1 0x0 PUSH2 0x46D8 PUSH1 0x40 DUP4 ADD DUP6 PUSH2 0x3E9F JUMP JUMPDEST DUP3 DUP2 SUB PUSH1 0x20 DUP5 ADD MSTORE PUSH2 0x46EA DUP2 DUP6 PUSH2 0x3E9F JUMP JUMPDEST SWAP6 SWAP5 POP POP POP POP POP JUMP JUMPDEST PUSH1 0x0 DUP3 PUSH2 0x4702 JUMPI PUSH2 0x4702 PUSH2 0x4419 JUMP JUMPDEST POP DIV SWAP1 JUMP JUMPDEST PUSH1 0x1 PUSH1 0x1 PUSH1 0xA0 SHL SUB DUP7 DUP2 AND DUP3 MSTORE DUP6 AND PUSH1 0x20 DUP3 ADD MSTORE PUSH1 0x40 DUP2 ADD DUP5 SWAP1 MSTORE PUSH1 0x60 DUP2 ADD DUP4 SWAP1 MSTORE PUSH1 0xA0 PUSH1 0x80 DUP3 ADD DUP2 SWAP1 MSTORE PUSH1 0x0 SWAP1 PUSH2 0x40CE SWAP1 DUP4 ADD DUP5 PUSH2 0x3AF1 JUMP JUMPDEST PUSH1 0x0 PUSH1 0x20 DUP3 DUP5 SUB SLT ISZERO PUSH2 0x4753 JUMPI PUSH1 0x0 DUP1 REVERT JUMPDEST DUP2 MLOAD PUSH2 0x3585 DUP2 PUSH2 0x3A81 JUMP JUMPDEST PUSH1 0x0 PUSH1 0x3 RETURNDATASIZE GT ISZERO PUSH2 0x4777 JUMPI PUSH1 0x4 PUSH1 0x0 DUP1 RETURNDATACOPY POP PUSH1 0x0 MLOAD PUSH1 0xE0 SHR JUMPDEST SWAP1 JUMP JUMPDEST PUSH1 0x0 PUSH1 0x44 RETURNDATASIZE LT ISZERO PUSH2 0x4788 JUMPI SWAP1 JUMP JUMPDEST PUSH1 0x40 MLOAD PUSH1 0x3 NOT RETURNDATASIZE DUP2 ADD PUSH1 0x4 DUP4 RETURNDATACOPY DUP2 MLOAD RETURNDATASIZE PUSH1 0x1 PUSH1 0x1 PUSH1 0x40 SHL SUB DUP2 PUSH1 0x24 DUP5 ADD GT DUP2 DUP5 GT OR ISZERO PUSH2 0x47B7 JUMPI POP POP POP POP POP SWAP1 JUMP JUMPDEST DUP3 DUP6 ADD SWAP2 POP DUP2 MLOAD DUP2 DUP2 GT ISZERO PUSH2 0x47CF JUMPI POP POP POP POP POP POP SWAP1 JUMP JUMPDEST DUP5 RETURNDATASIZE DUP8 ADD ADD PUSH1 0x20 DUP3 DUP6 ADD ADD GT ISZERO PUSH2 0x47E9 JUMPI POP POP POP POP POP POP SWAP1 JUMP JUMPDEST PUSH2 0x47F8 PUSH1 0x20 DUP3 DUP7 ADD ADD DUP8 PUSH2 0x3B46 JUMP JUMPDEST POP SWAP1 SWAP6 SWAP5 POP POP POP POP POP JUMP JUMPDEST PUSH1 0x20 DUP1 DUP3 MSTORE PUSH1 0x28 SWAP1 DUP3 ADD MSTORE PUSH32 0x455243313135353A204552433131353552656365697665722072656A65637465 PUSH1 0x40 DUP3 ADD MSTORE PUSH8 0x6420746F6B656E73 PUSH1 0xC0 SHL PUSH1 0x60 DUP3 ADD MSTORE PUSH1 0x80 ADD SWAP1 JUMP JUMPDEST PUSH1 0x1 PUSH1 0x1 PUSH1 0xA0 SHL SUB DUP7 DUP2 AND DUP3 MSTORE DUP6 AND PUSH1 0x20 DUP3 ADD MSTORE PUSH1 0xA0 PUSH1 0x40 DUP3 ADD DUP2 SWAP1 MSTORE PUSH1 0x0 SWAP1 PUSH2 0x4877 SWAP1 DUP4 ADD DUP7 PUSH2 0x3E9F JUMP JUMPDEST DUP3 DUP2 SUB PUSH1 0x60 DUP5 ADD MSTORE PUSH2 0x4889 DUP2 DUP7 PUSH2 0x3E9F JUMP JUMPDEST SWAP1 POP DUP3 DUP2 SUB PUSH1 0x80 DUP5 ADD MSTORE PUSH2 0x489D DUP2 DUP6 PUSH2 0x3AF1 JUMP JUMPDEST SWAP9 SWAP8 POP POP POP POP POP POP POP POP JUMP INVALID 0xEC PUSH20 0x378903CF937F81AA3171F8BC786D9A8DB072A819 0xDD SAR 0xBD JUMP SWAP3 BLOCKHASH 0x2D 0xCA EXTCODEHASH SWAP6 LOG2 PUSH5 0x6970667358 0x22 SLT KECCAK256 0x26 0xB0 DUP10 0xD4 0xC0 LOG4 SWAP14 0xD0 MLOAD 0x1F 0xC JUMPDEST PUSH28 0xDE59D0B371527BBBA5D9162EA95F1AB8260B5064736F6C6343000811 STOP CALLER PUSH10 0x7066733A2F2F516D5847 PUSH7 0x353469445A5444 JUMPI MSTORE8 CHAINID 0x4A MSTORE8 BALANCE SELFBALANCE CALLER MSTORE CHAINID 0x4E PUSH15 0x52663438644A32754D48424E76444E PUSH19 0x585532376F542F7B69647D2E6A736F6E000000 "
		},
		"gasEstimates": {
			"creation": {
				"codeDepositCost": "3737400",
				"executionCost": "infinite",
				"totalCost": "infinite"
			},
			"external": {
				"BURNED()": "339",
				"addFunds()": "207",
				"balanceOf(address,uint256)": "2723",
				"balanceOfBatch(address[],uint256[])": "infinite",
				"botAccounts(uint256)": "2612",
				"burn(address,uint256,uint256)": "infinite",
				"burnBatch(address,uint256[],uint256[])": "infinite",
				"burned()": "2330",
				"checkUpkeep(bytes)": "infinite",
				"chunk()": "2440",
				"encodeData(uint256)": "infinite",
				"interval()": "2440",
				"isApprovedForAll(address,address)": "infinite",
				"isPublic()": "2438",
				"isRevealed()": "2466",
				"launchLottery()": "infinite",
				"launchMint()": "infinite",
				"launchPublicMint()": "infinite",
				"launchReveal()": "infinite",
				"lotteryRound()": "2373",
				"maxPerWallet(uint256)": "2475",
				"mintPrices(uint256)": "2452",
				"mintSupply()": "2397",
				"minted()": "2418",
				"ownerWallet()": "2482",
				"performUpkeep(bytes)": "infinite",
				"playLottery(uint256)": "infinite",
				"publicMint(uint256)": "infinite",
				"resetContract(address[],uint256[][])": "infinite",
				"rewardPool()": "2351",
				"rewards(uint256)": "2473",
				"root()": "2439",
				"roundWon(uint256)": "2474",
				"safeBatchTransferFrom(address,address,uint256[],uint256[],bytes)": "infinite",
				"safeTransferFrom(address,address,uint256,uint256,bytes)": "infinite",
				"setApprovalForAll(address,bool)": "26772",
				"setLotteryRound(uint256,uint256[])": "infinite",
				"stage()": "2351",
				"supportsInterface(bytes4)": "601",
				"tokenEligible(uint256)": "2495",
				"triggerToLastTimeStamp(uint256)": "2517",
				"updatePerWallet(uint256[2])": "infinite",
				"updatePrices(uint256[2])": "infinite",
				"updateSupply(uint256)": "23538",
				"updateWL(bytes32)": "23190",
				"uri(uint256)": "infinite",
				"walletMints(address)": "2597",
				"withdraw()": "infinite",
				"wlMint(bytes32[])": "infinite"
			},
			"internal": {
				"botLottery()": "infinite",
				"botMint()": "infinite",
				"getRandomNumber()": "infinite",
				"isValid(bytes32[] memory,bytes32)": "infinite",
				"setRewards()": "infinite"
			}
		},
		"methodIdentifiers": {
			"BURNED()": "71f71994",
			"addFunds()": "a26759cb",
			"balanceOf(address,uint256)": "00fdd58e",
			"balanceOfBatch(address[],uint256[])": "4e1273f4",
			"botAccounts(uint256)": "ad4834dc",
			"burn(address,uint256,uint256)": "f5298aca",
			"burnBatch(address,uint256[],uint256[])": "6b20c454",
			"burned()": "73f42561",
			"checkUpkeep(bytes)": "6e04ff0d",
			"chunk()": "32fe5acf",
			"encodeData(uint256)": "a7521a89",
			"interval()": "947a36fb",
			"isApprovedForAll(address,address)": "e985e9c5",
			"isPublic()": "dc9a1535",
			"isRevealed()": "54214f69",
			"launchLottery()": "81a02ae7",
			"launchMint()": "2b71f5e0",
			"launchPublicMint()": "f634f8dd",
			"launchReveal()": "0aa3c754",
			"lotteryRound()": "c5196426",
			"maxPerWallet(uint256)": "237b7733",
			"mintPrices(uint256)": "6187b33e",
			"mintSupply()": "045b7dca",
			"minted()": "4f02c420",
			"ownerWallet()": "9335dcb7",
			"performUpkeep(bytes)": "4585e33b",
			"playLottery(uint256)": "03ddcab8",
			"publicMint(uint256)": "2db11544",
			"resetContract(address[],uint256[][])": "ed2239e9",
			"rewardPool()": "66666aa9",
			"rewards(uint256)": "f301af42",
			"root()": "ebf0c717",
			"roundWon(uint256)": "98cd0447",
			"safeBatchTransferFrom(address,address,uint256[],uint256[],bytes)": "2eb2c2d6",
			"safeTransferFrom(address,address,uint256,uint256,bytes)": "f242432a",
			"setApprovalForAll(address,bool)": "a22cb465",
			"setLotteryRound(uint256,uint256[])": "14c3eeee",
			"stage()": "c040e6b8",
			"supportsInterface(bytes4)": "01ffc9a7",
			"tokenEligible(uint256)": "95f08182",
			"triggerToLastTimeStamp(uint256)": "84590b5c",
			"updatePerWallet(uint256[2])": "85b87fc0",
			"updatePrices(uint256[2])": "ff897bdd",
			"updateSupply(uint256)": "6bd08049",
			"updateWL(bytes32)": "4800cbc8",
			"uri(uint256)": "0e89341c",
			"walletMints(address)": "f0293fd3",
			"withdraw()": "3ccfd60b",
			"wlMint(bytes32[])": "b0ea7dcf"
		}
	},
	"abi": [
		{
			"inputs": [],
			"stateMutability": "payable",
			"type": "constructor"
		},
		{
			"anonymous": false,
			"inputs": [
				{
					"indexed": true,
					"internalType": "address",
					"name": "account",
					"type": "address"
				},
				{
					"indexed": true,
					"internalType": "address",
					"name": "operator",
					"type": "address"
				},
				{
					"indexed": false,
					"internalType": "bool",
					"name": "approved",
					"type": "bool"
				}
			],
			"name": "ApprovalForAll",
			"type": "event"
		},
		{
			"anonymous": false,
			"inputs": [
				{
					"indexed": false,
					"internalType": "uint256[2]",
					"name": "maxPW",
					"type": "uint256[2]"
				}
			],
			"name": "MaxPWUpdated",
			"type": "event"
		},
		{
			"anonymous": false,
			"inputs": [
				{
					"indexed": false,
					"internalType": "uint256",
					"name": "tokenId",
					"type": "uint256"
				}
			],
			"name": "Minted",
			"type": "event"
		},
		{
			"anonymous": false,
			"inputs": [
				{
					"indexed": false,
					"internalType": "address",
					"name": "account",
					"type": "address"
				}
			],
			"name": "MintedMax",
			"type": "event"
		},
		{
			"anonymous": false,
			"inputs": [
				{
					"indexed": false,
					"internalType": "uint256[2]",
					"name": "prices",
					"type": "uint256[2]"
				}
			],
			"name": "PricesUpdated",
			"type": "event"
		},
		{
			"anonymous": false,
			"inputs": [],
			"name": "Reset",
			"type": "event"
		},
		{
			"anonymous": false,
			"inputs": [
				{
					"indexed": false,
					"internalType": "uint256",
					"name": "round",
					"type": "uint256"
				}
			],
			"name": "RoundLaunched",
			"type": "event"
		},
		{
			"anonymous": false,
			"inputs": [
				{
					"indexed": false,
					"internalType": "uint256",
					"name": "round",
					"type": "uint256"
				},
				{
					"indexed": false,
					"internalType": "uint256",
					"name": "tokenId",
					"type": "uint256"
				}
			],
			"name": "RoundWins",
			"type": "event"
		},
		{
			"anonymous": false,
			"inputs": [
				{
					"indexed": false,
					"internalType": "uint256",
					"name": "stage",
					"type": "uint256"
				}
			],
			"name": "StageLaunched",
			"type": "event"
		},
		{
			"anonymous": false,
			"inputs": [
				{
					"indexed": false,
					"internalType": "uint256",
					"name": "supply",
					"type": "uint256"
				}
			],
			"name": "SupplyUpdated",
			"type": "event"
		},
		{
			"anonymous": false,
			"inputs": [
				{
					"indexed": true,
					"internalType": "address",
					"name": "operator",
					"type": "address"
				},
				{
					"indexed": true,
					"internalType": "address",
					"name": "from",
					"type": "address"
				},
				{
					"indexed": true,
					"internalType": "address",
					"name": "to",
					"type": "address"
				},
				{
					"indexed": false,
					"internalType": "uint256[]",
					"name": "ids",
					"type": "uint256[]"
				},
				{
					"indexed": false,
					"internalType": "uint256[]",
					"name": "values",
					"type": "uint256[]"
				}
			],
			"name": "TransferBatch",
			"type": "event"
		},
		{
			"anonymous": false,
			"inputs": [
				{
					"indexed": true,
					"internalType": "address",
					"name": "operator",
					"type": "address"
				},
				{
					"indexed": true,
					"internalType": "address",
					"name": "from",
					"type": "address"
				},
				{
					"indexed": true,
					"internalType": "address",
					"name": "to",
					"type": "address"
				},
				{
					"indexed": false,
					"internalType": "uint256",
					"name": "id",
					"type": "uint256"
				},
				{
					"indexed": false,
					"internalType": "uint256",
					"name": "value",
					"type": "uint256"
				}
			],
			"name": "TransferSingle",
			"type": "event"
		},
		{
			"anonymous": false,
			"inputs": [
				{
					"indexed": false,
					"internalType": "string",
					"name": "value",
					"type": "string"
				},
				{
					"indexed": true,
					"internalType": "uint256",
					"name": "id",
					"type": "uint256"
				}
			],
			"name": "URI",
			"type": "event"
		},
		{
			"anonymous": false,
			"inputs": [],
			"name": "WLUpdated",
			"type": "event"
		},
		{
			"anonymous": false,
			"inputs": [
				{
					"indexed": false,
					"internalType": "uint256",
					"name": "balance",
					"type": "uint256"
				}
			],
			"name": "Withdrawal",
			"type": "event"
		},
		{
			"inputs": [],
			"name": "BURNED",
			"outputs": [
				{
					"internalType": "uint256",
					"name": "",
					"type": "uint256"
				}
			],
			"stateMutability": "view",
			"type": "function"
		},
		{
			"inputs": [],
			"name": "addFunds",
			"outputs": [],
			"stateMutability": "payable",
			"type": "function"
		},
		{
			"inputs": [
				{
					"internalType": "address",
					"name": "account",
					"type": "address"
				},
				{
					"internalType": "uint256",
					"name": "id",
					"type": "uint256"
				}
			],
			"name": "balanceOf",
			"outputs": [
				{
					"internalType": "uint256",
					"name": "",
					"type": "uint256"
				}
			],
			"stateMutability": "view",
			"type": "function"
		},
		{
			"inputs": [
				{
					"internalType": "address[]",
					"name": "accounts",
					"type": "address[]"
				},
				{
					"internalType": "uint256[]",
					"name": "ids",
					"type": "uint256[]"
				}
			],
			"name": "balanceOfBatch",
			"outputs": [
				{
					"internalType": "uint256[]",
					"name": "",
					"type": "uint256[]"
				}
			],
			"stateMutability": "view",
			"type": "function"
		},
		{
			"inputs": [
				{
					"internalType": "uint256",
					"name": "",
					"type": "uint256"
				}
			],
			"name": "botAccounts",
			"outputs": [
				{
					"internalType": "address",
					"name": "",
					"type": "address"
				}
			],
			"stateMutability": "view",
			"type": "function"
		},
		{
			"inputs": [
				{
					"internalType": "address",
					"name": "account",
					"type": "address"
				},
				{
					"internalType": "uint256",
					"name": "id",
					"type": "uint256"
				},
				{
					"internalType": "uint256",
					"name": "value",
					"type": "uint256"
				}
			],
			"name": "burn",
			"outputs": [],
			"stateMutability": "nonpayable",
			"type": "function"
		},
		{
			"inputs": [
				{
					"internalType": "address",
					"name": "account",
					"type": "address"
				},
				{
					"internalType": "uint256[]",
					"name": "ids",
					"type": "uint256[]"
				},
				{
					"internalType": "uint256[]",
					"name": "values",
					"type": "uint256[]"
				}
			],
			"name": "burnBatch",
			"outputs": [],
			"stateMutability": "nonpayable",
			"type": "function"
		},
		{
			"inputs": [],
			"name": "burned",
			"outputs": [
				{
					"internalType": "uint256",
					"name": "",
					"type": "uint256"
				}
			],
			"stateMutability": "view",
			"type": "function"
		},
		{
			"inputs": [
				{
					"internalType": "bytes",
					"name": "checkData",
					"type": "bytes"
				}
			],
			"name": "checkUpkeep",
			"outputs": [
				{
					"internalType": "bool",
					"name": "upkeepNeeded",
					"type": "bool"
				},
				{
					"internalType": "bytes",
					"name": "performData",
					"type": "bytes"
				}
			],
			"stateMutability": "view",
			"type": "function"
		},
		{
			"inputs": [],
			"name": "chunk",
			"outputs": [
				{
					"internalType": "uint256",
					"name": "",
					"type": "uint256"
				}
			],
			"stateMutability": "view",
			"type": "function"
		},
		{
			"inputs": [
				{
					"internalType": "uint256",
					"name": "_data",
					"type": "uint256"
				}
			],
			"name": "encodeData",
			"outputs": [
				{
					"internalType": "bytes",
					"name": "",
					"type": "bytes"
				}
			],
			"stateMutability": "pure",
			"type": "function"
		},
		{
			"inputs": [],
			"name": "interval",
			"outputs": [
				{
					"internalType": "uint256",
					"name": "",
					"type": "uint256"
				}
			],
			"stateMutability": "view",
			"type": "function"
		},
		{
			"inputs": [
				{
					"internalType": "address",
					"name": "account",
					"type": "address"
				},
				{
					"internalType": "address",
					"name": "operator",
					"type": "address"
				}
			],
			"name": "isApprovedForAll",
			"outputs": [
				{
					"internalType": "bool",
					"name": "",
					"type": "bool"
				}
			],
			"stateMutability": "view",
			"type": "function"
		},
		{
			"inputs": [],
			"name": "isPublic",
			"outputs": [
				{
					"internalType": "bool",
					"name": "",
					"type": "bool"
				}
			],
			"stateMutability": "view",
			"type": "function"
		},
		{
			"inputs": [],
			"name": "isRevealed",
			"outputs": [
				{
					"internalType": "bool",
					"name": "",
					"type": "bool"
				}
			],
			"stateMutability": "view",
			"type": "function"
		},
		{
			"inputs": [],
			"name": "launchLottery",
			"outputs": [],
			"stateMutability": "nonpayable",
			"type": "function"
		},
		{
			"inputs": [],
			"name": "launchMint",
			"outputs": [],
			"stateMutability": "nonpayable",
			"type": "function"
		},
		{
			"inputs": [],
			"name": "launchPublicMint",
			"outputs": [],
			"stateMutability": "nonpayable",
			"type": "function"
		},
		{
			"inputs": [],
			"name": "launchReveal",
			"outputs": [],
			"stateMutability": "nonpayable",
			"type": "function"
		},
		{
			"inputs": [],
			"name": "lotteryRound",
			"outputs": [
				{
					"internalType": "uint256",
					"name": "",
					"type": "uint256"
				}
			],
			"stateMutability": "view",
			"type": "function"
		},
		{
			"inputs": [
				{
					"internalType": "uint256",
					"name": "",
					"type": "uint256"
				}
			],
			"name": "maxPerWallet",
			"outputs": [
				{
					"internalType": "uint256",
					"name": "",
					"type": "uint256"
				}
			],
			"stateMutability": "view",
			"type": "function"
		},
		{
			"inputs": [
				{
					"internalType": "uint256",
					"name": "",
					"type": "uint256"
				}
			],
			"name": "mintPrices",
			"outputs": [
				{
					"internalType": "uint256",
					"name": "",
					"type": "uint256"
				}
			],
			"stateMutability": "view",
			"type": "function"
		},
		{
			"inputs": [],
			"name": "mintSupply",
			"outputs": [
				{
					"internalType": "uint256",
					"name": "",
					"type": "uint256"
				}
			],
			"stateMutability": "view",
			"type": "function"
		},
		{
			"inputs": [],
			"name": "minted",
			"outputs": [
				{
					"internalType": "uint256",
					"name": "",
					"type": "uint256"
				}
			],
			"stateMutability": "view",
			"type": "function"
		},
		{
			"inputs": [],
			"name": "ownerWallet",
			"outputs": [
				{
					"internalType": "address payable",
					"name": "",
					"type": "address"
				}
			],
			"stateMutability": "view",
			"type": "function"
		},
		{
			"inputs": [
				{
					"internalType": "bytes",
					"name": "performData",
					"type": "bytes"
				}
			],
			"name": "performUpkeep",
			"outputs": [],
			"stateMutability": "nonpayable",
			"type": "function"
		},
		{
			"inputs": [
				{
					"internalType": "uint256",
					"name": "tokenId_",
					"type": "uint256"
				}
			],
			"name": "playLottery",
			"outputs": [],
			"stateMutability": "nonpayable",
			"type": "function"
		},
		{
			"inputs": [
				{
					"internalType": "uint256",
					"name": "quantity_",
					"type": "uint256"
				}
			],
			"name": "publicMint",
			"outputs": [],
			"stateMutability": "payable",
			"type": "function"
		},
		{
			"inputs": [
				{
					"internalType": "address[]",
					"name": "accounts",
					"type": "address[]"
				},
				{
					"internalType": "uint256[][]",
					"name": "tokens",
					"type": "uint256[][]"
				}
			],
			"name": "resetContract",
			"outputs": [],
			"stateMutability": "nonpayable",
			"type": "function"
		},
		{
			"inputs": [],
			"name": "rewardPool",
			"outputs": [
				{
					"internalType": "uint256",
					"name": "",
					"type": "uint256"
				}
			],
			"stateMutability": "view",
			"type": "function"
		},
		{
			"inputs": [
				{
					"internalType": "uint256",
					"name": "",
					"type": "uint256"
				}
			],
			"name": "rewards",
			"outputs": [
				{
					"internalType": "uint256",
					"name": "",
					"type": "uint256"
				}
			],
			"stateMutability": "view",
			"type": "function"
		},
		{
			"inputs": [],
			"name": "root",
			"outputs": [
				{
					"internalType": "bytes32",
					"name": "",
					"type": "bytes32"
				}
			],
			"stateMutability": "view",
			"type": "function"
		},
		{
			"inputs": [
				{
					"internalType": "uint256",
					"name": "",
					"type": "uint256"
				}
			],
			"name": "roundWon",
			"outputs": [
				{
					"internalType": "uint256",
					"name": "",
					"type": "uint256"
				}
			],
			"stateMutability": "view",
			"type": "function"
		},
		{
			"inputs": [
				{
					"internalType": "address",
					"name": "from",
					"type": "address"
				},
				{
					"internalType": "address",
					"name": "to",
					"type": "address"
				},
				{
					"internalType": "uint256[]",
					"name": "ids",
					"type": "uint256[]"
				},
				{
					"internalType": "uint256[]",
					"name": "amounts",
					"type": "uint256[]"
				},
				{
					"internalType": "bytes",
					"name": "data",
					"type": "bytes"
				}
			],
			"name": "safeBatchTransferFrom",
			"outputs": [],
			"stateMutability": "nonpayable",
			"type": "function"
		},
		{
			"inputs": [
				{
					"internalType": "address",
					"name": "from",
					"type": "address"
				},
				{
					"internalType": "address",
					"name": "to",
					"type": "address"
				},
				{
					"internalType": "uint256",
					"name": "id",
					"type": "uint256"
				},
				{
					"internalType": "uint256",
					"name": "amount",
					"type": "uint256"
				},
				{
					"internalType": "bytes",
					"name": "data",
					"type": "bytes"
				}
			],
			"name": "safeTransferFrom",
			"outputs": [],
			"stateMutability": "nonpayable",
			"type": "function"
		},
		{
			"inputs": [
				{
					"internalType": "address",
					"name": "operator",
					"type": "address"
				},
				{
					"internalType": "bool",
					"name": "approved",
					"type": "bool"
				}
			],
			"name": "setApprovalForAll",
			"outputs": [],
			"stateMutability": "nonpayable",
			"type": "function"
		},
		{
			"inputs": [
				{
					"internalType": "uint256",
					"name": "_round",
					"type": "uint256"
				},
				{
					"internalType": "uint256[]",
					"name": "tokens",
					"type": "uint256[]"
				}
			],
			"name": "setLotteryRound",
			"outputs": [],
			"stateMutability": "nonpayable",
			"type": "function"
		},
		{
			"inputs": [],
			"name": "stage",
			"outputs": [
				{
					"internalType": "uint256",
					"name": "",
					"type": "uint256"
				}
			],
			"stateMutability": "view",
			"type": "function"
		},
		{
			"inputs": [
				{
					"internalType": "bytes4",
					"name": "interfaceId",
					"type": "bytes4"
				}
			],
			"name": "supportsInterface",
			"outputs": [
				{
					"internalType": "bool",
					"name": "",
					"type": "bool"
				}
			],
			"stateMutability": "view",
			"type": "function"
		},
		{
			"inputs": [
				{
					"internalType": "uint256",
					"name": "",
					"type": "uint256"
				}
			],
			"name": "tokenEligible",
			"outputs": [
				{
					"internalType": "bool",
					"name": "",
					"type": "bool"
				}
			],
			"stateMutability": "view",
			"type": "function"
		},
		{
			"inputs": [
				{
					"internalType": "uint256",
					"name": "",
					"type": "uint256"
				}
			],
			"name": "triggerToLastTimeStamp",
			"outputs": [
				{
					"internalType": "uint256",
					"name": "",
					"type": "uint256"
				}
			],
			"stateMutability": "view",
			"type": "function"
		},
		{
			"inputs": [
				{
					"internalType": "uint256[2]",
					"name": "_max",
					"type": "uint256[2]"
				}
			],
			"name": "updatePerWallet",
			"outputs": [],
			"stateMutability": "nonpayable",
			"type": "function"
		},
		{
			"inputs": [
				{
					"internalType": "uint256[2]",
					"name": "_prices",
					"type": "uint256[2]"
				}
			],
			"name": "updatePrices",
			"outputs": [],
			"stateMutability": "nonpayable",
			"type": "function"
		},
		{
			"inputs": [
				{
					"internalType": "uint256",
					"name": "_supply",
					"type": "uint256"
				}
			],
			"name": "updateSupply",
			"outputs": [],
			"stateMutability": "nonpayable",
			"type": "function"
		},
		{
			"inputs": [
				{
					"internalType": "bytes32",
					"name": "_root",
					"type": "bytes32"
				}
			],
			"name": "updateWL",
			"outputs": [],
			"stateMutability": "nonpayable",
			"type": "function"
		},
		{
			"inputs": [
				{
					"internalType": "uint256",
					"name": "_id",
					"type": "uint256"
				}
			],
			"name": "uri",
			"outputs": [
				{
					"internalType": "string",
					"name": "",
					"type": "string"
				}
			],
			"stateMutability": "view",
			"type": "function"
		},
		{
			"inputs": [
				{
					"internalType": "address",
					"name": "",
					"type": "address"
				}
			],
			"name": "walletMints",
			"outputs": [
				{
					"internalType": "uint256",
					"name": "",
					"type": "uint256"
				}
			],
			"stateMutability": "view",
			"type": "function"
		},
		{
			"inputs": [],
			"name": "withdraw",
			"outputs": [],
			"stateMutability": "nonpayable",
			"type": "function"
		},
		{
			"inputs": [
				{
					"internalType": "bytes32[]",
					"name": "proof",
					"type": "bytes32[]"
				}
			],
			"name": "wlMint",
			"outputs": [],
			"stateMutability": "payable",
			"type": "function"
		}
	]
}